{
	"EVoting.sol": {
		"StudentDatabase": {
			"abi": [
				{
					"inputs": [],
					"stateMutability": "nonpayable",
					"type": "constructor"
				},
				{
					"anonymous": false,
					"inputs": [
						{
							"indexed": false,
							"internalType": "address",
							"name": "from",
							"type": "address"
						},
						{
							"indexed": false,
							"internalType": "uint256",
							"name": "amount",
							"type": "uint256"
						}
					],
					"name": "PaymentReceived",
					"type": "event"
				},
				{
					"anonymous": false,
					"inputs": [
						{
							"indexed": true,
							"internalType": "uint256",
							"name": "studentId",
							"type": "uint256"
						},
						{
							"indexed": false,
							"internalType": "string",
							"name": "name",
							"type": "string"
						},
						{
							"indexed": false,
							"internalType": "uint256",
							"name": "age",
							"type": "uint256"
						}
					],
					"name": "StudentAdded",
					"type": "event"
				},
				{
					"stateMutability": "payable",
					"type": "fallback"
				},
				{
					"inputs": [
						{
							"internalType": "uint256",
							"name": "_studentId",
							"type": "uint256"
						},
						{
							"internalType": "string",
							"name": "_name",
							"type": "string"
						},
						{
							"internalType": "uint256",
							"name": "_age",
							"type": "uint256"
						}
					],
					"name": "addStudent",
					"outputs": [],
					"stateMutability": "nonpayable",
					"type": "function"
				},
				{
					"inputs": [
						{
							"internalType": "uint256",
							"name": "_studentId",
							"type": "uint256"
						}
					],
					"name": "getStudent",
					"outputs": [
						{
							"internalType": "uint256",
							"name": "",
							"type": "uint256"
						},
						{
							"internalType": "string",
							"name": "",
							"type": "string"
						},
						{
							"internalType": "uint256",
							"name": "",
							"type": "uint256"
						}
					],
					"stateMutability": "view",
					"type": "function"
				},
				{
					"inputs": [],
					"name": "getStudentCount",
					"outputs": [
						{
							"internalType": "uint256",
							"name": "",
							"type": "uint256"
						}
					],
					"stateMutability": "view",
					"type": "function"
				},
				{
					"inputs": [],
					"name": "owner",
					"outputs": [
						{
							"internalType": "address",
							"name": "",
							"type": "address"
						}
					],
					"stateMutability": "view",
					"type": "function"
				},
				{
					"inputs": [
						{
							"internalType": "uint256",
							"name": "",
							"type": "uint256"
						}
					],
					"name": "students",
					"outputs": [
						{
							"internalType": "uint256",
							"name": "studentId",
							"type": "uint256"
						},
						{
							"internalType": "string",
							"name": "name",
							"type": "string"
						},
						{
							"internalType": "uint256",
							"name": "age",
							"type": "uint256"
						}
					],
					"stateMutability": "view",
					"type": "function"
				},
				{
					"stateMutability": "payable",
					"type": "receive"
				}
			],
			"devdoc": {
				"kind": "dev",
				"methods": {
					"addStudent(uint256,string,uint256)": {
						"details": "Adds a new student to the 'students' array. This is a state-changing operation and will cost gas.",
						"params": {
							"_age": "The age of the student.",
							"_name": "The name of the student.",
							"_studentId": "The unique ID for the student."
						}
					},
					"constructor": {
						"details": "The constructor runs once when the contract is deployed. It sets the contract's owner."
					},
					"getStudent(uint256)": {
						"details": "Retrieves a student's details by their ID. This is a 'view' function and does not cost gas to call.",
						"params": {
							"_studentId": "The ID of the student to retrieve."
						},
						"returns": {
							"_0": "The student's ID, name, and age."
						}
					},
					"getStudentCount()": {
						"details": "Returns the total number of students in the database."
					}
				},
				"stateVariables": {
					"students": {
						"details": "A dynamic array to store multiple 'Student' structs. 'students[]' can grow in size as new students are added."
					}
				},
				"version": 1
			},
			"evm": {
				"assembly": "    /* \"EVoting.sol\":64:3670  contract StudentDatabase {... */\n  mstore(0x40, 0x80)\n    /* \"EVoting.sol\":1121:1172  constructor() {... */\n  callvalue\n  dup1\n  iszero\n  tag_1\n  jumpi\n  revert(0x00, 0x00)\ntag_1:\n  pop\n    /* \"EVoting.sol\":1154:1164  msg.sender */\n  caller\n    /* \"EVoting.sol\":1146:1151  owner */\n  0x00\n  0x00\n    /* \"EVoting.sol\":1146:1164  owner = msg.sender */\n  0x0100\n  exp\n  dup2\n  sload\n  dup2\n  0xffffffffffffffffffffffffffffffffffffffff\n  mul\n  not\n  and\n  swap1\n  dup4\n  0xffffffffffffffffffffffffffffffffffffffff\n  and\n  mul\n  or\n  swap1\n  sstore\n  pop\n    /* \"EVoting.sol\":64:3670  contract StudentDatabase {... */\n  dataSize(sub_0)\n  dup1\n  dataOffset(sub_0)\n  0x00\n  codecopy\n  0x00\n  return\nstop\n\nsub_0: assembly {\n        /* \"EVoting.sol\":64:3670  contract StudentDatabase {... */\n      mstore(0x40, 0x80)\n      jumpi(tag_1, lt(calldatasize, 0x04))\n      shr(0xe0, calldataload(0x00))\n      dup1\n      0x06ead22e\n      eq\n      tag_3\n      jumpi\n      dup1\n      0x41e0c407\n      eq\n      tag_4\n      jumpi\n      dup1\n      0x642f9163\n      eq\n      tag_5\n      jumpi\n      dup1\n      0x8da5cb5b\n      eq\n      tag_6\n      jumpi\n      dup1\n      0xc1bea1db\n      eq\n      tag_7\n      jumpi\n      jump(tag_2)\n    tag_1:\n      jumpi(tag_2, calldatasize)\n        /* \"EVoting.sol\":3621:3659  PaymentReceived(msg.sender, msg.value) */\n      0x6ef95f06320e7a25a04a175ca677b7052bdd97131872c2192525a629f51be770\n        /* \"EVoting.sol\":3637:3647  msg.sender */\n      caller\n        /* \"EVoting.sol\":3649:3658  msg.value */\n      callvalue\n        /* \"EVoting.sol\":3621:3659  PaymentReceived(msg.sender, msg.value) */\n      mload(0x40)\n      tag_10\n      swap3\n      swap2\n      swap1\n      tag_11\n      jump\t// in\n    tag_10:\n      mload(0x40)\n      dup1\n      swap2\n      sub\n      swap1\n      log1\n        /* \"EVoting.sol\":64:3670  contract StudentDatabase {... */\n      stop\n    tag_2:\n        /* \"EVoting.sol\":3358:3396  PaymentReceived(msg.sender, msg.value) */\n      0x6ef95f06320e7a25a04a175ca677b7052bdd97131872c2192525a629f51be770\n        /* \"EVoting.sol\":3374:3384  msg.sender */\n      caller\n        /* \"EVoting.sol\":3386:3395  msg.value */\n      callvalue\n        /* \"EVoting.sol\":3358:3396  PaymentReceived(msg.sender, msg.value) */\n      mload(0x40)\n      tag_14\n      swap3\n      swap2\n      swap1\n      tag_11\n      jump\t// in\n    tag_14:\n      mload(0x40)\n      dup1\n      swap2\n      sub\n      swap1\n      log1\n        /* \"EVoting.sol\":64:3670  contract StudentDatabase {... */\n      stop\n        /* \"EVoting.sol\":577:602  Student[] public students */\n    tag_3:\n      callvalue\n      dup1\n      iszero\n      tag_15\n      jumpi\n      revert(0x00, 0x00)\n    tag_15:\n      pop\n      tag_16\n      0x04\n      dup1\n      calldatasize\n      sub\n      dup2\n      add\n      swap1\n      tag_17\n      swap2\n      swap1\n      tag_18\n      jump\t// in\n    tag_17:\n      tag_19\n      jump\t// in\n    tag_16:\n      mload(0x40)\n      tag_20\n      swap4\n      swap3\n      swap2\n      swap1\n      tag_21\n      jump\t// in\n    tag_20:\n      mload(0x40)\n      dup1\n      swap2\n      sub\n      swap1\n      return\n        /* \"EVoting.sol\":2887:2982  function getStudentCount() public view returns (uint) {... */\n    tag_4:\n      callvalue\n      dup1\n      iszero\n      tag_22\n      jumpi\n      revert(0x00, 0x00)\n    tag_22:\n      pop\n      tag_23\n      tag_24\n      jump\t// in\n    tag_23:\n      mload(0x40)\n      tag_25\n      swap2\n      swap1\n      tag_26\n      jump\t// in\n    tag_25:\n      mload(0x40)\n      dup1\n      swap2\n      sub\n      swap1\n      return\n        /* \"EVoting.sol\":2412:2794  function getStudent(uint _studentId) public view returns (uint, string memory, uint) {... */\n    tag_5:\n      callvalue\n      dup1\n      iszero\n      tag_27\n      jumpi\n      revert(0x00, 0x00)\n    tag_27:\n      pop\n      tag_28\n      0x04\n      dup1\n      calldatasize\n      sub\n      dup2\n      add\n      swap1\n      tag_29\n      swap2\n      swap1\n      tag_18\n      jump\t// in\n    tag_29:\n      tag_30\n      jump\t// in\n    tag_28:\n      mload(0x40)\n      tag_31\n      swap4\n      swap3\n      swap2\n      swap1\n      tag_21\n      jump\t// in\n    tag_31:\n      mload(0x40)\n      dup1\n      swap2\n      sub\n      swap1\n      return\n        /* \"EVoting.sol\":159:179  address public owner */\n    tag_6:\n      callvalue\n      dup1\n      iszero\n      tag_32\n      jumpi\n      revert(0x00, 0x00)\n    tag_32:\n      pop\n      tag_33\n      tag_34\n      jump\t// in\n    tag_33:\n      mload(0x40)\n      tag_35\n      swap2\n      swap1\n      tag_36\n      jump\t// in\n    tag_35:\n      mload(0x40)\n      dup1\n      swap2\n      sub\n      swap1\n      return\n        /* \"EVoting.sol\":1683:2155  function addStudent(uint _studentId, string memory _name, uint _age) public onlyOwner {... */\n    tag_7:\n      callvalue\n      dup1\n      iszero\n      tag_37\n      jumpi\n      revert(0x00, 0x00)\n    tag_37:\n      pop\n      tag_38\n      0x04\n      dup1\n      calldatasize\n      sub\n      dup2\n      add\n      swap1\n      tag_39\n      swap2\n      swap1\n      tag_40\n      jump\t// in\n    tag_39:\n      tag_41\n      jump\t// in\n    tag_38:\n      stop\n        /* \"EVoting.sol\":577:602  Student[] public students */\n    tag_19:\n      0x01\n      dup2\n      dup2\n      sload\n      dup2\n      lt\n      tag_42\n      jumpi\n      0x00\n      dup1\n      revert\n    tag_42:\n      swap1\n      0x00\n      mstore\n      keccak256(0x00, 0x20)\n      swap1\n      0x03\n      mul\n      add\n      0x00\n      swap2\n      pop\n      swap1\n      pop\n      dup1\n      0x00\n      add\n      sload\n      swap1\n      dup1\n      0x01\n      add\n      dup1\n      sload\n      tag_44\n      swap1\n      tag_45\n      jump\t// in\n    tag_44:\n      dup1\n      0x1f\n      add\n      0x20\n      dup1\n      swap2\n      div\n      mul\n      0x20\n      add\n      mload(0x40)\n      swap1\n      dup2\n      add\n      0x40\n      mstore\n      dup1\n      swap3\n      swap2\n      swap1\n      dup2\n      dup2\n      mstore\n      0x20\n      add\n      dup3\n      dup1\n      sload\n      tag_46\n      swap1\n      tag_45\n      jump\t// in\n    tag_46:\n      dup1\n      iszero\n      tag_47\n      jumpi\n      dup1\n      0x1f\n      lt\n      tag_48\n      jumpi\n      0x0100\n      dup1\n      dup4\n      sload\n      div\n      mul\n      dup4\n      mstore\n      swap2\n      0x20\n      add\n      swap2\n      jump(tag_47)\n    tag_48:\n      dup3\n      add\n      swap2\n      swap1\n      0x00\n      mstore\n      keccak256(0x00, 0x20)\n      swap1\n    tag_49:\n      dup2\n      sload\n      dup2\n      mstore\n      swap1\n      0x01\n      add\n      swap1\n      0x20\n      add\n      dup1\n      dup4\n      gt\n      tag_49\n      jumpi\n      dup3\n      swap1\n      sub\n      0x1f\n      and\n      dup3\n      add\n      swap2\n    tag_47:\n      pop\n      pop\n      pop\n      pop\n      pop\n      swap1\n      dup1\n      0x02\n      add\n      sload\n      swap1\n      pop\n      dup4\n      jump\t// out\n        /* \"EVoting.sol\":2887:2982  function getStudentCount() public view returns (uint) {... */\n    tag_24:\n        /* \"EVoting.sol\":2935:2939  uint */\n      0x00\n        /* \"EVoting.sol\":2959:2967  students */\n      0x01\n        /* \"EVoting.sol\":2959:2974  students.length */\n      dup1\n      sload\n      swap1\n      pop\n        /* \"EVoting.sol\":2952:2974  return students.length */\n      swap1\n      pop\n        /* \"EVoting.sol\":2887:2982  function getStudentCount() public view returns (uint) {... */\n      swap1\n      jump\t// out\n        /* \"EVoting.sol\":2412:2794  function getStudent(uint _studentId) public view returns (uint, string memory, uint) {... */\n    tag_30:\n        /* \"EVoting.sol\":2470:2474  uint */\n      0x00\n        /* \"EVoting.sol\":2476:2489  string memory */\n      0x60\n        /* \"EVoting.sol\":2491:2495  uint */\n      0x00\n        /* \"EVoting.sol\":2548:2549  0 */\n      0x00\n        /* \"EVoting.sol\":2516:2532  studentIdToIndex */\n      0x02\n        /* \"EVoting.sol\":2516:2544  studentIdToIndex[_studentId] */\n      0x00\n        /* \"EVoting.sol\":2533:2543  _studentId */\n      dup7\n        /* \"EVoting.sol\":2516:2544  studentIdToIndex[_studentId] */\n      dup2\n      mstore\n      0x20\n      add\n      swap1\n      dup2\n      mstore\n      0x20\n      add\n      0x00\n      keccak256\n      sload\n        /* \"EVoting.sol\":2516:2549  studentIdToIndex[_studentId] != 0 */\n      sub\n        /* \"EVoting.sol\":2508:2572  require(studentIdToIndex[_studentId] != 0, \"Student not found.\") */\n      tag_52\n      jumpi\n      mload(0x40)\n      0x08c379a000000000000000000000000000000000000000000000000000000000\n      dup2\n      mstore\n      0x04\n      add\n      tag_53\n      swap1\n      tag_54\n      jump\t// in\n    tag_53:\n      mload(0x40)\n      dup1\n      swap2\n      sub\n      swap1\n      revert\n    tag_52:\n        /* \"EVoting.sol\":2593:2603  uint index */\n      0x00\n        /* \"EVoting.sol\":2637:2638  1 */\n      0x01\n        /* \"EVoting.sol\":2606:2622  studentIdToIndex */\n      0x02\n        /* \"EVoting.sol\":2606:2634  studentIdToIndex[_studentId] */\n      0x00\n        /* \"EVoting.sol\":2623:2633  _studentId */\n      dup8\n        /* \"EVoting.sol\":2606:2634  studentIdToIndex[_studentId] */\n      dup2\n      mstore\n      0x20\n      add\n      swap1\n      dup2\n      mstore\n      0x20\n      add\n      0x00\n      keccak256\n      sload\n        /* \"EVoting.sol\":2606:2638  studentIdToIndex[_studentId] - 1 */\n      tag_55\n      swap2\n      swap1\n      tag_56\n      jump\t// in\n    tag_55:\n        /* \"EVoting.sol\":2593:2638  uint index = studentIdToIndex[_studentId] - 1 */\n      swap1\n      pop\n        /* \"EVoting.sol\":2682:2704  Student memory student */\n      0x00\n        /* \"EVoting.sol\":2707:2715  students */\n      0x01\n        /* \"EVoting.sol\":2716:2721  index */\n      dup3\n        /* \"EVoting.sol\":2707:2722  students[index] */\n      dup2\n      sload\n      dup2\n      lt\n      tag_57\n      jumpi\n      tag_58\n      tag_59\n      jump\t// in\n    tag_58:\n    tag_57:\n      swap1\n      0x00\n      mstore\n      keccak256(0x00, 0x20)\n      swap1\n      0x03\n      mul\n      add\n        /* \"EVoting.sol\":2682:2722  Student memory student = students[index] */\n      mload(0x40)\n      dup1\n      0x60\n      add\n      0x40\n      mstore\n      swap1\n      dup2\n      0x00\n      dup3\n      add\n      sload\n      dup2\n      mstore\n      0x20\n      add\n      0x01\n      dup3\n      add\n      dup1\n      sload\n      tag_61\n      swap1\n      tag_45\n      jump\t// in\n    tag_61:\n      dup1\n      0x1f\n      add\n      0x20\n      dup1\n      swap2\n      div\n      mul\n      0x20\n      add\n      mload(0x40)\n      swap1\n      dup2\n      add\n      0x40\n      mstore\n      dup1\n      swap3\n      swap2\n      swap1\n      dup2\n      dup2\n      mstore\n      0x20\n      add\n      dup3\n      dup1\n      sload\n      tag_62\n      swap1\n      tag_45\n      jump\t// in\n    tag_62:\n      dup1\n      iszero\n      tag_63\n      jumpi\n      dup1\n      0x1f\n      lt\n      tag_64\n      jumpi\n      0x0100\n      dup1\n      dup4\n      sload\n      div\n      mul\n      dup4\n      mstore\n      swap2\n      0x20\n      add\n      swap2\n      jump(tag_63)\n    tag_64:\n      dup3\n      add\n      swap2\n      swap1\n      0x00\n      mstore\n      keccak256(0x00, 0x20)\n      swap1\n    tag_65:\n      dup2\n      sload\n      dup2\n      mstore\n      swap1\n      0x01\n      add\n      swap1\n      0x20\n      add\n      dup1\n      dup4\n      gt\n      tag_65\n      jumpi\n      dup3\n      swap1\n      sub\n      0x1f\n      and\n      dup3\n      add\n      swap2\n    tag_63:\n      pop\n      pop\n      pop\n      pop\n      pop\n      dup2\n      mstore\n      0x20\n      add\n      0x02\n      dup3\n      add\n      sload\n      dup2\n      mstore\n      pop\n      pop\n      swap1\n      pop\n        /* \"EVoting.sol\":2741:2748  student */\n      dup1\n        /* \"EVoting.sol\":2741:2758  student.studentId */\n      0x00\n      add\n      mload\n        /* \"EVoting.sol\":2760:2767  student */\n      dup2\n        /* \"EVoting.sol\":2760:2772  student.name */\n      0x20\n      add\n      mload\n        /* \"EVoting.sol\":2774:2781  student */\n      dup3\n        /* \"EVoting.sol\":2774:2785  student.age */\n      0x40\n      add\n      mload\n        /* \"EVoting.sol\":2733:2786  return (student.studentId, student.name, student.age) */\n      swap5\n      pop\n      swap5\n      pop\n      swap5\n      pop\n      pop\n      pop\n        /* \"EVoting.sol\":2412:2794  function getStudent(uint _studentId) public view returns (uint, string memory, uint) {... */\n      swap2\n      swap4\n      swap1\n      swap3\n      pop\n      jump\t// out\n        /* \"EVoting.sol\":159:179  address public owner */\n    tag_34:\n      0x00\n      0x00\n      swap1\n      sload\n      swap1\n      0x0100\n      exp\n      swap1\n      div\n      0xffffffffffffffffffffffffffffffffffffffff\n      and\n      dup2\n      jump\t// out\n        /* \"EVoting.sol\":1683:2155  function addStudent(uint _studentId, string memory _name, uint _age) public onlyOwner {... */\n    tag_41:\n        /* \"EVoting.sol\":1323:1328  owner */\n      0x00\n      0x00\n      swap1\n      sload\n      swap1\n      0x0100\n      exp\n      swap1\n      div\n      0xffffffffffffffffffffffffffffffffffffffff\n      and\n        /* \"EVoting.sol\":1309:1328  msg.sender == owner */\n      0xffffffffffffffffffffffffffffffffffffffff\n      and\n        /* \"EVoting.sol\":1309:1319  msg.sender */\n      caller\n        /* \"EVoting.sol\":1309:1328  msg.sender == owner */\n      0xffffffffffffffffffffffffffffffffffffffff\n      and\n      eq\n        /* \"EVoting.sol\":1301:1371  require(msg.sender == owner, \"Only the owner can call this function.\") */\n      tag_67\n      jumpi\n      mload(0x40)\n      0x08c379a000000000000000000000000000000000000000000000000000000000\n      dup2\n      mstore\n      0x04\n      add\n      tag_68\n      swap1\n      tag_69\n      jump\t// in\n    tag_68:\n      mload(0x40)\n      dup1\n      swap2\n      sub\n      swap1\n      revert\n    tag_67:\n        /* \"EVoting.sol\":1906:1907  0 */\n      0x00\n        /* \"EVoting.sol\":1874:1890  studentIdToIndex */\n      0x02\n        /* \"EVoting.sol\":1874:1902  studentIdToIndex[_studentId] */\n      0x00\n        /* \"EVoting.sol\":1891:1901  _studentId */\n      dup6\n        /* \"EVoting.sol\":1874:1902  studentIdToIndex[_studentId] */\n      dup2\n      mstore\n      0x20\n      add\n      swap1\n      dup2\n      mstore\n      0x20\n      add\n      0x00\n      keccak256\n      sload\n        /* \"EVoting.sol\":1874:1907  studentIdToIndex[_studentId] == 0 */\n      eq\n        /* \"EVoting.sol\":1866:1948  require(studentIdToIndex[_studentId] == 0, \"Student with this ID already exists.\") */\n      tag_71\n      jumpi\n      mload(0x40)\n      0x08c379a000000000000000000000000000000000000000000000000000000000\n      dup2\n      mstore\n      0x04\n      add\n      tag_72\n      swap1\n      tag_73\n      jump\t// in\n    tag_72:\n      mload(0x40)\n      dup1\n      swap2\n      sub\n      swap1\n      revert\n    tag_71:\n        /* \"EVoting.sol\":1961:1969  students */\n      0x01\n        /* \"EVoting.sol\":1975:2007  Student(_studentId, _name, _age) */\n      mload(0x40)\n      dup1\n      0x60\n      add\n      0x40\n      mstore\n      dup1\n        /* \"EVoting.sol\":1983:1993  _studentId */\n      dup6\n        /* \"EVoting.sol\":1975:2007  Student(_studentId, _name, _age) */\n      dup2\n      mstore\n      0x20\n      add\n        /* \"EVoting.sol\":1995:2000  _name */\n      dup5\n        /* \"EVoting.sol\":1975:2007  Student(_studentId, _name, _age) */\n      dup2\n      mstore\n      0x20\n      add\n        /* \"EVoting.sol\":2002:2006  _age */\n      dup4\n        /* \"EVoting.sol\":1975:2007  Student(_studentId, _name, _age) */\n      dup2\n      mstore\n      pop\n        /* \"EVoting.sol\":1961:2008  students.push(Student(_studentId, _name, _age)) */\n      swap1\n      dup1\n      0x01\n      dup2\n      sload\n      add\n      dup1\n      dup3\n      sstore\n      dup1\n      swap2\n      pop\n      pop\n      0x01\n      swap1\n      sub\n      swap1\n      0x00\n      mstore\n      keccak256(0x00, 0x20)\n      swap1\n      0x03\n      mul\n      add\n      0x00\n      swap1\n      swap2\n      swap1\n      swap2\n      swap1\n      swap2\n      pop\n      0x00\n      dup3\n      add\n      mload\n      dup2\n      0x00\n      add\n      sstore\n      0x20\n      dup3\n      add\n      mload\n      dup2\n      0x01\n      add\n      swap1\n      dup2\n      tag_75\n      swap2\n      swap1\n      tag_76\n      jump\t// in\n    tag_75:\n      pop\n      0x40\n      dup3\n      add\n      mload\n      dup2\n      0x02\n      add\n      sstore\n      pop\n      pop\n        /* \"EVoting.sol\":2050:2058  students */\n      0x01\n        /* \"EVoting.sol\":2050:2065  students.length */\n      dup1\n      sload\n      swap1\n      pop\n        /* \"EVoting.sol\":2019:2035  studentIdToIndex */\n      0x02\n        /* \"EVoting.sol\":2019:2047  studentIdToIndex[_studentId] */\n      0x00\n        /* \"EVoting.sol\":2036:2046  _studentId */\n      dup6\n        /* \"EVoting.sol\":2019:2047  studentIdToIndex[_studentId] */\n      dup2\n      mstore\n      0x20\n      add\n      swap1\n      dup2\n      mstore\n      0x20\n      add\n      0x00\n      keccak256\n        /* \"EVoting.sol\":2019:2065  studentIdToIndex[_studentId] = students.length */\n      dup2\n      swap1\n      sstore\n      pop\n        /* \"EVoting.sol\":2123:2133  _studentId */\n      dup3\n        /* \"EVoting.sol\":2110:2147  StudentAdded(_studentId, _name, _age) */\n      0xfafb7311fc57ca8a55073f63725e888b4250c799d77ae873970d65ac08c5917a\n        /* \"EVoting.sol\":2135:2140  _name */\n      dup4\n        /* \"EVoting.sol\":2142:2146  _age */\n      dup4\n        /* \"EVoting.sol\":2110:2147  StudentAdded(_studentId, _name, _age) */\n      mload(0x40)\n      tag_77\n      swap3\n      swap2\n      swap1\n      tag_78\n      jump\t// in\n    tag_77:\n      mload(0x40)\n      dup1\n      swap2\n      sub\n      swap1\n      log2\n        /* \"EVoting.sol\":1683:2155  function addStudent(uint _studentId, string memory _name, uint _age) public onlyOwner {... */\n      pop\n      pop\n      pop\n      jump\t// out\n        /* \"#utility.yul\":7:133   */\n    tag_79:\n        /* \"#utility.yul\":44:51   */\n      0x00\n        /* \"#utility.yul\":84:126   */\n      0xffffffffffffffffffffffffffffffffffffffff\n        /* \"#utility.yul\":77:82   */\n      dup3\n        /* \"#utility.yul\":73:127   */\n      and\n        /* \"#utility.yul\":62:127   */\n      swap1\n      pop\n        /* \"#utility.yul\":7:133   */\n      swap2\n      swap1\n      pop\n      jump\t// out\n        /* \"#utility.yul\":139:235   */\n    tag_80:\n        /* \"#utility.yul\":176:183   */\n      0x00\n        /* \"#utility.yul\":205:229   */\n      tag_129\n        /* \"#utility.yul\":223:228   */\n      dup3\n        /* \"#utility.yul\":205:229   */\n      tag_79\n      jump\t// in\n    tag_129:\n        /* \"#utility.yul\":194:229   */\n      swap1\n      pop\n        /* \"#utility.yul\":139:235   */\n      swap2\n      swap1\n      pop\n      jump\t// out\n        /* \"#utility.yul\":241:359   */\n    tag_81:\n        /* \"#utility.yul\":328:352   */\n      tag_131\n        /* \"#utility.yul\":346:351   */\n      dup2\n        /* \"#utility.yul\":328:352   */\n      tag_80\n      jump\t// in\n    tag_131:\n        /* \"#utility.yul\":323:326   */\n      dup3\n        /* \"#utility.yul\":316:353   */\n      mstore\n        /* \"#utility.yul\":241:359   */\n      pop\n      pop\n      jump\t// out\n        /* \"#utility.yul\":365:442   */\n    tag_82:\n        /* \"#utility.yul\":402:409   */\n      0x00\n        /* \"#utility.yul\":431:436   */\n      dup2\n        /* \"#utility.yul\":420:436   */\n      swap1\n      pop\n        /* \"#utility.yul\":365:442   */\n      swap2\n      swap1\n      pop\n      jump\t// out\n        /* \"#utility.yul\":448:566   */\n    tag_83:\n        /* \"#utility.yul\":535:559   */\n      tag_134\n        /* \"#utility.yul\":553:558   */\n      dup2\n        /* \"#utility.yul\":535:559   */\n      tag_82\n      jump\t// in\n    tag_134:\n        /* \"#utility.yul\":530:533   */\n      dup3\n        /* \"#utility.yul\":523:560   */\n      mstore\n        /* \"#utility.yul\":448:566   */\n      pop\n      pop\n      jump\t// out\n        /* \"#utility.yul\":572:904   */\n    tag_11:\n        /* \"#utility.yul\":693:697   */\n      0x00\n        /* \"#utility.yul\":731:733   */\n      0x40\n        /* \"#utility.yul\":720:729   */\n      dup3\n        /* \"#utility.yul\":716:734   */\n      add\n        /* \"#utility.yul\":708:734   */\n      swap1\n      pop\n        /* \"#utility.yul\":744:815   */\n      tag_136\n        /* \"#utility.yul\":812:813   */\n      0x00\n        /* \"#utility.yul\":801:810   */\n      dup4\n        /* \"#utility.yul\":797:814   */\n      add\n        /* \"#utility.yul\":788:794   */\n      dup6\n        /* \"#utility.yul\":744:815   */\n      tag_81\n      jump\t// in\n    tag_136:\n        /* \"#utility.yul\":825:897   */\n      tag_137\n        /* \"#utility.yul\":893:895   */\n      0x20\n        /* \"#utility.yul\":882:891   */\n      dup4\n        /* \"#utility.yul\":878:896   */\n      add\n        /* \"#utility.yul\":869:875   */\n      dup5\n        /* \"#utility.yul\":825:897   */\n      tag_83\n      jump\t// in\n    tag_137:\n        /* \"#utility.yul\":572:904   */\n      swap4\n      swap3\n      pop\n      pop\n      pop\n      jump\t// out\n        /* \"#utility.yul\":910:985   */\n    tag_84:\n        /* \"#utility.yul\":943:949   */\n      0x00\n        /* \"#utility.yul\":976:978   */\n      0x40\n        /* \"#utility.yul\":970:979   */\n      mload\n        /* \"#utility.yul\":960:979   */\n      swap1\n      pop\n        /* \"#utility.yul\":910:985   */\n      swap1\n      jump\t// out\n        /* \"#utility.yul\":991:1108   */\n    tag_85:\n        /* \"#utility.yul\":1100:1101   */\n      0x00\n        /* \"#utility.yul\":1097:1098   */\n      0x00\n        /* \"#utility.yul\":1090:1102   */\n      revert\n        /* \"#utility.yul\":1114:1231   */\n    tag_86:\n        /* \"#utility.yul\":1223:1224   */\n      0x00\n        /* \"#utility.yul\":1220:1221   */\n      0x00\n        /* \"#utility.yul\":1213:1225   */\n      revert\n        /* \"#utility.yul\":1237:1359   */\n    tag_87:\n        /* \"#utility.yul\":1310:1334   */\n      tag_142\n        /* \"#utility.yul\":1328:1333   */\n      dup2\n        /* \"#utility.yul\":1310:1334   */\n      tag_82\n      jump\t// in\n    tag_142:\n        /* \"#utility.yul\":1303:1308   */\n      dup2\n        /* \"#utility.yul\":1300:1335   */\n      eq\n        /* \"#utility.yul\":1290:1353   */\n      tag_143\n      jumpi\n        /* \"#utility.yul\":1349:1350   */\n      0x00\n        /* \"#utility.yul\":1346:1347   */\n      0x00\n        /* \"#utility.yul\":1339:1351   */\n      revert\n        /* \"#utility.yul\":1290:1353   */\n    tag_143:\n        /* \"#utility.yul\":1237:1359   */\n      pop\n      jump\t// out\n        /* \"#utility.yul\":1365:1504   */\n    tag_88:\n        /* \"#utility.yul\":1411:1416   */\n      0x00\n        /* \"#utility.yul\":1449:1455   */\n      dup2\n        /* \"#utility.yul\":1436:1456   */\n      calldataload\n        /* \"#utility.yul\":1427:1456   */\n      swap1\n      pop\n        /* \"#utility.yul\":1465:1498   */\n      tag_145\n        /* \"#utility.yul\":1492:1497   */\n      dup2\n        /* \"#utility.yul\":1465:1498   */\n      tag_87\n      jump\t// in\n    tag_145:\n        /* \"#utility.yul\":1365:1504   */\n      swap3\n      swap2\n      pop\n      pop\n      jump\t// out\n        /* \"#utility.yul\":1510:1839   */\n    tag_18:\n        /* \"#utility.yul\":1569:1575   */\n      0x00\n        /* \"#utility.yul\":1618:1620   */\n      0x20\n        /* \"#utility.yul\":1606:1615   */\n      dup3\n        /* \"#utility.yul\":1597:1604   */\n      dup5\n        /* \"#utility.yul\":1593:1616   */\n      sub\n        /* \"#utility.yul\":1589:1621   */\n      slt\n        /* \"#utility.yul\":1586:1705   */\n      iszero\n      tag_147\n      jumpi\n        /* \"#utility.yul\":1624:1703   */\n      tag_148\n      tag_85\n      jump\t// in\n    tag_148:\n        /* \"#utility.yul\":1586:1705   */\n    tag_147:\n        /* \"#utility.yul\":1744:1745   */\n      0x00\n        /* \"#utility.yul\":1769:1822   */\n      tag_149\n        /* \"#utility.yul\":1814:1821   */\n      dup5\n        /* \"#utility.yul\":1805:1811   */\n      dup3\n        /* \"#utility.yul\":1794:1803   */\n      dup6\n        /* \"#utility.yul\":1790:1812   */\n      add\n        /* \"#utility.yul\":1769:1822   */\n      tag_88\n      jump\t// in\n    tag_149:\n        /* \"#utility.yul\":1759:1822   */\n      swap2\n      pop\n        /* \"#utility.yul\":1715:1832   */\n      pop\n        /* \"#utility.yul\":1510:1839   */\n      swap3\n      swap2\n      pop\n      pop\n      jump\t// out\n        /* \"#utility.yul\":1845:1944   */\n    tag_89:\n        /* \"#utility.yul\":1897:1903   */\n      0x00\n        /* \"#utility.yul\":1931:1936   */\n      dup2\n        /* \"#utility.yul\":1925:1937   */\n      mload\n        /* \"#utility.yul\":1915:1937   */\n      swap1\n      pop\n        /* \"#utility.yul\":1845:1944   */\n      swap2\n      swap1\n      pop\n      jump\t// out\n        /* \"#utility.yul\":1950:2119   */\n    tag_90:\n        /* \"#utility.yul\":2034:2045   */\n      0x00\n        /* \"#utility.yul\":2068:2074   */\n      dup3\n        /* \"#utility.yul\":2063:2066   */\n      dup3\n        /* \"#utility.yul\":2056:2075   */\n      mstore\n        /* \"#utility.yul\":2108:2112   */\n      0x20\n        /* \"#utility.yul\":2103:2106   */\n      dup3\n        /* \"#utility.yul\":2099:2113   */\n      add\n        /* \"#utility.yul\":2084:2113   */\n      swap1\n      pop\n        /* \"#utility.yul\":1950:2119   */\n      swap3\n      swap2\n      pop\n      pop\n      jump\t// out\n        /* \"#utility.yul\":2125:2264   */\n    tag_91:\n        /* \"#utility.yul\":2214:2220   */\n      dup3\n        /* \"#utility.yul\":2209:2212   */\n      dup2\n        /* \"#utility.yul\":2204:2207   */\n      dup4\n        /* \"#utility.yul\":2198:2221   */\n      mcopy\n        /* \"#utility.yul\":2255:2256   */\n      0x00\n        /* \"#utility.yul\":2246:2252   */\n      dup4\n        /* \"#utility.yul\":2241:2244   */\n      dup4\n        /* \"#utility.yul\":2237:2253   */\n      add\n        /* \"#utility.yul\":2230:2257   */\n      mstore\n        /* \"#utility.yul\":2125:2264   */\n      pop\n      pop\n      pop\n      jump\t// out\n        /* \"#utility.yul\":2270:2372   */\n    tag_92:\n        /* \"#utility.yul\":2311:2317   */\n      0x00\n        /* \"#utility.yul\":2362:2364   */\n      0x1f\n        /* \"#utility.yul\":2358:2365   */\n      not\n        /* \"#utility.yul\":2353:2355   */\n      0x1f\n        /* \"#utility.yul\":2346:2351   */\n      dup4\n        /* \"#utility.yul\":2342:2356   */\n      add\n        /* \"#utility.yul\":2338:2366   */\n      and\n        /* \"#utility.yul\":2328:2366   */\n      swap1\n      pop\n        /* \"#utility.yul\":2270:2372   */\n      swap2\n      swap1\n      pop\n      jump\t// out\n        /* \"#utility.yul\":2378:2755   */\n    tag_93:\n        /* \"#utility.yul\":2466:2469   */\n      0x00\n        /* \"#utility.yul\":2494:2533   */\n      tag_155\n        /* \"#utility.yul\":2527:2532   */\n      dup3\n        /* \"#utility.yul\":2494:2533   */\n      tag_89\n      jump\t// in\n    tag_155:\n        /* \"#utility.yul\":2549:2620   */\n      tag_156\n        /* \"#utility.yul\":2613:2619   */\n      dup2\n        /* \"#utility.yul\":2608:2611   */\n      dup6\n        /* \"#utility.yul\":2549:2620   */\n      tag_90\n      jump\t// in\n    tag_156:\n        /* \"#utility.yul\":2542:2620   */\n      swap4\n      pop\n        /* \"#utility.yul\":2629:2694   */\n      tag_157\n        /* \"#utility.yul\":2687:2693   */\n      dup2\n        /* \"#utility.yul\":2682:2685   */\n      dup6\n        /* \"#utility.yul\":2675:2679   */\n      0x20\n        /* \"#utility.yul\":2668:2673   */\n      dup7\n        /* \"#utility.yul\":2664:2680   */\n      add\n        /* \"#utility.yul\":2629:2694   */\n      tag_91\n      jump\t// in\n    tag_157:\n        /* \"#utility.yul\":2719:2748   */\n      tag_158\n        /* \"#utility.yul\":2741:2747   */\n      dup2\n        /* \"#utility.yul\":2719:2748   */\n      tag_92\n      jump\t// in\n    tag_158:\n        /* \"#utility.yul\":2714:2717   */\n      dup5\n        /* \"#utility.yul\":2710:2749   */\n      add\n        /* \"#utility.yul\":2703:2749   */\n      swap2\n      pop\n        /* \"#utility.yul\":2470:2755   */\n      pop\n        /* \"#utility.yul\":2378:2755   */\n      swap3\n      swap2\n      pop\n      pop\n      jump\t// out\n        /* \"#utility.yul\":2761:3294   */\n    tag_21:\n        /* \"#utility.yul\":2930:2934   */\n      0x00\n        /* \"#utility.yul\":2968:2970   */\n      0x60\n        /* \"#utility.yul\":2957:2966   */\n      dup3\n        /* \"#utility.yul\":2953:2971   */\n      add\n        /* \"#utility.yul\":2945:2971   */\n      swap1\n      pop\n        /* \"#utility.yul\":2981:3052   */\n      tag_160\n        /* \"#utility.yul\":3049:3050   */\n      0x00\n        /* \"#utility.yul\":3038:3047   */\n      dup4\n        /* \"#utility.yul\":3034:3051   */\n      add\n        /* \"#utility.yul\":3025:3031   */\n      dup7\n        /* \"#utility.yul\":2981:3052   */\n      tag_83\n      jump\t// in\n    tag_160:\n        /* \"#utility.yul\":3099:3108   */\n      dup2\n        /* \"#utility.yul\":3093:3097   */\n      dup2\n        /* \"#utility.yul\":3089:3109   */\n      sub\n        /* \"#utility.yul\":3084:3086   */\n      0x20\n        /* \"#utility.yul\":3073:3082   */\n      dup4\n        /* \"#utility.yul\":3069:3087   */\n      add\n        /* \"#utility.yul\":3062:3110   */\n      mstore\n        /* \"#utility.yul\":3127:3205   */\n      tag_161\n        /* \"#utility.yul\":3200:3204   */\n      dup2\n        /* \"#utility.yul\":3191:3197   */\n      dup6\n        /* \"#utility.yul\":3127:3205   */\n      tag_93\n      jump\t// in\n    tag_161:\n        /* \"#utility.yul\":3119:3205   */\n      swap1\n      pop\n        /* \"#utility.yul\":3215:3287   */\n      tag_162\n        /* \"#utility.yul\":3283:3285   */\n      0x40\n        /* \"#utility.yul\":3272:3281   */\n      dup4\n        /* \"#utility.yul\":3268:3286   */\n      add\n        /* \"#utility.yul\":3259:3265   */\n      dup5\n        /* \"#utility.yul\":3215:3287   */\n      tag_83\n      jump\t// in\n    tag_162:\n        /* \"#utility.yul\":2761:3294   */\n      swap5\n      swap4\n      pop\n      pop\n      pop\n      pop\n      jump\t// out\n        /* \"#utility.yul\":3300:3522   */\n    tag_26:\n        /* \"#utility.yul\":3393:3397   */\n      0x00\n        /* \"#utility.yul\":3431:3433   */\n      0x20\n        /* \"#utility.yul\":3420:3429   */\n      dup3\n        /* \"#utility.yul\":3416:3434   */\n      add\n        /* \"#utility.yul\":3408:3434   */\n      swap1\n      pop\n        /* \"#utility.yul\":3444:3515   */\n      tag_164\n        /* \"#utility.yul\":3512:3513   */\n      0x00\n        /* \"#utility.yul\":3501:3510   */\n      dup4\n        /* \"#utility.yul\":3497:3514   */\n      add\n        /* \"#utility.yul\":3488:3494   */\n      dup5\n        /* \"#utility.yul\":3444:3515   */\n      tag_83\n      jump\t// in\n    tag_164:\n        /* \"#utility.yul\":3300:3522   */\n      swap3\n      swap2\n      pop\n      pop\n      jump\t// out\n        /* \"#utility.yul\":3528:3750   */\n    tag_36:\n        /* \"#utility.yul\":3621:3625   */\n      0x00\n        /* \"#utility.yul\":3659:3661   */\n      0x20\n        /* \"#utility.yul\":3648:3657   */\n      dup3\n        /* \"#utility.yul\":3644:3662   */\n      add\n        /* \"#utility.yul\":3636:3662   */\n      swap1\n      pop\n        /* \"#utility.yul\":3672:3743   */\n      tag_166\n        /* \"#utility.yul\":3740:3741   */\n      0x00\n        /* \"#utility.yul\":3729:3738   */\n      dup4\n        /* \"#utility.yul\":3725:3742   */\n      add\n        /* \"#utility.yul\":3716:3722   */\n      dup5\n        /* \"#utility.yul\":3672:3743   */\n      tag_81\n      jump\t// in\n    tag_166:\n        /* \"#utility.yul\":3528:3750   */\n      swap3\n      swap2\n      pop\n      pop\n      jump\t// out\n        /* \"#utility.yul\":3756:3873   */\n    tag_94:\n        /* \"#utility.yul\":3865:3866   */\n      0x00\n        /* \"#utility.yul\":3862:3863   */\n      0x00\n        /* \"#utility.yul\":3855:3867   */\n      revert\n        /* \"#utility.yul\":3879:3996   */\n    tag_95:\n        /* \"#utility.yul\":3988:3989   */\n      0x00\n        /* \"#utility.yul\":3985:3986   */\n      0x00\n        /* \"#utility.yul\":3978:3990   */\n      revert\n        /* \"#utility.yul\":4002:4182   */\n    tag_96:\n        /* \"#utility.yul\":4050:4127   */\n      0x4e487b7100000000000000000000000000000000000000000000000000000000\n        /* \"#utility.yul\":4047:4048   */\n      0x00\n        /* \"#utility.yul\":4040:4128   */\n      mstore\n        /* \"#utility.yul\":4147:4151   */\n      0x41\n        /* \"#utility.yul\":4144:4145   */\n      0x04\n        /* \"#utility.yul\":4137:4152   */\n      mstore\n        /* \"#utility.yul\":4171:4175   */\n      0x24\n        /* \"#utility.yul\":4168:4169   */\n      0x00\n        /* \"#utility.yul\":4161:4176   */\n      revert\n        /* \"#utility.yul\":4188:4469   */\n    tag_97:\n        /* \"#utility.yul\":4271:4298   */\n      tag_171\n        /* \"#utility.yul\":4293:4297   */\n      dup3\n        /* \"#utility.yul\":4271:4298   */\n      tag_92\n      jump\t// in\n    tag_171:\n        /* \"#utility.yul\":4263:4269   */\n      dup2\n        /* \"#utility.yul\":4259:4299   */\n      add\n        /* \"#utility.yul\":4401:4407   */\n      dup2\n        /* \"#utility.yul\":4389:4399   */\n      dup2\n        /* \"#utility.yul\":4386:4408   */\n      lt\n        /* \"#utility.yul\":4365:4383   */\n      0xffffffffffffffff\n        /* \"#utility.yul\":4353:4363   */\n      dup3\n        /* \"#utility.yul\":4350:4384   */\n      gt\n        /* \"#utility.yul\":4347:4409   */\n      or\n        /* \"#utility.yul\":4344:4432   */\n      iszero\n      tag_172\n      jumpi\n        /* \"#utility.yul\":4412:4430   */\n      tag_173\n      tag_96\n      jump\t// in\n    tag_173:\n        /* \"#utility.yul\":4344:4432   */\n    tag_172:\n        /* \"#utility.yul\":4452:4462   */\n      dup1\n        /* \"#utility.yul\":4448:4450   */\n      0x40\n        /* \"#utility.yul\":4441:4463   */\n      mstore\n        /* \"#utility.yul\":4231:4469   */\n      pop\n        /* \"#utility.yul\":4188:4469   */\n      pop\n      pop\n      jump\t// out\n        /* \"#utility.yul\":4475:4604   */\n    tag_98:\n        /* \"#utility.yul\":4509:4515   */\n      0x00\n        /* \"#utility.yul\":4536:4556   */\n      tag_175\n      tag_84\n      jump\t// in\n    tag_175:\n        /* \"#utility.yul\":4526:4556   */\n      swap1\n      pop\n        /* \"#utility.yul\":4565:4598   */\n      tag_176\n        /* \"#utility.yul\":4593:4597   */\n      dup3\n        /* \"#utility.yul\":4585:4591   */\n      dup3\n        /* \"#utility.yul\":4565:4598   */\n      tag_97\n      jump\t// in\n    tag_176:\n        /* \"#utility.yul\":4475:4604   */\n      swap2\n      swap1\n      pop\n      jump\t// out\n        /* \"#utility.yul\":4610:4918   */\n    tag_99:\n        /* \"#utility.yul\":4672:4676   */\n      0x00\n        /* \"#utility.yul\":4762:4780   */\n      0xffffffffffffffff\n        /* \"#utility.yul\":4754:4760   */\n      dup3\n        /* \"#utility.yul\":4751:4781   */\n      gt\n        /* \"#utility.yul\":4748:4804   */\n      iszero\n      tag_178\n      jumpi\n        /* \"#utility.yul\":4784:4802   */\n      tag_179\n      tag_96\n      jump\t// in\n    tag_179:\n        /* \"#utility.yul\":4748:4804   */\n    tag_178:\n        /* \"#utility.yul\":4822:4851   */\n      tag_180\n        /* \"#utility.yul\":4844:4850   */\n      dup3\n        /* \"#utility.yul\":4822:4851   */\n      tag_92\n      jump\t// in\n    tag_180:\n        /* \"#utility.yul\":4814:4851   */\n      swap1\n      pop\n        /* \"#utility.yul\":4906:4910   */\n      0x20\n        /* \"#utility.yul\":4900:4904   */\n      dup2\n        /* \"#utility.yul\":4896:4911   */\n      add\n        /* \"#utility.yul\":4888:4911   */\n      swap1\n      pop\n        /* \"#utility.yul\":4610:4918   */\n      swap2\n      swap1\n      pop\n      jump\t// out\n        /* \"#utility.yul\":4924:5072   */\n    tag_100:\n        /* \"#utility.yul\":5022:5028   */\n      dup3\n        /* \"#utility.yul\":5017:5020   */\n      dup2\n        /* \"#utility.yul\":5012:5015   */\n      dup4\n        /* \"#utility.yul\":4999:5029   */\n      calldatacopy\n        /* \"#utility.yul\":5063:5064   */\n      0x00\n        /* \"#utility.yul\":5054:5060   */\n      dup4\n        /* \"#utility.yul\":5049:5052   */\n      dup4\n        /* \"#utility.yul\":5045:5061   */\n      add\n        /* \"#utility.yul\":5038:5065   */\n      mstore\n        /* \"#utility.yul\":4924:5072   */\n      pop\n      pop\n      pop\n      jump\t// out\n        /* \"#utility.yul\":5078:5503   */\n    tag_101:\n        /* \"#utility.yul\":5156:5161   */\n      0x00\n        /* \"#utility.yul\":5181:5247   */\n      tag_183\n        /* \"#utility.yul\":5197:5246   */\n      tag_184\n        /* \"#utility.yul\":5239:5245   */\n      dup5\n        /* \"#utility.yul\":5197:5246   */\n      tag_99\n      jump\t// in\n    tag_184:\n        /* \"#utility.yul\":5181:5247   */\n      tag_98\n      jump\t// in\n    tag_183:\n        /* \"#utility.yul\":5172:5247   */\n      swap1\n      pop\n        /* \"#utility.yul\":5270:5276   */\n      dup3\n        /* \"#utility.yul\":5263:5268   */\n      dup2\n        /* \"#utility.yul\":5256:5277   */\n      mstore\n        /* \"#utility.yul\":5308:5312   */\n      0x20\n        /* \"#utility.yul\":5301:5306   */\n      dup2\n        /* \"#utility.yul\":5297:5313   */\n      add\n        /* \"#utility.yul\":5346:5349   */\n      dup5\n        /* \"#utility.yul\":5337:5343   */\n      dup5\n        /* \"#utility.yul\":5332:5335   */\n      dup5\n        /* \"#utility.yul\":5328:5344   */\n      add\n        /* \"#utility.yul\":5325:5350   */\n      gt\n        /* \"#utility.yul\":5322:5434   */\n      iszero\n      tag_185\n      jumpi\n        /* \"#utility.yul\":5353:5432   */\n      tag_186\n      tag_95\n      jump\t// in\n    tag_186:\n        /* \"#utility.yul\":5322:5434   */\n    tag_185:\n        /* \"#utility.yul\":5443:5497   */\n      tag_187\n        /* \"#utility.yul\":5490:5496   */\n      dup5\n        /* \"#utility.yul\":5485:5488   */\n      dup3\n        /* \"#utility.yul\":5480:5483   */\n      dup6\n        /* \"#utility.yul\":5443:5497   */\n      tag_100\n      jump\t// in\n    tag_187:\n        /* \"#utility.yul\":5162:5503   */\n      pop\n        /* \"#utility.yul\":5078:5503   */\n      swap4\n      swap3\n      pop\n      pop\n      pop\n      jump\t// out\n        /* \"#utility.yul\":5523:5863   */\n    tag_102:\n        /* \"#utility.yul\":5579:5584   */\n      0x00\n        /* \"#utility.yul\":5628:5631   */\n      dup3\n        /* \"#utility.yul\":5621:5625   */\n      0x1f\n        /* \"#utility.yul\":5613:5619   */\n      dup4\n        /* \"#utility.yul\":5609:5626   */\n      add\n        /* \"#utility.yul\":5605:5632   */\n      slt\n        /* \"#utility.yul\":5595:5717   */\n      tag_189\n      jumpi\n        /* \"#utility.yul\":5636:5715   */\n      tag_190\n      tag_94\n      jump\t// in\n    tag_190:\n        /* \"#utility.yul\":5595:5717   */\n    tag_189:\n        /* \"#utility.yul\":5753:5759   */\n      dup2\n        /* \"#utility.yul\":5740:5760   */\n      calldataload\n        /* \"#utility.yul\":5778:5857   */\n      tag_191\n        /* \"#utility.yul\":5853:5856   */\n      dup5\n        /* \"#utility.yul\":5845:5851   */\n      dup3\n        /* \"#utility.yul\":5838:5842   */\n      0x20\n        /* \"#utility.yul\":5830:5836   */\n      dup7\n        /* \"#utility.yul\":5826:5843   */\n      add\n        /* \"#utility.yul\":5778:5857   */\n      tag_101\n      jump\t// in\n    tag_191:\n        /* \"#utility.yul\":5769:5857   */\n      swap2\n      pop\n        /* \"#utility.yul\":5585:5863   */\n      pop\n        /* \"#utility.yul\":5523:5863   */\n      swap3\n      swap2\n      pop\n      pop\n      jump\t// out\n        /* \"#utility.yul\":5869:6668   */\n    tag_40:\n        /* \"#utility.yul\":5956:5962   */\n      0x00\n        /* \"#utility.yul\":5964:5970   */\n      0x00\n        /* \"#utility.yul\":5972:5978   */\n      0x00\n        /* \"#utility.yul\":6021:6023   */\n      0x60\n        /* \"#utility.yul\":6009:6018   */\n      dup5\n        /* \"#utility.yul\":6000:6007   */\n      dup7\n        /* \"#utility.yul\":5996:6019   */\n      sub\n        /* \"#utility.yul\":5992:6024   */\n      slt\n        /* \"#utility.yul\":5989:6108   */\n      iszero\n      tag_193\n      jumpi\n        /* \"#utility.yul\":6027:6106   */\n      tag_194\n      tag_85\n      jump\t// in\n    tag_194:\n        /* \"#utility.yul\":5989:6108   */\n    tag_193:\n        /* \"#utility.yul\":6147:6148   */\n      0x00\n        /* \"#utility.yul\":6172:6225   */\n      tag_195\n        /* \"#utility.yul\":6217:6224   */\n      dup7\n        /* \"#utility.yul\":6208:6214   */\n      dup3\n        /* \"#utility.yul\":6197:6206   */\n      dup8\n        /* \"#utility.yul\":6193:6215   */\n      add\n        /* \"#utility.yul\":6172:6225   */\n      tag_88\n      jump\t// in\n    tag_195:\n        /* \"#utility.yul\":6162:6225   */\n      swap4\n      pop\n        /* \"#utility.yul\":6118:6235   */\n      pop\n        /* \"#utility.yul\":6302:6304   */\n      0x20\n        /* \"#utility.yul\":6291:6300   */\n      dup5\n        /* \"#utility.yul\":6287:6305   */\n      add\n        /* \"#utility.yul\":6274:6306   */\n      calldataload\n        /* \"#utility.yul\":6333:6351   */\n      0xffffffffffffffff\n        /* \"#utility.yul\":6325:6331   */\n      dup2\n        /* \"#utility.yul\":6322:6352   */\n      gt\n        /* \"#utility.yul\":6319:6436   */\n      iszero\n      tag_196\n      jumpi\n        /* \"#utility.yul\":6355:6434   */\n      tag_197\n      tag_86\n      jump\t// in\n    tag_197:\n        /* \"#utility.yul\":6319:6436   */\n    tag_196:\n        /* \"#utility.yul\":6460:6523   */\n      tag_198\n        /* \"#utility.yul\":6515:6522   */\n      dup7\n        /* \"#utility.yul\":6506:6512   */\n      dup3\n        /* \"#utility.yul\":6495:6504   */\n      dup8\n        /* \"#utility.yul\":6491:6513   */\n      add\n        /* \"#utility.yul\":6460:6523   */\n      tag_102\n      jump\t// in\n    tag_198:\n        /* \"#utility.yul\":6450:6523   */\n      swap3\n      pop\n        /* \"#utility.yul\":6245:6533   */\n      pop\n        /* \"#utility.yul\":6572:6574   */\n      0x40\n        /* \"#utility.yul\":6598:6651   */\n      tag_199\n        /* \"#utility.yul\":6643:6650   */\n      dup7\n        /* \"#utility.yul\":6634:6640   */\n      dup3\n        /* \"#utility.yul\":6623:6632   */\n      dup8\n        /* \"#utility.yul\":6619:6641   */\n      add\n        /* \"#utility.yul\":6598:6651   */\n      tag_88\n      jump\t// in\n    tag_199:\n        /* \"#utility.yul\":6588:6651   */\n      swap2\n      pop\n        /* \"#utility.yul\":6543:6661   */\n      pop\n        /* \"#utility.yul\":5869:6668   */\n      swap3\n      pop\n      swap3\n      pop\n      swap3\n      jump\t// out\n        /* \"#utility.yul\":6674:6854   */\n    tag_103:\n        /* \"#utility.yul\":6722:6799   */\n      0x4e487b7100000000000000000000000000000000000000000000000000000000\n        /* \"#utility.yul\":6719:6720   */\n      0x00\n        /* \"#utility.yul\":6712:6800   */\n      mstore\n        /* \"#utility.yul\":6819:6823   */\n      0x22\n        /* \"#utility.yul\":6816:6817   */\n      0x04\n        /* \"#utility.yul\":6809:6824   */\n      mstore\n        /* \"#utility.yul\":6843:6847   */\n      0x24\n        /* \"#utility.yul\":6840:6841   */\n      0x00\n        /* \"#utility.yul\":6833:6848   */\n      revert\n        /* \"#utility.yul\":6860:7180   */\n    tag_45:\n        /* \"#utility.yul\":6904:6910   */\n      0x00\n        /* \"#utility.yul\":6941:6942   */\n      0x02\n        /* \"#utility.yul\":6935:6939   */\n      dup3\n        /* \"#utility.yul\":6931:6943   */\n      div\n        /* \"#utility.yul\":6921:6943   */\n      swap1\n      pop\n        /* \"#utility.yul\":6988:6989   */\n      0x01\n        /* \"#utility.yul\":6982:6986   */\n      dup3\n        /* \"#utility.yul\":6978:6990   */\n      and\n        /* \"#utility.yul\":7009:7027   */\n      dup1\n        /* \"#utility.yul\":6999:7080   */\n      tag_202\n      jumpi\n        /* \"#utility.yul\":7065:7069   */\n      0x7f\n        /* \"#utility.yul\":7057:7063   */\n      dup3\n        /* \"#utility.yul\":7053:7070   */\n      and\n        /* \"#utility.yul\":7043:7070   */\n      swap2\n      pop\n        /* \"#utility.yul\":6999:7080   */\n    tag_202:\n        /* \"#utility.yul\":7127:7129   */\n      0x20\n        /* \"#utility.yul\":7119:7125   */\n      dup3\n        /* \"#utility.yul\":7116:7130   */\n      lt\n        /* \"#utility.yul\":7096:7114   */\n      dup2\n        /* \"#utility.yul\":7093:7131   */\n      sub\n        /* \"#utility.yul\":7090:7174   */\n      tag_203\n      jumpi\n        /* \"#utility.yul\":7146:7164   */\n      tag_204\n      tag_103\n      jump\t// in\n    tag_204:\n        /* \"#utility.yul\":7090:7174   */\n    tag_203:\n        /* \"#utility.yul\":6911:7180   */\n      pop\n        /* \"#utility.yul\":6860:7180   */\n      swap2\n      swap1\n      pop\n      jump\t// out\n        /* \"#utility.yul\":7186:7354   */\n    tag_104:\n        /* \"#utility.yul\":7326:7346   */\n      0x53747564656e74206e6f7420666f756e642e0000000000000000000000000000\n        /* \"#utility.yul\":7322:7323   */\n      0x00\n        /* \"#utility.yul\":7314:7320   */\n      dup3\n        /* \"#utility.yul\":7310:7324   */\n      add\n        /* \"#utility.yul\":7303:7347   */\n      mstore\n        /* \"#utility.yul\":7186:7354   */\n      pop\n      jump\t// out\n        /* \"#utility.yul\":7360:7726   */\n    tag_105:\n        /* \"#utility.yul\":7502:7505   */\n      0x00\n        /* \"#utility.yul\":7523:7590   */\n      tag_207\n        /* \"#utility.yul\":7587:7589   */\n      0x12\n        /* \"#utility.yul\":7582:7585   */\n      dup4\n        /* \"#utility.yul\":7523:7590   */\n      tag_90\n      jump\t// in\n    tag_207:\n        /* \"#utility.yul\":7516:7590   */\n      swap2\n      pop\n        /* \"#utility.yul\":7599:7692   */\n      tag_208\n        /* \"#utility.yul\":7688:7691   */\n      dup3\n        /* \"#utility.yul\":7599:7692   */\n      tag_104\n      jump\t// in\n    tag_208:\n        /* \"#utility.yul\":7717:7719   */\n      0x20\n        /* \"#utility.yul\":7712:7715   */\n      dup3\n        /* \"#utility.yul\":7708:7720   */\n      add\n        /* \"#utility.yul\":7701:7720   */\n      swap1\n      pop\n        /* \"#utility.yul\":7360:7726   */\n      swap2\n      swap1\n      pop\n      jump\t// out\n        /* \"#utility.yul\":7732:8151   */\n    tag_54:\n        /* \"#utility.yul\":7898:7902   */\n      0x00\n        /* \"#utility.yul\":7936:7938   */\n      0x20\n        /* \"#utility.yul\":7925:7934   */\n      dup3\n        /* \"#utility.yul\":7921:7939   */\n      add\n        /* \"#utility.yul\":7913:7939   */\n      swap1\n      pop\n        /* \"#utility.yul\":7985:7994   */\n      dup2\n        /* \"#utility.yul\":7979:7983   */\n      dup2\n        /* \"#utility.yul\":7975:7995   */\n      sub\n        /* \"#utility.yul\":7971:7972   */\n      0x00\n        /* \"#utility.yul\":7960:7969   */\n      dup4\n        /* \"#utility.yul\":7956:7973   */\n      add\n        /* \"#utility.yul\":7949:7996   */\n      mstore\n        /* \"#utility.yul\":8013:8144   */\n      tag_210\n        /* \"#utility.yul\":8139:8143   */\n      dup2\n        /* \"#utility.yul\":8013:8144   */\n      tag_105\n      jump\t// in\n    tag_210:\n        /* \"#utility.yul\":8005:8144   */\n      swap1\n      pop\n        /* \"#utility.yul\":7732:8151   */\n      swap2\n      swap1\n      pop\n      jump\t// out\n        /* \"#utility.yul\":8157:8337   */\n    tag_106:\n        /* \"#utility.yul\":8205:8282   */\n      0x4e487b7100000000000000000000000000000000000000000000000000000000\n        /* \"#utility.yul\":8202:8203   */\n      0x00\n        /* \"#utility.yul\":8195:8283   */\n      mstore\n        /* \"#utility.yul\":8302:8306   */\n      0x11\n        /* \"#utility.yul\":8299:8300   */\n      0x04\n        /* \"#utility.yul\":8292:8307   */\n      mstore\n        /* \"#utility.yul\":8326:8330   */\n      0x24\n        /* \"#utility.yul\":8323:8324   */\n      0x00\n        /* \"#utility.yul\":8316:8331   */\n      revert\n        /* \"#utility.yul\":8343:8537   */\n    tag_56:\n        /* \"#utility.yul\":8383:8387   */\n      0x00\n        /* \"#utility.yul\":8403:8423   */\n      tag_213\n        /* \"#utility.yul\":8421:8422   */\n      dup3\n        /* \"#utility.yul\":8403:8423   */\n      tag_82\n      jump\t// in\n    tag_213:\n        /* \"#utility.yul\":8398:8423   */\n      swap2\n      pop\n        /* \"#utility.yul\":8437:8457   */\n      tag_214\n        /* \"#utility.yul\":8455:8456   */\n      dup4\n        /* \"#utility.yul\":8437:8457   */\n      tag_82\n      jump\t// in\n    tag_214:\n        /* \"#utility.yul\":8432:8457   */\n      swap3\n      pop\n        /* \"#utility.yul\":8481:8482   */\n      dup3\n        /* \"#utility.yul\":8478:8479   */\n      dup3\n        /* \"#utility.yul\":8474:8483   */\n      sub\n        /* \"#utility.yul\":8466:8483   */\n      swap1\n      pop\n        /* \"#utility.yul\":8505:8506   */\n      dup2\n        /* \"#utility.yul\":8499:8503   */\n      dup2\n        /* \"#utility.yul\":8496:8507   */\n      gt\n        /* \"#utility.yul\":8493:8530   */\n      iszero\n      tag_215\n      jumpi\n        /* \"#utility.yul\":8510:8528   */\n      tag_216\n      tag_106\n      jump\t// in\n    tag_216:\n        /* \"#utility.yul\":8493:8530   */\n    tag_215:\n        /* \"#utility.yul\":8343:8537   */\n      swap3\n      swap2\n      pop\n      pop\n      jump\t// out\n        /* \"#utility.yul\":8543:8723   */\n    tag_59:\n        /* \"#utility.yul\":8591:8668   */\n      0x4e487b7100000000000000000000000000000000000000000000000000000000\n        /* \"#utility.yul\":8588:8589   */\n      0x00\n        /* \"#utility.yul\":8581:8669   */\n      mstore\n        /* \"#utility.yul\":8688:8692   */\n      0x32\n        /* \"#utility.yul\":8685:8686   */\n      0x04\n        /* \"#utility.yul\":8678:8693   */\n      mstore\n        /* \"#utility.yul\":8712:8716   */\n      0x24\n        /* \"#utility.yul\":8709:8710   */\n      0x00\n        /* \"#utility.yul\":8702:8717   */\n      revert\n        /* \"#utility.yul\":8729:8954   */\n    tag_107:\n        /* \"#utility.yul\":8869:8903   */\n      0x4f6e6c7920746865206f776e65722063616e2063616c6c20746869732066756e\n        /* \"#utility.yul\":8865:8866   */\n      0x00\n        /* \"#utility.yul\":8857:8863   */\n      dup3\n        /* \"#utility.yul\":8853:8867   */\n      add\n        /* \"#utility.yul\":8846:8904   */\n      mstore\n        /* \"#utility.yul\":8938:8946   */\n      0x6374696f6e2e0000000000000000000000000000000000000000000000000000\n        /* \"#utility.yul\":8933:8935   */\n      0x20\n        /* \"#utility.yul\":8925:8931   */\n      dup3\n        /* \"#utility.yul\":8921:8936   */\n      add\n        /* \"#utility.yul\":8914:8947   */\n      mstore\n        /* \"#utility.yul\":8729:8954   */\n      pop\n      jump\t// out\n        /* \"#utility.yul\":8960:9326   */\n    tag_108:\n        /* \"#utility.yul\":9102:9105   */\n      0x00\n        /* \"#utility.yul\":9123:9190   */\n      tag_220\n        /* \"#utility.yul\":9187:9189   */\n      0x26\n        /* \"#utility.yul\":9182:9185   */\n      dup4\n        /* \"#utility.yul\":9123:9190   */\n      tag_90\n      jump\t// in\n    tag_220:\n        /* \"#utility.yul\":9116:9190   */\n      swap2\n      pop\n        /* \"#utility.yul\":9199:9292   */\n      tag_221\n        /* \"#utility.yul\":9288:9291   */\n      dup3\n        /* \"#utility.yul\":9199:9292   */\n      tag_107\n      jump\t// in\n    tag_221:\n        /* \"#utility.yul\":9317:9319   */\n      0x40\n        /* \"#utility.yul\":9312:9315   */\n      dup3\n        /* \"#utility.yul\":9308:9320   */\n      add\n        /* \"#utility.yul\":9301:9320   */\n      swap1\n      pop\n        /* \"#utility.yul\":8960:9326   */\n      swap2\n      swap1\n      pop\n      jump\t// out\n        /* \"#utility.yul\":9332:9751   */\n    tag_69:\n        /* \"#utility.yul\":9498:9502   */\n      0x00\n        /* \"#utility.yul\":9536:9538   */\n      0x20\n        /* \"#utility.yul\":9525:9534   */\n      dup3\n        /* \"#utility.yul\":9521:9539   */\n      add\n        /* \"#utility.yul\":9513:9539   */\n      swap1\n      pop\n        /* \"#utility.yul\":9585:9594   */\n      dup2\n        /* \"#utility.yul\":9579:9583   */\n      dup2\n        /* \"#utility.yul\":9575:9595   */\n      sub\n        /* \"#utility.yul\":9571:9572   */\n      0x00\n        /* \"#utility.yul\":9560:9569   */\n      dup4\n        /* \"#utility.yul\":9556:9573   */\n      add\n        /* \"#utility.yul\":9549:9596   */\n      mstore\n        /* \"#utility.yul\":9613:9744   */\n      tag_223\n        /* \"#utility.yul\":9739:9743   */\n      dup2\n        /* \"#utility.yul\":9613:9744   */\n      tag_108\n      jump\t// in\n    tag_223:\n        /* \"#utility.yul\":9605:9744   */\n      swap1\n      pop\n        /* \"#utility.yul\":9332:9751   */\n      swap2\n      swap1\n      pop\n      jump\t// out\n        /* \"#utility.yul\":9757:9980   */\n    tag_109:\n        /* \"#utility.yul\":9897:9931   */\n      0x53747564656e742077697468207468697320494420616c726561647920657869\n        /* \"#utility.yul\":9893:9894   */\n      0x00\n        /* \"#utility.yul\":9885:9891   */\n      dup3\n        /* \"#utility.yul\":9881:9895   */\n      add\n        /* \"#utility.yul\":9874:9932   */\n      mstore\n        /* \"#utility.yul\":9966:9972   */\n      0x7374732e00000000000000000000000000000000000000000000000000000000\n        /* \"#utility.yul\":9961:9963   */\n      0x20\n        /* \"#utility.yul\":9953:9959   */\n      dup3\n        /* \"#utility.yul\":9949:9964   */\n      add\n        /* \"#utility.yul\":9942:9973   */\n      mstore\n        /* \"#utility.yul\":9757:9980   */\n      pop\n      jump\t// out\n        /* \"#utility.yul\":9986:10352   */\n    tag_110:\n        /* \"#utility.yul\":10128:10131   */\n      0x00\n        /* \"#utility.yul\":10149:10216   */\n      tag_226\n        /* \"#utility.yul\":10213:10215   */\n      0x24\n        /* \"#utility.yul\":10208:10211   */\n      dup4\n        /* \"#utility.yul\":10149:10216   */\n      tag_90\n      jump\t// in\n    tag_226:\n        /* \"#utility.yul\":10142:10216   */\n      swap2\n      pop\n        /* \"#utility.yul\":10225:10318   */\n      tag_227\n        /* \"#utility.yul\":10314:10317   */\n      dup3\n        /* \"#utility.yul\":10225:10318   */\n      tag_109\n      jump\t// in\n    tag_227:\n        /* \"#utility.yul\":10343:10345   */\n      0x40\n        /* \"#utility.yul\":10338:10341   */\n      dup3\n        /* \"#utility.yul\":10334:10346   */\n      add\n        /* \"#utility.yul\":10327:10346   */\n      swap1\n      pop\n        /* \"#utility.yul\":9986:10352   */\n      swap2\n      swap1\n      pop\n      jump\t// out\n        /* \"#utility.yul\":10358:10777   */\n    tag_73:\n        /* \"#utility.yul\":10524:10528   */\n      0x00\n        /* \"#utility.yul\":10562:10564   */\n      0x20\n        /* \"#utility.yul\":10551:10560   */\n      dup3\n        /* \"#utility.yul\":10547:10565   */\n      add\n        /* \"#utility.yul\":10539:10565   */\n      swap1\n      pop\n        /* \"#utility.yul\":10611:10620   */\n      dup2\n        /* \"#utility.yul\":10605:10609   */\n      dup2\n        /* \"#utility.yul\":10601:10621   */\n      sub\n        /* \"#utility.yul\":10597:10598   */\n      0x00\n        /* \"#utility.yul\":10586:10595   */\n      dup4\n        /* \"#utility.yul\":10582:10599   */\n      add\n        /* \"#utility.yul\":10575:10622   */\n      mstore\n        /* \"#utility.yul\":10639:10770   */\n      tag_229\n        /* \"#utility.yul\":10765:10769   */\n      dup2\n        /* \"#utility.yul\":10639:10770   */\n      tag_110\n      jump\t// in\n    tag_229:\n        /* \"#utility.yul\":10631:10770   */\n      swap1\n      pop\n        /* \"#utility.yul\":10358:10777   */\n      swap2\n      swap1\n      pop\n      jump\t// out\n        /* \"#utility.yul\":10783:10924   */\n    tag_111:\n        /* \"#utility.yul\":10832:10836   */\n      0x00\n        /* \"#utility.yul\":10855:10858   */\n      dup2\n        /* \"#utility.yul\":10847:10858   */\n      swap1\n      pop\n        /* \"#utility.yul\":10878:10881   */\n      dup2\n        /* \"#utility.yul\":10875:10876   */\n      0x00\n        /* \"#utility.yul\":10868:10882   */\n      mstore\n        /* \"#utility.yul\":10912:10916   */\n      0x20\n        /* \"#utility.yul\":10909:10910   */\n      0x00\n        /* \"#utility.yul\":10899:10917   */\n      keccak256\n        /* \"#utility.yul\":10891:10917   */\n      swap1\n      pop\n        /* \"#utility.yul\":10783:10924   */\n      swap2\n      swap1\n      pop\n      jump\t// out\n        /* \"#utility.yul\":10930:11023   */\n    tag_112:\n        /* \"#utility.yul\":10967:10973   */\n      0x00\n        /* \"#utility.yul\":11014:11016   */\n      0x20\n        /* \"#utility.yul\":11009:11011   */\n      0x1f\n        /* \"#utility.yul\":11002:11007   */\n      dup4\n        /* \"#utility.yul\":10998:11012   */\n      add\n        /* \"#utility.yul\":10994:11017   */\n      div\n        /* \"#utility.yul\":10984:11017   */\n      swap1\n      pop\n        /* \"#utility.yul\":10930:11023   */\n      swap2\n      swap1\n      pop\n      jump\t// out\n        /* \"#utility.yul\":11029:11136   */\n    tag_113:\n        /* \"#utility.yul\":11073:11081   */\n      0x00\n        /* \"#utility.yul\":11123:11128   */\n      dup3\n        /* \"#utility.yul\":11117:11121   */\n      dup3\n        /* \"#utility.yul\":11113:11129   */\n      shl\n        /* \"#utility.yul\":11092:11129   */\n      swap1\n      pop\n        /* \"#utility.yul\":11029:11136   */\n      swap3\n      swap2\n      pop\n      pop\n      jump\t// out\n        /* \"#utility.yul\":11142:11535   */\n    tag_114:\n        /* \"#utility.yul\":11211:11217   */\n      0x00\n        /* \"#utility.yul\":11261:11262   */\n      0x08\n        /* \"#utility.yul\":11249:11259   */\n      dup4\n        /* \"#utility.yul\":11245:11263   */\n      mul\n        /* \"#utility.yul\":11284:11381   */\n      tag_234\n        /* \"#utility.yul\":11314:11380   */\n      0xffffffffffffffffffffffffffffffffffffffffffffffffffffffffffffffff\n        /* \"#utility.yul\":11303:11312   */\n      dup3\n        /* \"#utility.yul\":11284:11381   */\n      tag_113\n      jump\t// in\n    tag_234:\n        /* \"#utility.yul\":11402:11441   */\n      tag_235\n        /* \"#utility.yul\":11432:11440   */\n      dup7\n        /* \"#utility.yul\":11421:11430   */\n      dup4\n        /* \"#utility.yul\":11402:11441   */\n      tag_113\n      jump\t// in\n    tag_235:\n        /* \"#utility.yul\":11390:11441   */\n      swap6\n      pop\n        /* \"#utility.yul\":11474:11478   */\n      dup1\n        /* \"#utility.yul\":11470:11479   */\n      not\n        /* \"#utility.yul\":11463:11468   */\n      dup5\n        /* \"#utility.yul\":11459:11480   */\n      and\n        /* \"#utility.yul\":11450:11480   */\n      swap4\n      pop\n        /* \"#utility.yul\":11523:11527   */\n      dup1\n        /* \"#utility.yul\":11513:11521   */\n      dup7\n        /* \"#utility.yul\":11509:11528   */\n      and\n        /* \"#utility.yul\":11502:11507   */\n      dup5\n        /* \"#utility.yul\":11499:11529   */\n      or\n        /* \"#utility.yul\":11489:11529   */\n      swap3\n      pop\n        /* \"#utility.yul\":11218:11535   */\n      pop\n      pop\n        /* \"#utility.yul\":11142:11535   */\n      swap4\n      swap3\n      pop\n      pop\n      pop\n      jump\t// out\n        /* \"#utility.yul\":11541:11601   */\n    tag_115:\n        /* \"#utility.yul\":11569:11572   */\n      0x00\n        /* \"#utility.yul\":11590:11595   */\n      dup2\n        /* \"#utility.yul\":11583:11595   */\n      swap1\n      pop\n        /* \"#utility.yul\":11541:11601   */\n      swap2\n      swap1\n      pop\n      jump\t// out\n        /* \"#utility.yul\":11607:11749   */\n    tag_116:\n        /* \"#utility.yul\":11657:11666   */\n      0x00\n        /* \"#utility.yul\":11690:11743   */\n      tag_238\n        /* \"#utility.yul\":11708:11742   */\n      tag_239\n        /* \"#utility.yul\":11717:11741   */\n      tag_240\n        /* \"#utility.yul\":11735:11740   */\n      dup5\n        /* \"#utility.yul\":11717:11741   */\n      tag_82\n      jump\t// in\n    tag_240:\n        /* \"#utility.yul\":11708:11742   */\n      tag_115\n      jump\t// in\n    tag_239:\n        /* \"#utility.yul\":11690:11743   */\n      tag_82\n      jump\t// in\n    tag_238:\n        /* \"#utility.yul\":11677:11743   */\n      swap1\n      pop\n        /* \"#utility.yul\":11607:11749   */\n      swap2\n      swap1\n      pop\n      jump\t// out\n        /* \"#utility.yul\":11755:11830   */\n    tag_117:\n        /* \"#utility.yul\":11798:11801   */\n      0x00\n        /* \"#utility.yul\":11819:11824   */\n      dup2\n        /* \"#utility.yul\":11812:11824   */\n      swap1\n      pop\n        /* \"#utility.yul\":11755:11830   */\n      swap2\n      swap1\n      pop\n      jump\t// out\n        /* \"#utility.yul\":11836:12105   */\n    tag_118:\n        /* \"#utility.yul\":11946:11985   */\n      tag_243\n        /* \"#utility.yul\":11977:11984   */\n      dup4\n        /* \"#utility.yul\":11946:11985   */\n      tag_116\n      jump\t// in\n    tag_243:\n        /* \"#utility.yul\":12007:12098   */\n      tag_244\n        /* \"#utility.yul\":12056:12097   */\n      tag_245\n        /* \"#utility.yul\":12080:12096   */\n      dup3\n        /* \"#utility.yul\":12056:12097   */\n      tag_117\n      jump\t// in\n    tag_245:\n        /* \"#utility.yul\":12048:12054   */\n      dup5\n        /* \"#utility.yul\":12041:12045   */\n      dup5\n        /* \"#utility.yul\":12035:12046   */\n      sload\n        /* \"#utility.yul\":12007:12098   */\n      tag_114\n      jump\t// in\n    tag_244:\n        /* \"#utility.yul\":12001:12005   */\n      dup3\n        /* \"#utility.yul\":11994:12099   */\n      sstore\n        /* \"#utility.yul\":11912:12105   */\n      pop\n        /* \"#utility.yul\":11836:12105   */\n      pop\n      pop\n      pop\n      jump\t// out\n        /* \"#utility.yul\":12111:12184   */\n    tag_119:\n        /* \"#utility.yul\":12156:12159   */\n      0x00\n        /* \"#utility.yul\":12177:12178   */\n      0x00\n        /* \"#utility.yul\":12170:12178   */\n      swap1\n      pop\n        /* \"#utility.yul\":12111:12184   */\n      swap1\n      jump\t// out\n        /* \"#utility.yul\":12190:12379   */\n    tag_120:\n        /* \"#utility.yul\":12267:12299   */\n      tag_248\n      tag_119\n      jump\t// in\n    tag_248:\n        /* \"#utility.yul\":12308:12373   */\n      tag_249\n        /* \"#utility.yul\":12366:12372   */\n      dup2\n        /* \"#utility.yul\":12358:12364   */\n      dup5\n        /* \"#utility.yul\":12352:12356   */\n      dup5\n        /* \"#utility.yul\":12308:12373   */\n      tag_118\n      jump\t// in\n    tag_249:\n        /* \"#utility.yul\":12243:12379   */\n      pop\n        /* \"#utility.yul\":12190:12379   */\n      pop\n      pop\n      jump\t// out\n        /* \"#utility.yul\":12385:12571   */\n    tag_121:\n        /* \"#utility.yul\":12445:12565   */\n    tag_251:\n        /* \"#utility.yul\":12462:12465   */\n      dup2\n        /* \"#utility.yul\":12455:12460   */\n      dup2\n        /* \"#utility.yul\":12452:12466   */\n      lt\n        /* \"#utility.yul\":12445:12565   */\n      iszero\n      tag_253\n      jumpi\n        /* \"#utility.yul\":12516:12555   */\n      tag_254\n        /* \"#utility.yul\":12553:12554   */\n      0x00\n        /* \"#utility.yul\":12546:12551   */\n      dup3\n        /* \"#utility.yul\":12516:12555   */\n      tag_120\n      jump\t// in\n    tag_254:\n        /* \"#utility.yul\":12489:12490   */\n      0x01\n        /* \"#utility.yul\":12482:12487   */\n      dup2\n        /* \"#utility.yul\":12478:12491   */\n      add\n        /* \"#utility.yul\":12469:12491   */\n      swap1\n      pop\n        /* \"#utility.yul\":12445:12565   */\n      jump(tag_251)\n    tag_253:\n        /* \"#utility.yul\":12385:12571   */\n      pop\n      pop\n      jump\t// out\n        /* \"#utility.yul\":12577:13120   */\n    tag_122:\n        /* \"#utility.yul\":12678:12680   */\n      0x1f\n        /* \"#utility.yul\":12673:12676   */\n      dup3\n        /* \"#utility.yul\":12670:12681   */\n      gt\n        /* \"#utility.yul\":12667:13113   */\n      iszero\n      tag_256\n      jumpi\n        /* \"#utility.yul\":12712:12750   */\n      tag_257\n        /* \"#utility.yul\":12744:12749   */\n      dup2\n        /* \"#utility.yul\":12712:12750   */\n      tag_111\n      jump\t// in\n    tag_257:\n        /* \"#utility.yul\":12796:12825   */\n      tag_258\n        /* \"#utility.yul\":12814:12824   */\n      dup5\n        /* \"#utility.yul\":12796:12825   */\n      tag_112\n      jump\t// in\n    tag_258:\n        /* \"#utility.yul\":12786:12794   */\n      dup2\n        /* \"#utility.yul\":12782:12826   */\n      add\n        /* \"#utility.yul\":12979:12981   */\n      0x20\n        /* \"#utility.yul\":12967:12977   */\n      dup6\n        /* \"#utility.yul\":12964:12982   */\n      lt\n        /* \"#utility.yul\":12961:13010   */\n      iszero\n      tag_259\n      jumpi\n        /* \"#utility.yul\":13000:13008   */\n      dup2\n        /* \"#utility.yul\":12985:13008   */\n      swap1\n      pop\n        /* \"#utility.yul\":12961:13010   */\n    tag_259:\n        /* \"#utility.yul\":13023:13103   */\n      tag_260\n        /* \"#utility.yul\":13079:13101   */\n      tag_261\n        /* \"#utility.yul\":13097:13100   */\n      dup6\n        /* \"#utility.yul\":13079:13101   */\n      tag_112\n      jump\t// in\n    tag_261:\n        /* \"#utility.yul\":13069:13077   */\n      dup4\n        /* \"#utility.yul\":13065:13102   */\n      add\n        /* \"#utility.yul\":13052:13063   */\n      dup3\n        /* \"#utility.yul\":13023:13103   */\n      tag_121\n      jump\t// in\n    tag_260:\n        /* \"#utility.yul\":12682:13113   */\n      pop\n      pop\n        /* \"#utility.yul\":12667:13113   */\n    tag_256:\n        /* \"#utility.yul\":12577:13120   */\n      pop\n      pop\n      pop\n      jump\t// out\n        /* \"#utility.yul\":13126:13243   */\n    tag_123:\n        /* \"#utility.yul\":13180:13188   */\n      0x00\n        /* \"#utility.yul\":13230:13235   */\n      dup3\n        /* \"#utility.yul\":13224:13228   */\n      dup3\n        /* \"#utility.yul\":13220:13236   */\n      shr\n        /* \"#utility.yul\":13199:13236   */\n      swap1\n      pop\n        /* \"#utility.yul\":13126:13243   */\n      swap3\n      swap2\n      pop\n      pop\n      jump\t// out\n        /* \"#utility.yul\":13249:13418   */\n    tag_124:\n        /* \"#utility.yul\":13293:13299   */\n      0x00\n        /* \"#utility.yul\":13326:13377   */\n      tag_264\n        /* \"#utility.yul\":13374:13375   */\n      0x00\n        /* \"#utility.yul\":13370:13376   */\n      not\n        /* \"#utility.yul\":13362:13367   */\n      dup5\n        /* \"#utility.yul\":13359:13360   */\n      0x08\n        /* \"#utility.yul\":13355:13368   */\n      mul\n        /* \"#utility.yul\":13326:13377   */\n      tag_123\n      jump\t// in\n    tag_264:\n        /* \"#utility.yul\":13322:13378   */\n      not\n        /* \"#utility.yul\":13407:13411   */\n      dup1\n        /* \"#utility.yul\":13401:13405   */\n      dup4\n        /* \"#utility.yul\":13397:13412   */\n      and\n        /* \"#utility.yul\":13387:13412   */\n      swap2\n      pop\n        /* \"#utility.yul\":13300:13418   */\n      pop\n        /* \"#utility.yul\":13249:13418   */\n      swap3\n      swap2\n      pop\n      pop\n      jump\t// out\n        /* \"#utility.yul\":13423:13718   */\n    tag_125:\n        /* \"#utility.yul\":13499:13503   */\n      0x00\n        /* \"#utility.yul\":13645:13674   */\n      tag_266\n        /* \"#utility.yul\":13670:13673   */\n      dup4\n        /* \"#utility.yul\":13664:13668   */\n      dup4\n        /* \"#utility.yul\":13645:13674   */\n      tag_124\n      jump\t// in\n    tag_266:\n        /* \"#utility.yul\":13637:13674   */\n      swap2\n      pop\n        /* \"#utility.yul\":13707:13710   */\n      dup3\n        /* \"#utility.yul\":13704:13705   */\n      0x02\n        /* \"#utility.yul\":13700:13711   */\n      mul\n        /* \"#utility.yul\":13694:13698   */\n      dup3\n        /* \"#utility.yul\":13691:13712   */\n      or\n        /* \"#utility.yul\":13683:13712   */\n      swap1\n      pop\n        /* \"#utility.yul\":13423:13718   */\n      swap3\n      swap2\n      pop\n      pop\n      jump\t// out\n        /* \"#utility.yul\":13723:15118   */\n    tag_76:\n        /* \"#utility.yul\":13840:13877   */\n      tag_268\n        /* \"#utility.yul\":13873:13876   */\n      dup3\n        /* \"#utility.yul\":13840:13877   */\n      tag_89\n      jump\t// in\n    tag_268:\n        /* \"#utility.yul\":13942:13960   */\n      0xffffffffffffffff\n        /* \"#utility.yul\":13934:13940   */\n      dup2\n        /* \"#utility.yul\":13931:13961   */\n      gt\n        /* \"#utility.yul\":13928:13984   */\n      iszero\n      tag_269\n      jumpi\n        /* \"#utility.yul\":13964:13982   */\n      tag_270\n      tag_96\n      jump\t// in\n    tag_270:\n        /* \"#utility.yul\":13928:13984   */\n    tag_269:\n        /* \"#utility.yul\":14008:14046   */\n      tag_271\n        /* \"#utility.yul\":14040:14044   */\n      dup3\n        /* \"#utility.yul\":14034:14045   */\n      sload\n        /* \"#utility.yul\":14008:14046   */\n      tag_45\n      jump\t// in\n    tag_271:\n        /* \"#utility.yul\":14093:14160   */\n      tag_272\n        /* \"#utility.yul\":14153:14159   */\n      dup3\n        /* \"#utility.yul\":14145:14151   */\n      dup3\n        /* \"#utility.yul\":14139:14143   */\n      dup6\n        /* \"#utility.yul\":14093:14160   */\n      tag_122\n      jump\t// in\n    tag_272:\n        /* \"#utility.yul\":14187:14188   */\n      0x00\n        /* \"#utility.yul\":14211:14215   */\n      0x20\n        /* \"#utility.yul\":14198:14215   */\n      swap1\n      pop\n        /* \"#utility.yul\":14243:14245   */\n      0x1f\n        /* \"#utility.yul\":14235:14241   */\n      dup4\n        /* \"#utility.yul\":14232:14246   */\n      gt\n        /* \"#utility.yul\":14260:14261   */\n      0x01\n        /* \"#utility.yul\":14255:14873   */\n      dup2\n      eq\n      tag_274\n      jumpi\n        /* \"#utility.yul\":14917:14918   */\n      0x00\n        /* \"#utility.yul\":14934:14940   */\n      dup5\n        /* \"#utility.yul\":14931:15008   */\n      iszero\n      tag_275\n      jumpi\n        /* \"#utility.yul\":14983:14992   */\n      dup3\n        /* \"#utility.yul\":14978:14981   */\n      dup8\n        /* \"#utility.yul\":14974:14993   */\n      add\n        /* \"#utility.yul\":14968:14994   */\n      mload\n        /* \"#utility.yul\":14959:14994   */\n      swap1\n      pop\n        /* \"#utility.yul\":14931:15008   */\n    tag_275:\n        /* \"#utility.yul\":15034:15101   */\n      tag_276\n        /* \"#utility.yul\":15094:15100   */\n      dup6\n        /* \"#utility.yul\":15087:15092   */\n      dup3\n        /* \"#utility.yul\":15034:15101   */\n      tag_125\n      jump\t// in\n    tag_276:\n        /* \"#utility.yul\":15028:15032   */\n      dup7\n        /* \"#utility.yul\":15021:15102   */\n      sstore\n        /* \"#utility.yul\":14890:15112   */\n      pop\n        /* \"#utility.yul\":14225:15112   */\n      jump(tag_273)\n        /* \"#utility.yul\":14255:14873   */\n    tag_274:\n        /* \"#utility.yul\":14307:14311   */\n      0x1f\n        /* \"#utility.yul\":14303:14312   */\n      not\n        /* \"#utility.yul\":14295:14301   */\n      dup5\n        /* \"#utility.yul\":14291:14313   */\n      and\n        /* \"#utility.yul\":14341:14378   */\n      tag_277\n        /* \"#utility.yul\":14373:14377   */\n      dup7\n        /* \"#utility.yul\":14341:14378   */\n      tag_111\n      jump\t// in\n    tag_277:\n        /* \"#utility.yul\":14400:14401   */\n      0x00\n        /* \"#utility.yul\":14414:14622   */\n    tag_278:\n        /* \"#utility.yul\":14428:14435   */\n      dup3\n        /* \"#utility.yul\":14425:14426   */\n      dup2\n        /* \"#utility.yul\":14422:14436   */\n      lt\n        /* \"#utility.yul\":14414:14622   */\n      iszero\n      tag_280\n      jumpi\n        /* \"#utility.yul\":14507:14516   */\n      dup5\n        /* \"#utility.yul\":14502:14505   */\n      dup10\n        /* \"#utility.yul\":14498:14517   */\n      add\n        /* \"#utility.yul\":14492:14518   */\n      mload\n        /* \"#utility.yul\":14484:14490   */\n      dup3\n        /* \"#utility.yul\":14477:14519   */\n      sstore\n        /* \"#utility.yul\":14558:14559   */\n      0x01\n        /* \"#utility.yul\":14550:14556   */\n      dup3\n        /* \"#utility.yul\":14546:14560   */\n      add\n        /* \"#utility.yul\":14536:14560   */\n      swap2\n      pop\n        /* \"#utility.yul\":14605:14607   */\n      0x20\n        /* \"#utility.yul\":14594:14603   */\n      dup6\n        /* \"#utility.yul\":14590:14608   */\n      add\n        /* \"#utility.yul\":14577:14608   */\n      swap5\n      pop\n        /* \"#utility.yul\":14451:14455   */\n      0x20\n        /* \"#utility.yul\":14448:14449   */\n      dup2\n        /* \"#utility.yul\":14444:14456   */\n      add\n        /* \"#utility.yul\":14439:14456   */\n      swap1\n      pop\n        /* \"#utility.yul\":14414:14622   */\n      jump(tag_278)\n    tag_280:\n        /* \"#utility.yul\":14650:14656   */\n      dup7\n        /* \"#utility.yul\":14641:14648   */\n      dup4\n        /* \"#utility.yul\":14638:14657   */\n      lt\n        /* \"#utility.yul\":14635:14814   */\n      iszero\n      tag_281\n      jumpi\n        /* \"#utility.yul\":14708:14717   */\n      dup5\n        /* \"#utility.yul\":14703:14706   */\n      dup10\n        /* \"#utility.yul\":14699:14718   */\n      add\n        /* \"#utility.yul\":14693:14719   */\n      mload\n        /* \"#utility.yul\":14751:14799   */\n      tag_282\n        /* \"#utility.yul\":14793:14797   */\n      0x1f\n        /* \"#utility.yul\":14785:14791   */\n      dup10\n        /* \"#utility.yul\":14781:14798   */\n      and\n        /* \"#utility.yul\":14770:14779   */\n      dup3\n        /* \"#utility.yul\":14751:14799   */\n      tag_124\n      jump\t// in\n    tag_282:\n        /* \"#utility.yul\":14743:14749   */\n      dup4\n        /* \"#utility.yul\":14736:14800   */\n      sstore\n        /* \"#utility.yul\":14658:14814   */\n      pop\n        /* \"#utility.yul\":14635:14814   */\n    tag_281:\n        /* \"#utility.yul\":14860:14861   */\n      0x01\n        /* \"#utility.yul\":14856:14857   */\n      0x02\n        /* \"#utility.yul\":14848:14854   */\n      dup9\n        /* \"#utility.yul\":14844:14858   */\n      mul\n        /* \"#utility.yul\":14840:14862   */\n      add\n        /* \"#utility.yul\":14834:14838   */\n      dup9\n        /* \"#utility.yul\":14827:14863   */\n      sstore\n        /* \"#utility.yul\":14262:14873   */\n      pop\n      pop\n      pop\n        /* \"#utility.yul\":14225:15112   */\n    tag_273:\n      pop\n        /* \"#utility.yul\":13815:15118   */\n      pop\n      pop\n      pop\n        /* \"#utility.yul\":13723:15118   */\n      pop\n      pop\n      jump\t// out\n        /* \"#utility.yul\":15124:15547   */\n    tag_78:\n        /* \"#utility.yul\":15265:15269   */\n      0x00\n        /* \"#utility.yul\":15303:15305   */\n      0x40\n        /* \"#utility.yul\":15292:15301   */\n      dup3\n        /* \"#utility.yul\":15288:15306   */\n      add\n        /* \"#utility.yul\":15280:15306   */\n      swap1\n      pop\n        /* \"#utility.yul\":15352:15361   */\n      dup2\n        /* \"#utility.yul\":15346:15350   */\n      dup2\n        /* \"#utility.yul\":15342:15362   */\n      sub\n        /* \"#utility.yul\":15338:15339   */\n      0x00\n        /* \"#utility.yul\":15327:15336   */\n      dup4\n        /* \"#utility.yul\":15323:15340   */\n      add\n        /* \"#utility.yul\":15316:15363   */\n      mstore\n        /* \"#utility.yul\":15380:15458   */\n      tag_284\n        /* \"#utility.yul\":15453:15457   */\n      dup2\n        /* \"#utility.yul\":15444:15450   */\n      dup6\n        /* \"#utility.yul\":15380:15458   */\n      tag_93\n      jump\t// in\n    tag_284:\n        /* \"#utility.yul\":15372:15458   */\n      swap1\n      pop\n        /* \"#utility.yul\":15468:15540   */\n      tag_285\n        /* \"#utility.yul\":15536:15538   */\n      0x20\n        /* \"#utility.yul\":15525:15534   */\n      dup4\n        /* \"#utility.yul\":15521:15539   */\n      add\n        /* \"#utility.yul\":15512:15518   */\n      dup5\n        /* \"#utility.yul\":15468:15540   */\n      tag_83\n      jump\t// in\n    tag_285:\n        /* \"#utility.yul\":15124:15547   */\n      swap4\n      swap3\n      pop\n      pop\n      pop\n      jump\t// out\n\n    auxdata: 0xa2646970667358221220cac481c6084e18e4ae6d4548e8275608e30ce4af06e3cddcc98ec9bb430b2be464736f6c634300081e0033\n}\n",
				"bytecode": {
					"linkReferences": {},
					"object": "6080604052348015600e575f5ffd5b50335f5f6101000a81548173ffffffffffffffffffffffffffffffffffffffff021916908373ffffffffffffffffffffffffffffffffffffffff160217905550610e548061005b5f395ff3fe60806040526004361061004d575f3560e01c806306ead22e146100c857806341e0c40714610106578063642f9163146101305780638da5cb5b1461016e578063c1bea1db146101985761008d565b3661008d577f6ef95f06320e7a25a04a175ca677b7052bdd97131872c2192525a629f51be7703334604051610083929190610610565b60405180910390a1005b7f6ef95f06320e7a25a04a175ca677b7052bdd97131872c2192525a629f51be77033346040516100be929190610610565b60405180910390a1005b3480156100d3575f5ffd5b506100ee60048036038101906100e99190610672565b6101c0565b6040516100fd9392919061070d565b60405180910390f35b348015610111575f5ffd5b5061011a61027b565b6040516101279190610749565b60405180910390f35b34801561013b575f5ffd5b5061015660048036038101906101519190610672565b610287565b6040516101659392919061070d565b60405180910390f35b348015610179575f5ffd5b506101826103ed565b60405161018f9190610762565b60405180910390f35b3480156101a3575f5ffd5b506101be60048036038101906101b991906108a7565b610411565b005b600181815481106101cf575f80fd5b905f5260205f2090600302015f91509050805f0154908060010180546101f490610940565b80601f016020809104026020016040519081016040528092919081815260200182805461022090610940565b801561026b5780601f106102425761010080835404028352916020019161026b565b820191905f5260205f20905b81548152906001019060200180831161024e57829003601f168201915b5050505050908060020154905083565b5f600180549050905090565b5f60605f5f60025f8681526020019081526020015f2054036102de576040517f08c379a00000000000000000000000000000000000000000000000000000000081526004016102d5906109ba565b60405180910390fd5b5f600160025f8781526020019081526020015f20546102fd9190610a05565b90505f6001828154811061031457610313610a38565b5b905f5260205f2090600302016040518060600160405290815f820154815260200160018201805461034490610940565b80601f016020809104026020016040519081016040528092919081815260200182805461037090610940565b80156103bb5780601f10610392576101008083540402835291602001916103bb565b820191905f5260205f20905b81548152906001019060200180831161039e57829003601f168201915b505050505081526020016002820154815250509050805f01518160200151826040015194509450945050509193909250565b5f5f9054906101000a900473ffffffffffffffffffffffffffffffffffffffff1681565b5f5f9054906101000a900473ffffffffffffffffffffffffffffffffffffffff1673ffffffffffffffffffffffffffffffffffffffff163373ffffffffffffffffffffffffffffffffffffffff161461049f576040517f08c379a000000000000000000000000000000000000000000000000000000000815260040161049690610ad5565b60405180910390fd5b5f60025f8581526020019081526020015f2054146104f2576040517f08c379a00000000000000000000000000000000000000000000000000000000081526004016104e990610b63565b60405180910390fd5b6001604051806060016040528085815260200184815260200183815250908060018154018082558091505060019003905f5260205f2090600302015f909190919091505f820151815f015560208201518160010190816105529190610d21565b5060408201518160020155505060018054905060025f8581526020019081526020015f2081905550827ffafb7311fc57ca8a55073f63725e888b4250c799d77ae873970d65ac08c5917a83836040516105ac929190610df0565b60405180910390a2505050565b5f73ffffffffffffffffffffffffffffffffffffffff82169050919050565b5f6105e2826105b9565b9050919050565b6105f2816105d8565b82525050565b5f819050919050565b61060a816105f8565b82525050565b5f6040820190506106235f8301856105e9565b6106306020830184610601565b9392505050565b5f604051905090565b5f5ffd5b5f5ffd5b610651816105f8565b811461065b575f5ffd5b50565b5f8135905061066c81610648565b92915050565b5f6020828403121561068757610686610640565b5b5f6106948482850161065e565b91505092915050565b5f81519050919050565b5f82825260208201905092915050565b8281835e5f83830152505050565b5f601f19601f8301169050919050565b5f6106df8261069d565b6106e981856106a7565b93506106f98185602086016106b7565b610702816106c5565b840191505092915050565b5f6060820190506107205f830186610601565b818103602083015261073281856106d5565b90506107416040830184610601565b949350505050565b5f60208201905061075c5f830184610601565b92915050565b5f6020820190506107755f8301846105e9565b92915050565b5f5ffd5b5f5ffd5b7f4e487b71000000000000000000000000000000000000000000000000000000005f52604160045260245ffd5b6107b9826106c5565b810181811067ffffffffffffffff821117156107d8576107d7610783565b5b80604052505050565b5f6107ea610637565b90506107f682826107b0565b919050565b5f67ffffffffffffffff82111561081557610814610783565b5b61081e826106c5565b9050602081019050919050565b828183375f83830152505050565b5f61084b610846846107fb565b6107e1565b9050828152602081018484840111156108675761086661077f565b5b61087284828561082b565b509392505050565b5f82601f83011261088e5761088d61077b565b5b813561089e848260208601610839565b91505092915050565b5f5f5f606084860312156108be576108bd610640565b5b5f6108cb8682870161065e565b935050602084013567ffffffffffffffff8111156108ec576108eb610644565b5b6108f88682870161087a565b92505060406109098682870161065e565b9150509250925092565b7f4e487b71000000000000000000000000000000000000000000000000000000005f52602260045260245ffd5b5f600282049050600182168061095757607f821691505b60208210810361096a57610969610913565b5b50919050565b7f53747564656e74206e6f7420666f756e642e00000000000000000000000000005f82015250565b5f6109a46012836106a7565b91506109af82610970565b602082019050919050565b5f6020820190508181035f8301526109d181610998565b9050919050565b7f4e487b71000000000000000000000000000000000000000000000000000000005f52601160045260245ffd5b5f610a0f826105f8565b9150610a1a836105f8565b9250828203905081811115610a3257610a316109d8565b5b92915050565b7f4e487b71000000000000000000000000000000000000000000000000000000005f52603260045260245ffd5b7f4f6e6c7920746865206f776e65722063616e2063616c6c20746869732066756e5f8201527f6374696f6e2e0000000000000000000000000000000000000000000000000000602082015250565b5f610abf6026836106a7565b9150610aca82610a65565b604082019050919050565b5f6020820190508181035f830152610aec81610ab3565b9050919050565b7f53747564656e742077697468207468697320494420616c7265616479206578695f8201527f7374732e00000000000000000000000000000000000000000000000000000000602082015250565b5f610b4d6024836106a7565b9150610b5882610af3565b604082019050919050565b5f6020820190508181035f830152610b7a81610b41565b9050919050565b5f819050815f5260205f209050919050565b5f6020601f8301049050919050565b5f82821b905092915050565b5f60088302610bdd7fffffffffffffffffffffffffffffffffffffffffffffffffffffffffffffffff82610ba2565b610be78683610ba2565b95508019841693508086168417925050509392505050565b5f819050919050565b5f610c22610c1d610c18846105f8565b610bff565b6105f8565b9050919050565b5f819050919050565b610c3b83610c08565b610c4f610c4782610c29565b848454610bae565b825550505050565b5f5f905090565b610c66610c57565b610c71818484610c32565b505050565b5b81811015610c9457610c895f82610c5e565b600181019050610c77565b5050565b601f821115610cd957610caa81610b81565b610cb384610b93565b81016020851015610cc2578190505b610cd6610cce85610b93565b830182610c76565b50505b505050565b5f82821c905092915050565b5f610cf95f1984600802610cde565b1980831691505092915050565b5f610d118383610cea565b9150826002028217905092915050565b610d2a8261069d565b67ffffffffffffffff811115610d4357610d42610783565b5b610d4d8254610940565b610d58828285610c98565b5f60209050601f831160018114610d89575f8415610d77578287015190505b610d818582610d06565b865550610de8565b601f198416610d9786610b81565b5f5b82811015610dbe57848901518255600182019150602085019450602081019050610d99565b86831015610ddb5784890151610dd7601f891682610cea565b8355505b6001600288020188555050505b505050505050565b5f6040820190508181035f830152610e0881856106d5565b9050610e176020830184610601565b939250505056fea2646970667358221220cac481c6084e18e4ae6d4548e8275608e30ce4af06e3cddcc98ec9bb430b2be464736f6c634300081e0033",
					"opcodes": "PUSH1 0x80 PUSH1 0x40 MSTORE CALLVALUE DUP1 ISZERO PUSH1 0xE JUMPI PUSH0 PUSH0 REVERT JUMPDEST POP CALLER PUSH0 PUSH0 PUSH2 0x100 EXP DUP2 SLOAD DUP2 PUSH20 0xFFFFFFFFFFFFFFFFFFFFFFFFFFFFFFFFFFFFFFFF MUL NOT AND SWAP1 DUP4 PUSH20 0xFFFFFFFFFFFFFFFFFFFFFFFFFFFFFFFFFFFFFFFF AND MUL OR SWAP1 SSTORE POP PUSH2 0xE54 DUP1 PUSH2 0x5B PUSH0 CODECOPY PUSH0 RETURN INVALID PUSH1 0x80 PUSH1 0x40 MSTORE PUSH1 0x4 CALLDATASIZE LT PUSH2 0x4D JUMPI PUSH0 CALLDATALOAD PUSH1 0xE0 SHR DUP1 PUSH4 0x6EAD22E EQ PUSH2 0xC8 JUMPI DUP1 PUSH4 0x41E0C407 EQ PUSH2 0x106 JUMPI DUP1 PUSH4 0x642F9163 EQ PUSH2 0x130 JUMPI DUP1 PUSH4 0x8DA5CB5B EQ PUSH2 0x16E JUMPI DUP1 PUSH4 0xC1BEA1DB EQ PUSH2 0x198 JUMPI PUSH2 0x8D JUMP JUMPDEST CALLDATASIZE PUSH2 0x8D JUMPI PUSH32 0x6EF95F06320E7A25A04A175CA677B7052BDD97131872C2192525A629F51BE770 CALLER CALLVALUE PUSH1 0x40 MLOAD PUSH2 0x83 SWAP3 SWAP2 SWAP1 PUSH2 0x610 JUMP JUMPDEST PUSH1 0x40 MLOAD DUP1 SWAP2 SUB SWAP1 LOG1 STOP JUMPDEST PUSH32 0x6EF95F06320E7A25A04A175CA677B7052BDD97131872C2192525A629F51BE770 CALLER CALLVALUE PUSH1 0x40 MLOAD PUSH2 0xBE SWAP3 SWAP2 SWAP1 PUSH2 0x610 JUMP JUMPDEST PUSH1 0x40 MLOAD DUP1 SWAP2 SUB SWAP1 LOG1 STOP JUMPDEST CALLVALUE DUP1 ISZERO PUSH2 0xD3 JUMPI PUSH0 PUSH0 REVERT JUMPDEST POP PUSH2 0xEE PUSH1 0x4 DUP1 CALLDATASIZE SUB DUP2 ADD SWAP1 PUSH2 0xE9 SWAP2 SWAP1 PUSH2 0x672 JUMP JUMPDEST PUSH2 0x1C0 JUMP JUMPDEST PUSH1 0x40 MLOAD PUSH2 0xFD SWAP4 SWAP3 SWAP2 SWAP1 PUSH2 0x70D JUMP JUMPDEST PUSH1 0x40 MLOAD DUP1 SWAP2 SUB SWAP1 RETURN JUMPDEST CALLVALUE DUP1 ISZERO PUSH2 0x111 JUMPI PUSH0 PUSH0 REVERT JUMPDEST POP PUSH2 0x11A PUSH2 0x27B JUMP JUMPDEST PUSH1 0x40 MLOAD PUSH2 0x127 SWAP2 SWAP1 PUSH2 0x749 JUMP JUMPDEST PUSH1 0x40 MLOAD DUP1 SWAP2 SUB SWAP1 RETURN JUMPDEST CALLVALUE DUP1 ISZERO PUSH2 0x13B JUMPI PUSH0 PUSH0 REVERT JUMPDEST POP PUSH2 0x156 PUSH1 0x4 DUP1 CALLDATASIZE SUB DUP2 ADD SWAP1 PUSH2 0x151 SWAP2 SWAP1 PUSH2 0x672 JUMP JUMPDEST PUSH2 0x287 JUMP JUMPDEST PUSH1 0x40 MLOAD PUSH2 0x165 SWAP4 SWAP3 SWAP2 SWAP1 PUSH2 0x70D JUMP JUMPDEST PUSH1 0x40 MLOAD DUP1 SWAP2 SUB SWAP1 RETURN JUMPDEST CALLVALUE DUP1 ISZERO PUSH2 0x179 JUMPI PUSH0 PUSH0 REVERT JUMPDEST POP PUSH2 0x182 PUSH2 0x3ED JUMP JUMPDEST PUSH1 0x40 MLOAD PUSH2 0x18F SWAP2 SWAP1 PUSH2 0x762 JUMP JUMPDEST PUSH1 0x40 MLOAD DUP1 SWAP2 SUB SWAP1 RETURN JUMPDEST CALLVALUE DUP1 ISZERO PUSH2 0x1A3 JUMPI PUSH0 PUSH0 REVERT JUMPDEST POP PUSH2 0x1BE PUSH1 0x4 DUP1 CALLDATASIZE SUB DUP2 ADD SWAP1 PUSH2 0x1B9 SWAP2 SWAP1 PUSH2 0x8A7 JUMP JUMPDEST PUSH2 0x411 JUMP JUMPDEST STOP JUMPDEST PUSH1 0x1 DUP2 DUP2 SLOAD DUP2 LT PUSH2 0x1CF JUMPI PUSH0 DUP1 REVERT JUMPDEST SWAP1 PUSH0 MSTORE PUSH1 0x20 PUSH0 KECCAK256 SWAP1 PUSH1 0x3 MUL ADD PUSH0 SWAP2 POP SWAP1 POP DUP1 PUSH0 ADD SLOAD SWAP1 DUP1 PUSH1 0x1 ADD DUP1 SLOAD PUSH2 0x1F4 SWAP1 PUSH2 0x940 JUMP JUMPDEST DUP1 PUSH1 0x1F ADD PUSH1 0x20 DUP1 SWAP2 DIV MUL PUSH1 0x20 ADD PUSH1 0x40 MLOAD SWAP1 DUP2 ADD PUSH1 0x40 MSTORE DUP1 SWAP3 SWAP2 SWAP1 DUP2 DUP2 MSTORE PUSH1 0x20 ADD DUP3 DUP1 SLOAD PUSH2 0x220 SWAP1 PUSH2 0x940 JUMP JUMPDEST DUP1 ISZERO PUSH2 0x26B JUMPI DUP1 PUSH1 0x1F LT PUSH2 0x242 JUMPI PUSH2 0x100 DUP1 DUP4 SLOAD DIV MUL DUP4 MSTORE SWAP2 PUSH1 0x20 ADD SWAP2 PUSH2 0x26B JUMP JUMPDEST DUP3 ADD SWAP2 SWAP1 PUSH0 MSTORE PUSH1 0x20 PUSH0 KECCAK256 SWAP1 JUMPDEST DUP2 SLOAD DUP2 MSTORE SWAP1 PUSH1 0x1 ADD SWAP1 PUSH1 0x20 ADD DUP1 DUP4 GT PUSH2 0x24E JUMPI DUP3 SWAP1 SUB PUSH1 0x1F AND DUP3 ADD SWAP2 JUMPDEST POP POP POP POP POP SWAP1 DUP1 PUSH1 0x2 ADD SLOAD SWAP1 POP DUP4 JUMP JUMPDEST PUSH0 PUSH1 0x1 DUP1 SLOAD SWAP1 POP SWAP1 POP SWAP1 JUMP JUMPDEST PUSH0 PUSH1 0x60 PUSH0 PUSH0 PUSH1 0x2 PUSH0 DUP7 DUP2 MSTORE PUSH1 0x20 ADD SWAP1 DUP2 MSTORE PUSH1 0x20 ADD PUSH0 KECCAK256 SLOAD SUB PUSH2 0x2DE JUMPI PUSH1 0x40 MLOAD PUSH32 0x8C379A000000000000000000000000000000000000000000000000000000000 DUP2 MSTORE PUSH1 0x4 ADD PUSH2 0x2D5 SWAP1 PUSH2 0x9BA JUMP JUMPDEST PUSH1 0x40 MLOAD DUP1 SWAP2 SUB SWAP1 REVERT JUMPDEST PUSH0 PUSH1 0x1 PUSH1 0x2 PUSH0 DUP8 DUP2 MSTORE PUSH1 0x20 ADD SWAP1 DUP2 MSTORE PUSH1 0x20 ADD PUSH0 KECCAK256 SLOAD PUSH2 0x2FD SWAP2 SWAP1 PUSH2 0xA05 JUMP JUMPDEST SWAP1 POP PUSH0 PUSH1 0x1 DUP3 DUP2 SLOAD DUP2 LT PUSH2 0x314 JUMPI PUSH2 0x313 PUSH2 0xA38 JUMP JUMPDEST JUMPDEST SWAP1 PUSH0 MSTORE PUSH1 0x20 PUSH0 KECCAK256 SWAP1 PUSH1 0x3 MUL ADD PUSH1 0x40 MLOAD DUP1 PUSH1 0x60 ADD PUSH1 0x40 MSTORE SWAP1 DUP2 PUSH0 DUP3 ADD SLOAD DUP2 MSTORE PUSH1 0x20 ADD PUSH1 0x1 DUP3 ADD DUP1 SLOAD PUSH2 0x344 SWAP1 PUSH2 0x940 JUMP JUMPDEST DUP1 PUSH1 0x1F ADD PUSH1 0x20 DUP1 SWAP2 DIV MUL PUSH1 0x20 ADD PUSH1 0x40 MLOAD SWAP1 DUP2 ADD PUSH1 0x40 MSTORE DUP1 SWAP3 SWAP2 SWAP1 DUP2 DUP2 MSTORE PUSH1 0x20 ADD DUP3 DUP1 SLOAD PUSH2 0x370 SWAP1 PUSH2 0x940 JUMP JUMPDEST DUP1 ISZERO PUSH2 0x3BB JUMPI DUP1 PUSH1 0x1F LT PUSH2 0x392 JUMPI PUSH2 0x100 DUP1 DUP4 SLOAD DIV MUL DUP4 MSTORE SWAP2 PUSH1 0x20 ADD SWAP2 PUSH2 0x3BB JUMP JUMPDEST DUP3 ADD SWAP2 SWAP1 PUSH0 MSTORE PUSH1 0x20 PUSH0 KECCAK256 SWAP1 JUMPDEST DUP2 SLOAD DUP2 MSTORE SWAP1 PUSH1 0x1 ADD SWAP1 PUSH1 0x20 ADD DUP1 DUP4 GT PUSH2 0x39E JUMPI DUP3 SWAP1 SUB PUSH1 0x1F AND DUP3 ADD SWAP2 JUMPDEST POP POP POP POP POP DUP2 MSTORE PUSH1 0x20 ADD PUSH1 0x2 DUP3 ADD SLOAD DUP2 MSTORE POP POP SWAP1 POP DUP1 PUSH0 ADD MLOAD DUP2 PUSH1 0x20 ADD MLOAD DUP3 PUSH1 0x40 ADD MLOAD SWAP5 POP SWAP5 POP SWAP5 POP POP POP SWAP2 SWAP4 SWAP1 SWAP3 POP JUMP JUMPDEST PUSH0 PUSH0 SWAP1 SLOAD SWAP1 PUSH2 0x100 EXP SWAP1 DIV PUSH20 0xFFFFFFFFFFFFFFFFFFFFFFFFFFFFFFFFFFFFFFFF AND DUP2 JUMP JUMPDEST PUSH0 PUSH0 SWAP1 SLOAD SWAP1 PUSH2 0x100 EXP SWAP1 DIV PUSH20 0xFFFFFFFFFFFFFFFFFFFFFFFFFFFFFFFFFFFFFFFF AND PUSH20 0xFFFFFFFFFFFFFFFFFFFFFFFFFFFFFFFFFFFFFFFF AND CALLER PUSH20 0xFFFFFFFFFFFFFFFFFFFFFFFFFFFFFFFFFFFFFFFF AND EQ PUSH2 0x49F JUMPI PUSH1 0x40 MLOAD PUSH32 0x8C379A000000000000000000000000000000000000000000000000000000000 DUP2 MSTORE PUSH1 0x4 ADD PUSH2 0x496 SWAP1 PUSH2 0xAD5 JUMP JUMPDEST PUSH1 0x40 MLOAD DUP1 SWAP2 SUB SWAP1 REVERT JUMPDEST PUSH0 PUSH1 0x2 PUSH0 DUP6 DUP2 MSTORE PUSH1 0x20 ADD SWAP1 DUP2 MSTORE PUSH1 0x20 ADD PUSH0 KECCAK256 SLOAD EQ PUSH2 0x4F2 JUMPI PUSH1 0x40 MLOAD PUSH32 0x8C379A000000000000000000000000000000000000000000000000000000000 DUP2 MSTORE PUSH1 0x4 ADD PUSH2 0x4E9 SWAP1 PUSH2 0xB63 JUMP JUMPDEST PUSH1 0x40 MLOAD DUP1 SWAP2 SUB SWAP1 REVERT JUMPDEST PUSH1 0x1 PUSH1 0x40 MLOAD DUP1 PUSH1 0x60 ADD PUSH1 0x40 MSTORE DUP1 DUP6 DUP2 MSTORE PUSH1 0x20 ADD DUP5 DUP2 MSTORE PUSH1 0x20 ADD DUP4 DUP2 MSTORE POP SWAP1 DUP1 PUSH1 0x1 DUP2 SLOAD ADD DUP1 DUP3 SSTORE DUP1 SWAP2 POP POP PUSH1 0x1 SWAP1 SUB SWAP1 PUSH0 MSTORE PUSH1 0x20 PUSH0 KECCAK256 SWAP1 PUSH1 0x3 MUL ADD PUSH0 SWAP1 SWAP2 SWAP1 SWAP2 SWAP1 SWAP2 POP PUSH0 DUP3 ADD MLOAD DUP2 PUSH0 ADD SSTORE PUSH1 0x20 DUP3 ADD MLOAD DUP2 PUSH1 0x1 ADD SWAP1 DUP2 PUSH2 0x552 SWAP2 SWAP1 PUSH2 0xD21 JUMP JUMPDEST POP PUSH1 0x40 DUP3 ADD MLOAD DUP2 PUSH1 0x2 ADD SSTORE POP POP PUSH1 0x1 DUP1 SLOAD SWAP1 POP PUSH1 0x2 PUSH0 DUP6 DUP2 MSTORE PUSH1 0x20 ADD SWAP1 DUP2 MSTORE PUSH1 0x20 ADD PUSH0 KECCAK256 DUP2 SWAP1 SSTORE POP DUP3 PUSH32 0xFAFB7311FC57CA8A55073F63725E888B4250C799D77AE873970D65AC08C5917A DUP4 DUP4 PUSH1 0x40 MLOAD PUSH2 0x5AC SWAP3 SWAP2 SWAP1 PUSH2 0xDF0 JUMP JUMPDEST PUSH1 0x40 MLOAD DUP1 SWAP2 SUB SWAP1 LOG2 POP POP POP JUMP JUMPDEST PUSH0 PUSH20 0xFFFFFFFFFFFFFFFFFFFFFFFFFFFFFFFFFFFFFFFF DUP3 AND SWAP1 POP SWAP2 SWAP1 POP JUMP JUMPDEST PUSH0 PUSH2 0x5E2 DUP3 PUSH2 0x5B9 JUMP JUMPDEST SWAP1 POP SWAP2 SWAP1 POP JUMP JUMPDEST PUSH2 0x5F2 DUP2 PUSH2 0x5D8 JUMP JUMPDEST DUP3 MSTORE POP POP JUMP JUMPDEST PUSH0 DUP2 SWAP1 POP SWAP2 SWAP1 POP JUMP JUMPDEST PUSH2 0x60A DUP2 PUSH2 0x5F8 JUMP JUMPDEST DUP3 MSTORE POP POP JUMP JUMPDEST PUSH0 PUSH1 0x40 DUP3 ADD SWAP1 POP PUSH2 0x623 PUSH0 DUP4 ADD DUP6 PUSH2 0x5E9 JUMP JUMPDEST PUSH2 0x630 PUSH1 0x20 DUP4 ADD DUP5 PUSH2 0x601 JUMP JUMPDEST SWAP4 SWAP3 POP POP POP JUMP JUMPDEST PUSH0 PUSH1 0x40 MLOAD SWAP1 POP SWAP1 JUMP JUMPDEST PUSH0 PUSH0 REVERT JUMPDEST PUSH0 PUSH0 REVERT JUMPDEST PUSH2 0x651 DUP2 PUSH2 0x5F8 JUMP JUMPDEST DUP2 EQ PUSH2 0x65B JUMPI PUSH0 PUSH0 REVERT JUMPDEST POP JUMP JUMPDEST PUSH0 DUP2 CALLDATALOAD SWAP1 POP PUSH2 0x66C DUP2 PUSH2 0x648 JUMP JUMPDEST SWAP3 SWAP2 POP POP JUMP JUMPDEST PUSH0 PUSH1 0x20 DUP3 DUP5 SUB SLT ISZERO PUSH2 0x687 JUMPI PUSH2 0x686 PUSH2 0x640 JUMP JUMPDEST JUMPDEST PUSH0 PUSH2 0x694 DUP5 DUP3 DUP6 ADD PUSH2 0x65E JUMP JUMPDEST SWAP2 POP POP SWAP3 SWAP2 POP POP JUMP JUMPDEST PUSH0 DUP2 MLOAD SWAP1 POP SWAP2 SWAP1 POP JUMP JUMPDEST PUSH0 DUP3 DUP3 MSTORE PUSH1 0x20 DUP3 ADD SWAP1 POP SWAP3 SWAP2 POP POP JUMP JUMPDEST DUP3 DUP2 DUP4 MCOPY PUSH0 DUP4 DUP4 ADD MSTORE POP POP POP JUMP JUMPDEST PUSH0 PUSH1 0x1F NOT PUSH1 0x1F DUP4 ADD AND SWAP1 POP SWAP2 SWAP1 POP JUMP JUMPDEST PUSH0 PUSH2 0x6DF DUP3 PUSH2 0x69D JUMP JUMPDEST PUSH2 0x6E9 DUP2 DUP6 PUSH2 0x6A7 JUMP JUMPDEST SWAP4 POP PUSH2 0x6F9 DUP2 DUP6 PUSH1 0x20 DUP7 ADD PUSH2 0x6B7 JUMP JUMPDEST PUSH2 0x702 DUP2 PUSH2 0x6C5 JUMP JUMPDEST DUP5 ADD SWAP2 POP POP SWAP3 SWAP2 POP POP JUMP JUMPDEST PUSH0 PUSH1 0x60 DUP3 ADD SWAP1 POP PUSH2 0x720 PUSH0 DUP4 ADD DUP7 PUSH2 0x601 JUMP JUMPDEST DUP2 DUP2 SUB PUSH1 0x20 DUP4 ADD MSTORE PUSH2 0x732 DUP2 DUP6 PUSH2 0x6D5 JUMP JUMPDEST SWAP1 POP PUSH2 0x741 PUSH1 0x40 DUP4 ADD DUP5 PUSH2 0x601 JUMP JUMPDEST SWAP5 SWAP4 POP POP POP POP JUMP JUMPDEST PUSH0 PUSH1 0x20 DUP3 ADD SWAP1 POP PUSH2 0x75C PUSH0 DUP4 ADD DUP5 PUSH2 0x601 JUMP JUMPDEST SWAP3 SWAP2 POP POP JUMP JUMPDEST PUSH0 PUSH1 0x20 DUP3 ADD SWAP1 POP PUSH2 0x775 PUSH0 DUP4 ADD DUP5 PUSH2 0x5E9 JUMP JUMPDEST SWAP3 SWAP2 POP POP JUMP JUMPDEST PUSH0 PUSH0 REVERT JUMPDEST PUSH0 PUSH0 REVERT JUMPDEST PUSH32 0x4E487B7100000000000000000000000000000000000000000000000000000000 PUSH0 MSTORE PUSH1 0x41 PUSH1 0x4 MSTORE PUSH1 0x24 PUSH0 REVERT JUMPDEST PUSH2 0x7B9 DUP3 PUSH2 0x6C5 JUMP JUMPDEST DUP2 ADD DUP2 DUP2 LT PUSH8 0xFFFFFFFFFFFFFFFF DUP3 GT OR ISZERO PUSH2 0x7D8 JUMPI PUSH2 0x7D7 PUSH2 0x783 JUMP JUMPDEST JUMPDEST DUP1 PUSH1 0x40 MSTORE POP POP POP JUMP JUMPDEST PUSH0 PUSH2 0x7EA PUSH2 0x637 JUMP JUMPDEST SWAP1 POP PUSH2 0x7F6 DUP3 DUP3 PUSH2 0x7B0 JUMP JUMPDEST SWAP2 SWAP1 POP JUMP JUMPDEST PUSH0 PUSH8 0xFFFFFFFFFFFFFFFF DUP3 GT ISZERO PUSH2 0x815 JUMPI PUSH2 0x814 PUSH2 0x783 JUMP JUMPDEST JUMPDEST PUSH2 0x81E DUP3 PUSH2 0x6C5 JUMP JUMPDEST SWAP1 POP PUSH1 0x20 DUP2 ADD SWAP1 POP SWAP2 SWAP1 POP JUMP JUMPDEST DUP3 DUP2 DUP4 CALLDATACOPY PUSH0 DUP4 DUP4 ADD MSTORE POP POP POP JUMP JUMPDEST PUSH0 PUSH2 0x84B PUSH2 0x846 DUP5 PUSH2 0x7FB JUMP JUMPDEST PUSH2 0x7E1 JUMP JUMPDEST SWAP1 POP DUP3 DUP2 MSTORE PUSH1 0x20 DUP2 ADD DUP5 DUP5 DUP5 ADD GT ISZERO PUSH2 0x867 JUMPI PUSH2 0x866 PUSH2 0x77F JUMP JUMPDEST JUMPDEST PUSH2 0x872 DUP5 DUP3 DUP6 PUSH2 0x82B JUMP JUMPDEST POP SWAP4 SWAP3 POP POP POP JUMP JUMPDEST PUSH0 DUP3 PUSH1 0x1F DUP4 ADD SLT PUSH2 0x88E JUMPI PUSH2 0x88D PUSH2 0x77B JUMP JUMPDEST JUMPDEST DUP2 CALLDATALOAD PUSH2 0x89E DUP5 DUP3 PUSH1 0x20 DUP7 ADD PUSH2 0x839 JUMP JUMPDEST SWAP2 POP POP SWAP3 SWAP2 POP POP JUMP JUMPDEST PUSH0 PUSH0 PUSH0 PUSH1 0x60 DUP5 DUP7 SUB SLT ISZERO PUSH2 0x8BE JUMPI PUSH2 0x8BD PUSH2 0x640 JUMP JUMPDEST JUMPDEST PUSH0 PUSH2 0x8CB DUP7 DUP3 DUP8 ADD PUSH2 0x65E JUMP JUMPDEST SWAP4 POP POP PUSH1 0x20 DUP5 ADD CALLDATALOAD PUSH8 0xFFFFFFFFFFFFFFFF DUP2 GT ISZERO PUSH2 0x8EC JUMPI PUSH2 0x8EB PUSH2 0x644 JUMP JUMPDEST JUMPDEST PUSH2 0x8F8 DUP7 DUP3 DUP8 ADD PUSH2 0x87A JUMP JUMPDEST SWAP3 POP POP PUSH1 0x40 PUSH2 0x909 DUP7 DUP3 DUP8 ADD PUSH2 0x65E JUMP JUMPDEST SWAP2 POP POP SWAP3 POP SWAP3 POP SWAP3 JUMP JUMPDEST PUSH32 0x4E487B7100000000000000000000000000000000000000000000000000000000 PUSH0 MSTORE PUSH1 0x22 PUSH1 0x4 MSTORE PUSH1 0x24 PUSH0 REVERT JUMPDEST PUSH0 PUSH1 0x2 DUP3 DIV SWAP1 POP PUSH1 0x1 DUP3 AND DUP1 PUSH2 0x957 JUMPI PUSH1 0x7F DUP3 AND SWAP2 POP JUMPDEST PUSH1 0x20 DUP3 LT DUP2 SUB PUSH2 0x96A JUMPI PUSH2 0x969 PUSH2 0x913 JUMP JUMPDEST JUMPDEST POP SWAP2 SWAP1 POP JUMP JUMPDEST PUSH32 0x53747564656E74206E6F7420666F756E642E0000000000000000000000000000 PUSH0 DUP3 ADD MSTORE POP JUMP JUMPDEST PUSH0 PUSH2 0x9A4 PUSH1 0x12 DUP4 PUSH2 0x6A7 JUMP JUMPDEST SWAP2 POP PUSH2 0x9AF DUP3 PUSH2 0x970 JUMP JUMPDEST PUSH1 0x20 DUP3 ADD SWAP1 POP SWAP2 SWAP1 POP JUMP JUMPDEST PUSH0 PUSH1 0x20 DUP3 ADD SWAP1 POP DUP2 DUP2 SUB PUSH0 DUP4 ADD MSTORE PUSH2 0x9D1 DUP2 PUSH2 0x998 JUMP JUMPDEST SWAP1 POP SWAP2 SWAP1 POP JUMP JUMPDEST PUSH32 0x4E487B7100000000000000000000000000000000000000000000000000000000 PUSH0 MSTORE PUSH1 0x11 PUSH1 0x4 MSTORE PUSH1 0x24 PUSH0 REVERT JUMPDEST PUSH0 PUSH2 0xA0F DUP3 PUSH2 0x5F8 JUMP JUMPDEST SWAP2 POP PUSH2 0xA1A DUP4 PUSH2 0x5F8 JUMP JUMPDEST SWAP3 POP DUP3 DUP3 SUB SWAP1 POP DUP2 DUP2 GT ISZERO PUSH2 0xA32 JUMPI PUSH2 0xA31 PUSH2 0x9D8 JUMP JUMPDEST JUMPDEST SWAP3 SWAP2 POP POP JUMP JUMPDEST PUSH32 0x4E487B7100000000000000000000000000000000000000000000000000000000 PUSH0 MSTORE PUSH1 0x32 PUSH1 0x4 MSTORE PUSH1 0x24 PUSH0 REVERT JUMPDEST PUSH32 0x4F6E6C7920746865206F776E65722063616E2063616C6C20746869732066756E PUSH0 DUP3 ADD MSTORE PUSH32 0x6374696F6E2E0000000000000000000000000000000000000000000000000000 PUSH1 0x20 DUP3 ADD MSTORE POP JUMP JUMPDEST PUSH0 PUSH2 0xABF PUSH1 0x26 DUP4 PUSH2 0x6A7 JUMP JUMPDEST SWAP2 POP PUSH2 0xACA DUP3 PUSH2 0xA65 JUMP JUMPDEST PUSH1 0x40 DUP3 ADD SWAP1 POP SWAP2 SWAP1 POP JUMP JUMPDEST PUSH0 PUSH1 0x20 DUP3 ADD SWAP1 POP DUP2 DUP2 SUB PUSH0 DUP4 ADD MSTORE PUSH2 0xAEC DUP2 PUSH2 0xAB3 JUMP JUMPDEST SWAP1 POP SWAP2 SWAP1 POP JUMP JUMPDEST PUSH32 0x53747564656E742077697468207468697320494420616C726561647920657869 PUSH0 DUP3 ADD MSTORE PUSH32 0x7374732E00000000000000000000000000000000000000000000000000000000 PUSH1 0x20 DUP3 ADD MSTORE POP JUMP JUMPDEST PUSH0 PUSH2 0xB4D PUSH1 0x24 DUP4 PUSH2 0x6A7 JUMP JUMPDEST SWAP2 POP PUSH2 0xB58 DUP3 PUSH2 0xAF3 JUMP JUMPDEST PUSH1 0x40 DUP3 ADD SWAP1 POP SWAP2 SWAP1 POP JUMP JUMPDEST PUSH0 PUSH1 0x20 DUP3 ADD SWAP1 POP DUP2 DUP2 SUB PUSH0 DUP4 ADD MSTORE PUSH2 0xB7A DUP2 PUSH2 0xB41 JUMP JUMPDEST SWAP1 POP SWAP2 SWAP1 POP JUMP JUMPDEST PUSH0 DUP2 SWAP1 POP DUP2 PUSH0 MSTORE PUSH1 0x20 PUSH0 KECCAK256 SWAP1 POP SWAP2 SWAP1 POP JUMP JUMPDEST PUSH0 PUSH1 0x20 PUSH1 0x1F DUP4 ADD DIV SWAP1 POP SWAP2 SWAP1 POP JUMP JUMPDEST PUSH0 DUP3 DUP3 SHL SWAP1 POP SWAP3 SWAP2 POP POP JUMP JUMPDEST PUSH0 PUSH1 0x8 DUP4 MUL PUSH2 0xBDD PUSH32 0xFFFFFFFFFFFFFFFFFFFFFFFFFFFFFFFFFFFFFFFFFFFFFFFFFFFFFFFFFFFFFFFF DUP3 PUSH2 0xBA2 JUMP JUMPDEST PUSH2 0xBE7 DUP7 DUP4 PUSH2 0xBA2 JUMP JUMPDEST SWAP6 POP DUP1 NOT DUP5 AND SWAP4 POP DUP1 DUP7 AND DUP5 OR SWAP3 POP POP POP SWAP4 SWAP3 POP POP POP JUMP JUMPDEST PUSH0 DUP2 SWAP1 POP SWAP2 SWAP1 POP JUMP JUMPDEST PUSH0 PUSH2 0xC22 PUSH2 0xC1D PUSH2 0xC18 DUP5 PUSH2 0x5F8 JUMP JUMPDEST PUSH2 0xBFF JUMP JUMPDEST PUSH2 0x5F8 JUMP JUMPDEST SWAP1 POP SWAP2 SWAP1 POP JUMP JUMPDEST PUSH0 DUP2 SWAP1 POP SWAP2 SWAP1 POP JUMP JUMPDEST PUSH2 0xC3B DUP4 PUSH2 0xC08 JUMP JUMPDEST PUSH2 0xC4F PUSH2 0xC47 DUP3 PUSH2 0xC29 JUMP JUMPDEST DUP5 DUP5 SLOAD PUSH2 0xBAE JUMP JUMPDEST DUP3 SSTORE POP POP POP POP JUMP JUMPDEST PUSH0 PUSH0 SWAP1 POP SWAP1 JUMP JUMPDEST PUSH2 0xC66 PUSH2 0xC57 JUMP JUMPDEST PUSH2 0xC71 DUP2 DUP5 DUP5 PUSH2 0xC32 JUMP JUMPDEST POP POP POP JUMP JUMPDEST JUMPDEST DUP2 DUP2 LT ISZERO PUSH2 0xC94 JUMPI PUSH2 0xC89 PUSH0 DUP3 PUSH2 0xC5E JUMP JUMPDEST PUSH1 0x1 DUP2 ADD SWAP1 POP PUSH2 0xC77 JUMP JUMPDEST POP POP JUMP JUMPDEST PUSH1 0x1F DUP3 GT ISZERO PUSH2 0xCD9 JUMPI PUSH2 0xCAA DUP2 PUSH2 0xB81 JUMP JUMPDEST PUSH2 0xCB3 DUP5 PUSH2 0xB93 JUMP JUMPDEST DUP2 ADD PUSH1 0x20 DUP6 LT ISZERO PUSH2 0xCC2 JUMPI DUP2 SWAP1 POP JUMPDEST PUSH2 0xCD6 PUSH2 0xCCE DUP6 PUSH2 0xB93 JUMP JUMPDEST DUP4 ADD DUP3 PUSH2 0xC76 JUMP JUMPDEST POP POP JUMPDEST POP POP POP JUMP JUMPDEST PUSH0 DUP3 DUP3 SHR SWAP1 POP SWAP3 SWAP2 POP POP JUMP JUMPDEST PUSH0 PUSH2 0xCF9 PUSH0 NOT DUP5 PUSH1 0x8 MUL PUSH2 0xCDE JUMP JUMPDEST NOT DUP1 DUP4 AND SWAP2 POP POP SWAP3 SWAP2 POP POP JUMP JUMPDEST PUSH0 PUSH2 0xD11 DUP4 DUP4 PUSH2 0xCEA JUMP JUMPDEST SWAP2 POP DUP3 PUSH1 0x2 MUL DUP3 OR SWAP1 POP SWAP3 SWAP2 POP POP JUMP JUMPDEST PUSH2 0xD2A DUP3 PUSH2 0x69D JUMP JUMPDEST PUSH8 0xFFFFFFFFFFFFFFFF DUP2 GT ISZERO PUSH2 0xD43 JUMPI PUSH2 0xD42 PUSH2 0x783 JUMP JUMPDEST JUMPDEST PUSH2 0xD4D DUP3 SLOAD PUSH2 0x940 JUMP JUMPDEST PUSH2 0xD58 DUP3 DUP3 DUP6 PUSH2 0xC98 JUMP JUMPDEST PUSH0 PUSH1 0x20 SWAP1 POP PUSH1 0x1F DUP4 GT PUSH1 0x1 DUP2 EQ PUSH2 0xD89 JUMPI PUSH0 DUP5 ISZERO PUSH2 0xD77 JUMPI DUP3 DUP8 ADD MLOAD SWAP1 POP JUMPDEST PUSH2 0xD81 DUP6 DUP3 PUSH2 0xD06 JUMP JUMPDEST DUP7 SSTORE POP PUSH2 0xDE8 JUMP JUMPDEST PUSH1 0x1F NOT DUP5 AND PUSH2 0xD97 DUP7 PUSH2 0xB81 JUMP JUMPDEST PUSH0 JUMPDEST DUP3 DUP2 LT ISZERO PUSH2 0xDBE JUMPI DUP5 DUP10 ADD MLOAD DUP3 SSTORE PUSH1 0x1 DUP3 ADD SWAP2 POP PUSH1 0x20 DUP6 ADD SWAP5 POP PUSH1 0x20 DUP2 ADD SWAP1 POP PUSH2 0xD99 JUMP JUMPDEST DUP7 DUP4 LT ISZERO PUSH2 0xDDB JUMPI DUP5 DUP10 ADD MLOAD PUSH2 0xDD7 PUSH1 0x1F DUP10 AND DUP3 PUSH2 0xCEA JUMP JUMPDEST DUP4 SSTORE POP JUMPDEST PUSH1 0x1 PUSH1 0x2 DUP9 MUL ADD DUP9 SSTORE POP POP POP JUMPDEST POP POP POP POP POP POP JUMP JUMPDEST PUSH0 PUSH1 0x40 DUP3 ADD SWAP1 POP DUP2 DUP2 SUB PUSH0 DUP4 ADD MSTORE PUSH2 0xE08 DUP2 DUP6 PUSH2 0x6D5 JUMP JUMPDEST SWAP1 POP PUSH2 0xE17 PUSH1 0x20 DUP4 ADD DUP5 PUSH2 0x601 JUMP JUMPDEST SWAP4 SWAP3 POP POP POP JUMP INVALID LOG2 PUSH5 0x6970667358 0x22 SLT KECCAK256 0xCA 0xC4 DUP2 0xC6 ADDMOD 0x4E XOR RETF 0xAE PUSH14 0x4548E8275608E30CE4AF06E3CDDC 0xC9 DUP15 0xC9 0xBB NUMBER SIGNEXTEND 0x2B RETF PUSH5 0x736F6C6343 STOP ADDMOD 0x1E STOP CALLER "
				},
				"gasEstimates": {
					"creation": {
						"codeDepositCost": "733600",
						"executionCost": "25028",
						"totalCost": "758628"
					},
					"external": {
						"": "1764",
						"addStudent(uint256,string,uint256)": "infinite",
						"getStudent(uint256)": "infinite",
						"getStudentCount()": "2440",
						"owner()": "2551",
						"students(uint256)": "infinite"
					}
				},
				"methodIdentifiers": {
					"addStudent(uint256,string,uint256)": "c1bea1db",
					"getStudent(uint256)": "642f9163",
					"getStudentCount()": "41e0c407",
					"owner()": "8da5cb5b",
					"students(uint256)": "06ead22e"
				}
			},
			"storageLayout": {
				"storage": [
					{
						"astId": 3,
						"contract": "EVoting.sol:StudentDatabase",
						"label": "owner",
						"offset": 0,
						"slot": "0",
						"type": "t_address"
					},
					{
						"astId": 16,
						"contract": "EVoting.sol:StudentDatabase",
						"label": "students",
						"offset": 0,
						"slot": "1",
						"type": "t_array(t_struct(Student)11_storage)dyn_storage"
					},
					{
						"astId": 20,
						"contract": "EVoting.sol:StudentDatabase",
						"label": "studentIdToIndex",
						"offset": 0,
						"slot": "2",
						"type": "t_mapping(t_uint256,t_uint256)"
					}
				],
				"types": {
					"t_address": {
						"encoding": "inplace",
						"label": "address",
						"numberOfBytes": "20"
					},
					"t_array(t_struct(Student)11_storage)dyn_storage": {
						"base": "t_struct(Student)11_storage",
						"encoding": "dynamic_array",
						"label": "struct StudentDatabase.Student[]",
						"numberOfBytes": "32"
					},
					"t_mapping(t_uint256,t_uint256)": {
						"encoding": "mapping",
						"key": "t_uint256",
						"label": "mapping(uint256 => uint256)",
						"numberOfBytes": "32",
						"value": "t_uint256"
					},
					"t_string_storage": {
						"encoding": "bytes",
						"label": "string",
						"numberOfBytes": "32"
					},
					"t_struct(Student)11_storage": {
						"encoding": "inplace",
						"label": "struct StudentDatabase.Student",
						"members": [
							{
								"astId": 6,
								"contract": "EVoting.sol:StudentDatabase",
								"label": "studentId",
								"offset": 0,
								"slot": "0",
								"type": "t_uint256"
							},
							{
								"astId": 8,
								"contract": "EVoting.sol:StudentDatabase",
								"label": "name",
								"offset": 0,
								"slot": "1",
								"type": "t_string_storage"
							},
							{
								"astId": 10,
								"contract": "EVoting.sol:StudentDatabase",
								"label": "age",
								"offset": 0,
								"slot": "2",
								"type": "t_uint256"
							}
						],
						"numberOfBytes": "96"
					},
					"t_uint256": {
						"encoding": "inplace",
						"label": "uint256",
						"numberOfBytes": "32"
					}
				}
			},
			"userdoc": {
				"kind": "user",
				"methods": {},
				"version": 1
			}
		}
	}
}