{
	"student.sol": {
		"StudentDB": {
			"abi": [
				{
					"inputs": [],
					"name": "TotalStudents",
					"outputs": [
						{
							"internalType": "uint256",
							"name": "",
							"type": "uint256"
						}
					],
					"stateMutability": "view",
					"type": "function"
				},
				{
					"inputs": [
						{
							"internalType": "string",
							"name": "name",
							"type": "string"
						},
						{
							"internalType": "uint256",
							"name": "rollno",
							"type": "uint256"
						},
						{
							"internalType": "string",
							"name": "stuclass",
							"type": "string"
						}
					],
					"name": "addStudent",
					"outputs": [],
					"stateMutability": "nonpayable",
					"type": "function"
				},
				{
					"inputs": [
						{
							"internalType": "uint256",
							"name": "_id",
							"type": "uint256"
						}
					],
					"name": "getStudentByID",
					"outputs": [
						{
							"internalType": "string",
							"name": "name",
							"type": "string"
						},
						{
							"internalType": "uint256",
							"name": "rollno",
							"type": "uint256"
						},
						{
							"internalType": "string",
							"name": "stuclass",
							"type": "string"
						}
					],
					"stateMutability": "view",
					"type": "function"
				}
			],
			"devdoc": {
				"kind": "dev",
				"methods": {},
				"version": 1
			},
			"evm": {
				"assembly": "    /* \"student.sol\":66:775  contract StudentDB{... */\n  mstore(0x40, 0x80)\n  callvalue\n  dup1\n  iszero\n  tag_1\n  jumpi\n  revert(0x00, 0x00)\ntag_1:\n  pop\n  dataSize(sub_0)\n  dup1\n  dataOffset(sub_0)\n  0x00\n  codecopy\n  0x00\n  return\nstop\n\nsub_0: assembly {\n        /* \"student.sol\":66:775  contract StudentDB{... */\n      mstore(0x40, 0x80)\n      callvalue\n      dup1\n      iszero\n      tag_1\n      jumpi\n      revert(0x00, 0x00)\n    tag_1:\n      pop\n      jumpi(tag_2, lt(calldatasize, 0x04))\n      shr(0xe0, calldataload(0x00))\n      dup1\n      0x40ac2433\n      eq\n      tag_3\n      jumpi\n      dup1\n      0xd499b0d4\n      eq\n      tag_4\n      jumpi\n      dup1\n      0xed32a8a1\n      eq\n      tag_5\n      jumpi\n    tag_2:\n      revert(0x00, 0x00)\n        /* \"student.sol\":384:664  function getStudentByID(uint256 _id) public view returns(string memory name, uint256 rollno, string memory stuclass) {... */\n    tag_3:\n      tag_6\n      0x04\n      dup1\n      calldatasize\n      sub\n      dup2\n      add\n      swap1\n      tag_7\n      swap2\n      swap1\n      tag_8\n      jump\t// in\n    tag_7:\n      tag_9\n      jump\t// in\n    tag_6:\n      mload(0x40)\n      tag_10\n      swap4\n      swap3\n      swap2\n      swap1\n      tag_11\n      jump\t// in\n    tag_10:\n      mload(0x40)\n      dup1\n      swap2\n      sub\n      swap1\n      return\n        /* \"student.sol\":672:766  function TotalStudents() public view returns(uint256){... */\n    tag_4:\n      tag_12\n      tag_13\n      jump\t// in\n    tag_12:\n      mload(0x40)\n      tag_14\n      swap2\n      swap1\n      tag_15\n      jump\t// in\n    tag_14:\n      mload(0x40)\n      dup1\n      swap2\n      sub\n      swap1\n      return\n        /* \"student.sol\":229:376  function addStudent(string memory name,uint256 rollno,string memory stuclass) public{... */\n    tag_5:\n      tag_16\n      0x04\n      dup1\n      calldatasize\n      sub\n      dup2\n      add\n      swap1\n      tag_17\n      swap2\n      swap1\n      tag_18\n      jump\t// in\n    tag_17:\n      tag_19\n      jump\t// in\n    tag_16:\n      stop\n        /* \"student.sol\":384:664  function getStudentByID(uint256 _id) public view returns(string memory name, uint256 rollno, string memory stuclass) {... */\n    tag_9:\n        /* \"student.sol\":441:459  string memory name */\n      0x60\n        /* \"student.sol\":461:475  uint256 rollno */\n      0x00\n        /* \"student.sol\":477:499  string memory stuclass */\n      0x60\n        /* \"student.sol\":522:530  Students */\n      0x00\n        /* \"student.sol\":522:537  Students.length */\n      dup1\n      sload\n      swap1\n      pop\n        /* \"student.sol\":516:519  _id */\n      dup5\n        /* \"student.sol\":516:537  _id < Students.length */\n      lt\n        /* \"student.sol\":508:576  require(_id < Students.length, \"Student does not exist in Database\") */\n      tag_21\n      jumpi\n      mload(0x40)\n      0x08c379a000000000000000000000000000000000000000000000000000000000\n      dup2\n      mstore\n      0x04\n      add\n      tag_22\n      swap1\n      tag_23\n      jump\t// in\n    tag_22:\n      mload(0x40)\n      dup1\n      swap2\n      sub\n      swap1\n      revert\n    tag_21:\n        /* \"student.sol\":591:599  Students */\n      0x00\n        /* \"student.sol\":600:603  _id */\n      dup5\n        /* \"student.sol\":591:604  Students[_id] */\n      dup2\n      sload\n      dup2\n      lt\n      tag_24\n      jumpi\n      tag_25\n      tag_26\n      jump\t// in\n    tag_25:\n    tag_24:\n      swap1\n      0x00\n      mstore\n      keccak256(0x00, 0x20)\n      swap1\n      0x03\n      mul\n      add\n        /* \"student.sol\":591:609  Students[_id].name */\n      0x00\n      add\n        /* \"student.sol\":611:619  Students */\n      0x00\n        /* \"student.sol\":620:623  _id */\n      dup6\n        /* \"student.sol\":611:624  Students[_id] */\n      dup2\n      sload\n      dup2\n      lt\n      tag_28\n      jumpi\n      tag_29\n      tag_26\n      jump\t// in\n    tag_29:\n    tag_28:\n      swap1\n      0x00\n      mstore\n      keccak256(0x00, 0x20)\n      swap1\n      0x03\n      mul\n      add\n        /* \"student.sol\":611:631  Students[_id].rollno */\n      0x01\n      add\n      sload\n        /* \"student.sol\":633:641  Students */\n      0x00\n        /* \"student.sol\":642:645  _id */\n      dup7\n        /* \"student.sol\":633:646  Students[_id] */\n      dup2\n      sload\n      dup2\n      lt\n      tag_31\n      jumpi\n      tag_32\n      tag_26\n      jump\t// in\n    tag_32:\n    tag_31:\n      swap1\n      0x00\n      mstore\n      keccak256(0x00, 0x20)\n      swap1\n      0x03\n      mul\n      add\n        /* \"student.sol\":633:655  Students[_id].stuclass */\n      0x02\n      add\n        /* \"student.sol\":583:656  return (Students[_id].name, Students[_id].rollno, Students[_id].stuclass) */\n      dup3\n      dup1\n      sload\n      tag_34\n      swap1\n      tag_35\n      jump\t// in\n    tag_34:\n      dup1\n      0x1f\n      add\n      0x20\n      dup1\n      swap2\n      div\n      mul\n      0x20\n      add\n      mload(0x40)\n      swap1\n      dup2\n      add\n      0x40\n      mstore\n      dup1\n      swap3\n      swap2\n      swap1\n      dup2\n      dup2\n      mstore\n      0x20\n      add\n      dup3\n      dup1\n      sload\n      tag_36\n      swap1\n      tag_35\n      jump\t// in\n    tag_36:\n      dup1\n      iszero\n      tag_37\n      jumpi\n      dup1\n      0x1f\n      lt\n      tag_38\n      jumpi\n      0x0100\n      dup1\n      dup4\n      sload\n      div\n      mul\n      dup4\n      mstore\n      swap2\n      0x20\n      add\n      swap2\n      jump(tag_37)\n    tag_38:\n      dup3\n      add\n      swap2\n      swap1\n      0x00\n      mstore\n      keccak256(0x00, 0x20)\n      swap1\n    tag_39:\n      dup2\n      sload\n      dup2\n      mstore\n      swap1\n      0x01\n      add\n      swap1\n      0x20\n      add\n      dup1\n      dup4\n      gt\n      tag_39\n      jumpi\n      dup3\n      swap1\n      sub\n      0x1f\n      and\n      dup3\n      add\n      swap2\n    tag_37:\n      pop\n      pop\n      pop\n      pop\n      pop\n      swap3\n      pop\n      dup1\n      dup1\n      sload\n      tag_40\n      swap1\n      tag_35\n      jump\t// in\n    tag_40:\n      dup1\n      0x1f\n      add\n      0x20\n      dup1\n      swap2\n      div\n      mul\n      0x20\n      add\n      mload(0x40)\n      swap1\n      dup2\n      add\n      0x40\n      mstore\n      dup1\n      swap3\n      swap2\n      swap1\n      dup2\n      dup2\n      mstore\n      0x20\n      add\n      dup3\n      dup1\n      sload\n      tag_41\n      swap1\n      tag_35\n      jump\t// in\n    tag_41:\n      dup1\n      iszero\n      tag_42\n      jumpi\n      dup1\n      0x1f\n      lt\n      tag_43\n      jumpi\n      0x0100\n      dup1\n      dup4\n      sload\n      div\n      mul\n      dup4\n      mstore\n      swap2\n      0x20\n      add\n      swap2\n      jump(tag_42)\n    tag_43:\n      dup3\n      add\n      swap2\n      swap1\n      0x00\n      mstore\n      keccak256(0x00, 0x20)\n      swap1\n    tag_44:\n      dup2\n      sload\n      dup2\n      mstore\n      swap1\n      0x01\n      add\n      swap1\n      0x20\n      add\n      dup1\n      dup4\n      gt\n      tag_44\n      jumpi\n      dup3\n      swap1\n      sub\n      0x1f\n      and\n      dup3\n      add\n      swap2\n    tag_42:\n      pop\n      pop\n      pop\n      pop\n      pop\n      swap1\n      pop\n      swap3\n      pop\n      swap3\n      pop\n      swap3\n      pop\n        /* \"student.sol\":384:664  function getStudentByID(uint256 _id) public view returns(string memory name, uint256 rollno, string memory stuclass) {... */\n      swap2\n      swap4\n      swap1\n      swap3\n      pop\n      jump\t// out\n        /* \"student.sol\":672:766  function TotalStudents() public view returns(uint256){... */\n    tag_13:\n        /* \"student.sol\":717:724  uint256 */\n      0x00\n        /* \"student.sol\":743:751  Students */\n      0x00\n        /* \"student.sol\":743:758  Students.length */\n      dup1\n      sload\n      swap1\n      pop\n        /* \"student.sol\":736:758  return Students.length */\n      swap1\n      pop\n        /* \"student.sol\":672:766  function TotalStudents() public view returns(uint256){... */\n      swap1\n      jump\t// out\n        /* \"student.sol\":229:376  function addStudent(string memory name,uint256 rollno,string memory stuclass) public{... */\n    tag_19:\n        /* \"student.sol\":324:332  Students */\n      0x00\n        /* \"student.sol\":338:367  Student(name,rollno,stuclass) */\n      mload(0x40)\n      dup1\n      0x60\n      add\n      0x40\n      mstore\n      dup1\n        /* \"student.sol\":346:350  name */\n      dup6\n        /* \"student.sol\":338:367  Student(name,rollno,stuclass) */\n      dup2\n      mstore\n      0x20\n      add\n        /* \"student.sol\":351:357  rollno */\n      dup5\n        /* \"student.sol\":338:367  Student(name,rollno,stuclass) */\n      dup2\n      mstore\n      0x20\n      add\n        /* \"student.sol\":358:366  stuclass */\n      dup4\n        /* \"student.sol\":338:367  Student(name,rollno,stuclass) */\n      dup2\n      mstore\n      pop\n        /* \"student.sol\":324:368  Students.push(Student(name,rollno,stuclass)) */\n      swap1\n      dup1\n      0x01\n      dup2\n      sload\n      add\n      dup1\n      dup3\n      sstore\n      dup1\n      swap2\n      pop\n      pop\n      0x01\n      swap1\n      sub\n      swap1\n      0x00\n      mstore\n      keccak256(0x00, 0x20)\n      swap1\n      0x03\n      mul\n      add\n      0x00\n      swap1\n      swap2\n      swap1\n      swap2\n      swap1\n      swap2\n      pop\n      0x00\n      dup3\n      add\n      mload\n      dup2\n      0x00\n      add\n      swap1\n      dup2\n      tag_48\n      swap2\n      swap1\n      tag_49\n      jump\t// in\n    tag_48:\n      pop\n      0x20\n      dup3\n      add\n      mload\n      dup2\n      0x01\n      add\n      sstore\n      0x40\n      dup3\n      add\n      mload\n      dup2\n      0x02\n      add\n      swap1\n      dup2\n      tag_50\n      swap2\n      swap1\n      tag_49\n      jump\t// in\n    tag_50:\n      pop\n      pop\n      pop\n        /* \"student.sol\":229:376  function addStudent(string memory name,uint256 rollno,string memory stuclass) public{... */\n      pop\n      pop\n      pop\n      jump\t// out\n        /* \"#utility.yul\":7:82   */\n    tag_51:\n        /* \"#utility.yul\":40:46   */\n      0x00\n        /* \"#utility.yul\":73:75   */\n      0x40\n        /* \"#utility.yul\":67:76   */\n      mload\n        /* \"#utility.yul\":57:76   */\n      swap1\n      pop\n        /* \"#utility.yul\":7:82   */\n      swap1\n      jump\t// out\n        /* \"#utility.yul\":88:205   */\n    tag_52:\n        /* \"#utility.yul\":197:198   */\n      0x00\n        /* \"#utility.yul\":194:195   */\n      0x00\n        /* \"#utility.yul\":187:199   */\n      revert\n        /* \"#utility.yul\":211:328   */\n    tag_53:\n        /* \"#utility.yul\":320:321   */\n      0x00\n        /* \"#utility.yul\":317:318   */\n      0x00\n        /* \"#utility.yul\":310:322   */\n      revert\n        /* \"#utility.yul\":334:411   */\n    tag_54:\n        /* \"#utility.yul\":371:378   */\n      0x00\n        /* \"#utility.yul\":400:405   */\n      dup2\n        /* \"#utility.yul\":389:405   */\n      swap1\n      pop\n        /* \"#utility.yul\":334:411   */\n      swap2\n      swap1\n      pop\n      jump\t// out\n        /* \"#utility.yul\":417:539   */\n    tag_55:\n        /* \"#utility.yul\":490:514   */\n      tag_96\n        /* \"#utility.yul\":508:513   */\n      dup2\n        /* \"#utility.yul\":490:514   */\n      tag_54\n      jump\t// in\n    tag_96:\n        /* \"#utility.yul\":483:488   */\n      dup2\n        /* \"#utility.yul\":480:515   */\n      eq\n        /* \"#utility.yul\":470:533   */\n      tag_97\n      jumpi\n        /* \"#utility.yul\":529:530   */\n      0x00\n        /* \"#utility.yul\":526:527   */\n      0x00\n        /* \"#utility.yul\":519:531   */\n      revert\n        /* \"#utility.yul\":470:533   */\n    tag_97:\n        /* \"#utility.yul\":417:539   */\n      pop\n      jump\t// out\n        /* \"#utility.yul\":545:684   */\n    tag_56:\n        /* \"#utility.yul\":591:596   */\n      0x00\n        /* \"#utility.yul\":629:635   */\n      dup2\n        /* \"#utility.yul\":616:636   */\n      calldataload\n        /* \"#utility.yul\":607:636   */\n      swap1\n      pop\n        /* \"#utility.yul\":645:678   */\n      tag_99\n        /* \"#utility.yul\":672:677   */\n      dup2\n        /* \"#utility.yul\":645:678   */\n      tag_55\n      jump\t// in\n    tag_99:\n        /* \"#utility.yul\":545:684   */\n      swap3\n      swap2\n      pop\n      pop\n      jump\t// out\n        /* \"#utility.yul\":690:1019   */\n    tag_8:\n        /* \"#utility.yul\":749:755   */\n      0x00\n        /* \"#utility.yul\":798:800   */\n      0x20\n        /* \"#utility.yul\":786:795   */\n      dup3\n        /* \"#utility.yul\":777:784   */\n      dup5\n        /* \"#utility.yul\":773:796   */\n      sub\n        /* \"#utility.yul\":769:801   */\n      slt\n        /* \"#utility.yul\":766:885   */\n      iszero\n      tag_101\n      jumpi\n        /* \"#utility.yul\":804:883   */\n      tag_102\n      tag_52\n      jump\t// in\n    tag_102:\n        /* \"#utility.yul\":766:885   */\n    tag_101:\n        /* \"#utility.yul\":924:925   */\n      0x00\n        /* \"#utility.yul\":949:1002   */\n      tag_103\n        /* \"#utility.yul\":994:1001   */\n      dup5\n        /* \"#utility.yul\":985:991   */\n      dup3\n        /* \"#utility.yul\":974:983   */\n      dup6\n        /* \"#utility.yul\":970:992   */\n      add\n        /* \"#utility.yul\":949:1002   */\n      tag_56\n      jump\t// in\n    tag_103:\n        /* \"#utility.yul\":939:1002   */\n      swap2\n      pop\n        /* \"#utility.yul\":895:1012   */\n      pop\n        /* \"#utility.yul\":690:1019   */\n      swap3\n      swap2\n      pop\n      pop\n      jump\t// out\n        /* \"#utility.yul\":1025:1124   */\n    tag_57:\n        /* \"#utility.yul\":1077:1083   */\n      0x00\n        /* \"#utility.yul\":1111:1116   */\n      dup2\n        /* \"#utility.yul\":1105:1117   */\n      mload\n        /* \"#utility.yul\":1095:1117   */\n      swap1\n      pop\n        /* \"#utility.yul\":1025:1124   */\n      swap2\n      swap1\n      pop\n      jump\t// out\n        /* \"#utility.yul\":1130:1299   */\n    tag_58:\n        /* \"#utility.yul\":1214:1225   */\n      0x00\n        /* \"#utility.yul\":1248:1254   */\n      dup3\n        /* \"#utility.yul\":1243:1246   */\n      dup3\n        /* \"#utility.yul\":1236:1255   */\n      mstore\n        /* \"#utility.yul\":1288:1292   */\n      0x20\n        /* \"#utility.yul\":1283:1286   */\n      dup3\n        /* \"#utility.yul\":1279:1293   */\n      add\n        /* \"#utility.yul\":1264:1293   */\n      swap1\n      pop\n        /* \"#utility.yul\":1130:1299   */\n      swap3\n      swap2\n      pop\n      pop\n      jump\t// out\n        /* \"#utility.yul\":1305:1444   */\n    tag_59:\n        /* \"#utility.yul\":1394:1400   */\n      dup3\n        /* \"#utility.yul\":1389:1392   */\n      dup2\n        /* \"#utility.yul\":1384:1387   */\n      dup4\n        /* \"#utility.yul\":1378:1401   */\n      mcopy\n        /* \"#utility.yul\":1435:1436   */\n      0x00\n        /* \"#utility.yul\":1426:1432   */\n      dup4\n        /* \"#utility.yul\":1421:1424   */\n      dup4\n        /* \"#utility.yul\":1417:1433   */\n      add\n        /* \"#utility.yul\":1410:1437   */\n      mstore\n        /* \"#utility.yul\":1305:1444   */\n      pop\n      pop\n      pop\n      jump\t// out\n        /* \"#utility.yul\":1450:1552   */\n    tag_60:\n        /* \"#utility.yul\":1491:1497   */\n      0x00\n        /* \"#utility.yul\":1542:1544   */\n      0x1f\n        /* \"#utility.yul\":1538:1545   */\n      not\n        /* \"#utility.yul\":1533:1535   */\n      0x1f\n        /* \"#utility.yul\":1526:1531   */\n      dup4\n        /* \"#utility.yul\":1522:1536   */\n      add\n        /* \"#utility.yul\":1518:1546   */\n      and\n        /* \"#utility.yul\":1508:1546   */\n      swap1\n      pop\n        /* \"#utility.yul\":1450:1552   */\n      swap2\n      swap1\n      pop\n      jump\t// out\n        /* \"#utility.yul\":1558:1935   */\n    tag_61:\n        /* \"#utility.yul\":1646:1649   */\n      0x00\n        /* \"#utility.yul\":1674:1713   */\n      tag_109\n        /* \"#utility.yul\":1707:1712   */\n      dup3\n        /* \"#utility.yul\":1674:1713   */\n      tag_57\n      jump\t// in\n    tag_109:\n        /* \"#utility.yul\":1729:1800   */\n      tag_110\n        /* \"#utility.yul\":1793:1799   */\n      dup2\n        /* \"#utility.yul\":1788:1791   */\n      dup6\n        /* \"#utility.yul\":1729:1800   */\n      tag_58\n      jump\t// in\n    tag_110:\n        /* \"#utility.yul\":1722:1800   */\n      swap4\n      pop\n        /* \"#utility.yul\":1809:1874   */\n      tag_111\n        /* \"#utility.yul\":1867:1873   */\n      dup2\n        /* \"#utility.yul\":1862:1865   */\n      dup6\n        /* \"#utility.yul\":1855:1859   */\n      0x20\n        /* \"#utility.yul\":1848:1853   */\n      dup7\n        /* \"#utility.yul\":1844:1860   */\n      add\n        /* \"#utility.yul\":1809:1874   */\n      tag_59\n      jump\t// in\n    tag_111:\n        /* \"#utility.yul\":1899:1928   */\n      tag_112\n        /* \"#utility.yul\":1921:1927   */\n      dup2\n        /* \"#utility.yul\":1899:1928   */\n      tag_60\n      jump\t// in\n    tag_112:\n        /* \"#utility.yul\":1894:1897   */\n      dup5\n        /* \"#utility.yul\":1890:1929   */\n      add\n        /* \"#utility.yul\":1883:1929   */\n      swap2\n      pop\n        /* \"#utility.yul\":1650:1935   */\n      pop\n        /* \"#utility.yul\":1558:1935   */\n      swap3\n      swap2\n      pop\n      pop\n      jump\t// out\n        /* \"#utility.yul\":1941:2059   */\n    tag_62:\n        /* \"#utility.yul\":2028:2052   */\n      tag_114\n        /* \"#utility.yul\":2046:2051   */\n      dup2\n        /* \"#utility.yul\":2028:2052   */\n      tag_54\n      jump\t// in\n    tag_114:\n        /* \"#utility.yul\":2023:2026   */\n      dup3\n        /* \"#utility.yul\":2016:2053   */\n      mstore\n        /* \"#utility.yul\":1941:2059   */\n      pop\n      pop\n      jump\t// out\n        /* \"#utility.yul\":2065:2689   */\n    tag_11:\n        /* \"#utility.yul\":2254:2258   */\n      0x00\n        /* \"#utility.yul\":2292:2294   */\n      0x60\n        /* \"#utility.yul\":2281:2290   */\n      dup3\n        /* \"#utility.yul\":2277:2295   */\n      add\n        /* \"#utility.yul\":2269:2295   */\n      swap1\n      pop\n        /* \"#utility.yul\":2341:2350   */\n      dup2\n        /* \"#utility.yul\":2335:2339   */\n      dup2\n        /* \"#utility.yul\":2331:2351   */\n      sub\n        /* \"#utility.yul\":2327:2328   */\n      0x00\n        /* \"#utility.yul\":2316:2325   */\n      dup4\n        /* \"#utility.yul\":2312:2329   */\n      add\n        /* \"#utility.yul\":2305:2352   */\n      mstore\n        /* \"#utility.yul\":2369:2447   */\n      tag_116\n        /* \"#utility.yul\":2442:2446   */\n      dup2\n        /* \"#utility.yul\":2433:2439   */\n      dup7\n        /* \"#utility.yul\":2369:2447   */\n      tag_61\n      jump\t// in\n    tag_116:\n        /* \"#utility.yul\":2361:2447   */\n      swap1\n      pop\n        /* \"#utility.yul\":2457:2529   */\n      tag_117\n        /* \"#utility.yul\":2525:2527   */\n      0x20\n        /* \"#utility.yul\":2514:2523   */\n      dup4\n        /* \"#utility.yul\":2510:2528   */\n      add\n        /* \"#utility.yul\":2501:2507   */\n      dup6\n        /* \"#utility.yul\":2457:2529   */\n      tag_62\n      jump\t// in\n    tag_117:\n        /* \"#utility.yul\":2576:2585   */\n      dup2\n        /* \"#utility.yul\":2570:2574   */\n      dup2\n        /* \"#utility.yul\":2566:2586   */\n      sub\n        /* \"#utility.yul\":2561:2563   */\n      0x40\n        /* \"#utility.yul\":2550:2559   */\n      dup4\n        /* \"#utility.yul\":2546:2564   */\n      add\n        /* \"#utility.yul\":2539:2587   */\n      mstore\n        /* \"#utility.yul\":2604:2682   */\n      tag_118\n        /* \"#utility.yul\":2677:2681   */\n      dup2\n        /* \"#utility.yul\":2668:2674   */\n      dup5\n        /* \"#utility.yul\":2604:2682   */\n      tag_61\n      jump\t// in\n    tag_118:\n        /* \"#utility.yul\":2596:2682   */\n      swap1\n      pop\n        /* \"#utility.yul\":2065:2689   */\n      swap5\n      swap4\n      pop\n      pop\n      pop\n      pop\n      jump\t// out\n        /* \"#utility.yul\":2695:2917   */\n    tag_15:\n        /* \"#utility.yul\":2788:2792   */\n      0x00\n        /* \"#utility.yul\":2826:2828   */\n      0x20\n        /* \"#utility.yul\":2815:2824   */\n      dup3\n        /* \"#utility.yul\":2811:2829   */\n      add\n        /* \"#utility.yul\":2803:2829   */\n      swap1\n      pop\n        /* \"#utility.yul\":2839:2910   */\n      tag_120\n        /* \"#utility.yul\":2907:2908   */\n      0x00\n        /* \"#utility.yul\":2896:2905   */\n      dup4\n        /* \"#utility.yul\":2892:2909   */\n      add\n        /* \"#utility.yul\":2883:2889   */\n      dup5\n        /* \"#utility.yul\":2839:2910   */\n      tag_62\n      jump\t// in\n    tag_120:\n        /* \"#utility.yul\":2695:2917   */\n      swap3\n      swap2\n      pop\n      pop\n      jump\t// out\n        /* \"#utility.yul\":2923:3040   */\n    tag_63:\n        /* \"#utility.yul\":3032:3033   */\n      0x00\n        /* \"#utility.yul\":3029:3030   */\n      0x00\n        /* \"#utility.yul\":3022:3034   */\n      revert\n        /* \"#utility.yul\":3046:3163   */\n    tag_64:\n        /* \"#utility.yul\":3155:3156   */\n      0x00\n        /* \"#utility.yul\":3152:3153   */\n      0x00\n        /* \"#utility.yul\":3145:3157   */\n      revert\n        /* \"#utility.yul\":3169:3349   */\n    tag_65:\n        /* \"#utility.yul\":3217:3294   */\n      0x4e487b7100000000000000000000000000000000000000000000000000000000\n        /* \"#utility.yul\":3214:3215   */\n      0x00\n        /* \"#utility.yul\":3207:3295   */\n      mstore\n        /* \"#utility.yul\":3314:3318   */\n      0x41\n        /* \"#utility.yul\":3311:3312   */\n      0x04\n        /* \"#utility.yul\":3304:3319   */\n      mstore\n        /* \"#utility.yul\":3338:3342   */\n      0x24\n        /* \"#utility.yul\":3335:3336   */\n      0x00\n        /* \"#utility.yul\":3328:3343   */\n      revert\n        /* \"#utility.yul\":3355:3636   */\n    tag_66:\n        /* \"#utility.yul\":3438:3465   */\n      tag_125\n        /* \"#utility.yul\":3460:3464   */\n      dup3\n        /* \"#utility.yul\":3438:3465   */\n      tag_60\n      jump\t// in\n    tag_125:\n        /* \"#utility.yul\":3430:3436   */\n      dup2\n        /* \"#utility.yul\":3426:3466   */\n      add\n        /* \"#utility.yul\":3568:3574   */\n      dup2\n        /* \"#utility.yul\":3556:3566   */\n      dup2\n        /* \"#utility.yul\":3553:3575   */\n      lt\n        /* \"#utility.yul\":3532:3550   */\n      0xffffffffffffffff\n        /* \"#utility.yul\":3520:3530   */\n      dup3\n        /* \"#utility.yul\":3517:3551   */\n      gt\n        /* \"#utility.yul\":3514:3576   */\n      or\n        /* \"#utility.yul\":3511:3599   */\n      iszero\n      tag_126\n      jumpi\n        /* \"#utility.yul\":3579:3597   */\n      tag_127\n      tag_65\n      jump\t// in\n    tag_127:\n        /* \"#utility.yul\":3511:3599   */\n    tag_126:\n        /* \"#utility.yul\":3619:3629   */\n      dup1\n        /* \"#utility.yul\":3615:3617   */\n      0x40\n        /* \"#utility.yul\":3608:3630   */\n      mstore\n        /* \"#utility.yul\":3398:3636   */\n      pop\n        /* \"#utility.yul\":3355:3636   */\n      pop\n      pop\n      jump\t// out\n        /* \"#utility.yul\":3642:3771   */\n    tag_67:\n        /* \"#utility.yul\":3676:3682   */\n      0x00\n        /* \"#utility.yul\":3703:3723   */\n      tag_129\n      tag_51\n      jump\t// in\n    tag_129:\n        /* \"#utility.yul\":3693:3723   */\n      swap1\n      pop\n        /* \"#utility.yul\":3732:3765   */\n      tag_130\n        /* \"#utility.yul\":3760:3764   */\n      dup3\n        /* \"#utility.yul\":3752:3758   */\n      dup3\n        /* \"#utility.yul\":3732:3765   */\n      tag_66\n      jump\t// in\n    tag_130:\n        /* \"#utility.yul\":3642:3771   */\n      swap2\n      swap1\n      pop\n      jump\t// out\n        /* \"#utility.yul\":3777:4085   */\n    tag_68:\n        /* \"#utility.yul\":3839:3843   */\n      0x00\n        /* \"#utility.yul\":3929:3947   */\n      0xffffffffffffffff\n        /* \"#utility.yul\":3921:3927   */\n      dup3\n        /* \"#utility.yul\":3918:3948   */\n      gt\n        /* \"#utility.yul\":3915:3971   */\n      iszero\n      tag_132\n      jumpi\n        /* \"#utility.yul\":3951:3969   */\n      tag_133\n      tag_65\n      jump\t// in\n    tag_133:\n        /* \"#utility.yul\":3915:3971   */\n    tag_132:\n        /* \"#utility.yul\":3989:4018   */\n      tag_134\n        /* \"#utility.yul\":4011:4017   */\n      dup3\n        /* \"#utility.yul\":3989:4018   */\n      tag_60\n      jump\t// in\n    tag_134:\n        /* \"#utility.yul\":3981:4018   */\n      swap1\n      pop\n        /* \"#utility.yul\":4073:4077   */\n      0x20\n        /* \"#utility.yul\":4067:4071   */\n      dup2\n        /* \"#utility.yul\":4063:4078   */\n      add\n        /* \"#utility.yul\":4055:4078   */\n      swap1\n      pop\n        /* \"#utility.yul\":3777:4085   */\n      swap2\n      swap1\n      pop\n      jump\t// out\n        /* \"#utility.yul\":4091:4239   */\n    tag_69:\n        /* \"#utility.yul\":4189:4195   */\n      dup3\n        /* \"#utility.yul\":4184:4187   */\n      dup2\n        /* \"#utility.yul\":4179:4182   */\n      dup4\n        /* \"#utility.yul\":4166:4196   */\n      calldatacopy\n        /* \"#utility.yul\":4230:4231   */\n      0x00\n        /* \"#utility.yul\":4221:4227   */\n      dup4\n        /* \"#utility.yul\":4216:4219   */\n      dup4\n        /* \"#utility.yul\":4212:4228   */\n      add\n        /* \"#utility.yul\":4205:4232   */\n      mstore\n        /* \"#utility.yul\":4091:4239   */\n      pop\n      pop\n      pop\n      jump\t// out\n        /* \"#utility.yul\":4245:4670   */\n    tag_70:\n        /* \"#utility.yul\":4323:4328   */\n      0x00\n        /* \"#utility.yul\":4348:4414   */\n      tag_137\n        /* \"#utility.yul\":4364:4413   */\n      tag_138\n        /* \"#utility.yul\":4406:4412   */\n      dup5\n        /* \"#utility.yul\":4364:4413   */\n      tag_68\n      jump\t// in\n    tag_138:\n        /* \"#utility.yul\":4348:4414   */\n      tag_67\n      jump\t// in\n    tag_137:\n        /* \"#utility.yul\":4339:4414   */\n      swap1\n      pop\n        /* \"#utility.yul\":4437:4443   */\n      dup3\n        /* \"#utility.yul\":4430:4435   */\n      dup2\n        /* \"#utility.yul\":4423:4444   */\n      mstore\n        /* \"#utility.yul\":4475:4479   */\n      0x20\n        /* \"#utility.yul\":4468:4473   */\n      dup2\n        /* \"#utility.yul\":4464:4480   */\n      add\n        /* \"#utility.yul\":4513:4516   */\n      dup5\n        /* \"#utility.yul\":4504:4510   */\n      dup5\n        /* \"#utility.yul\":4499:4502   */\n      dup5\n        /* \"#utility.yul\":4495:4511   */\n      add\n        /* \"#utility.yul\":4492:4517   */\n      gt\n        /* \"#utility.yul\":4489:4601   */\n      iszero\n      tag_139\n      jumpi\n        /* \"#utility.yul\":4520:4599   */\n      tag_140\n      tag_64\n      jump\t// in\n    tag_140:\n        /* \"#utility.yul\":4489:4601   */\n    tag_139:\n        /* \"#utility.yul\":4610:4664   */\n      tag_141\n        /* \"#utility.yul\":4657:4663   */\n      dup5\n        /* \"#utility.yul\":4652:4655   */\n      dup3\n        /* \"#utility.yul\":4647:4650   */\n      dup6\n        /* \"#utility.yul\":4610:4664   */\n      tag_69\n      jump\t// in\n    tag_141:\n        /* \"#utility.yul\":4329:4670   */\n      pop\n        /* \"#utility.yul\":4245:4670   */\n      swap4\n      swap3\n      pop\n      pop\n      pop\n      jump\t// out\n        /* \"#utility.yul\":4690:5030   */\n    tag_71:\n        /* \"#utility.yul\":4746:4751   */\n      0x00\n        /* \"#utility.yul\":4795:4798   */\n      dup3\n        /* \"#utility.yul\":4788:4792   */\n      0x1f\n        /* \"#utility.yul\":4780:4786   */\n      dup4\n        /* \"#utility.yul\":4776:4793   */\n      add\n        /* \"#utility.yul\":4772:4799   */\n      slt\n        /* \"#utility.yul\":4762:4884   */\n      tag_143\n      jumpi\n        /* \"#utility.yul\":4803:4882   */\n      tag_144\n      tag_63\n      jump\t// in\n    tag_144:\n        /* \"#utility.yul\":4762:4884   */\n    tag_143:\n        /* \"#utility.yul\":4920:4926   */\n      dup2\n        /* \"#utility.yul\":4907:4927   */\n      calldataload\n        /* \"#utility.yul\":4945:5024   */\n      tag_145\n        /* \"#utility.yul\":5020:5023   */\n      dup5\n        /* \"#utility.yul\":5012:5018   */\n      dup3\n        /* \"#utility.yul\":5005:5009   */\n      0x20\n        /* \"#utility.yul\":4997:5003   */\n      dup7\n        /* \"#utility.yul\":4993:5010   */\n      add\n        /* \"#utility.yul\":4945:5024   */\n      tag_70\n      jump\t// in\n    tag_145:\n        /* \"#utility.yul\":4936:5024   */\n      swap2\n      pop\n        /* \"#utility.yul\":4752:5030   */\n      pop\n        /* \"#utility.yul\":4690:5030   */\n      swap3\n      swap2\n      pop\n      pop\n      jump\t// out\n        /* \"#utility.yul\":5036:6015   */\n    tag_18:\n        /* \"#utility.yul\":5133:5139   */\n      0x00\n        /* \"#utility.yul\":5141:5147   */\n      0x00\n        /* \"#utility.yul\":5149:5155   */\n      0x00\n        /* \"#utility.yul\":5198:5200   */\n      0x60\n        /* \"#utility.yul\":5186:5195   */\n      dup5\n        /* \"#utility.yul\":5177:5184   */\n      dup7\n        /* \"#utility.yul\":5173:5196   */\n      sub\n        /* \"#utility.yul\":5169:5201   */\n      slt\n        /* \"#utility.yul\":5166:5285   */\n      iszero\n      tag_147\n      jumpi\n        /* \"#utility.yul\":5204:5283   */\n      tag_148\n      tag_52\n      jump\t// in\n    tag_148:\n        /* \"#utility.yul\":5166:5285   */\n    tag_147:\n        /* \"#utility.yul\":5352:5353   */\n      0x00\n        /* \"#utility.yul\":5341:5350   */\n      dup5\n        /* \"#utility.yul\":5337:5354   */\n      add\n        /* \"#utility.yul\":5324:5355   */\n      calldataload\n        /* \"#utility.yul\":5382:5400   */\n      0xffffffffffffffff\n        /* \"#utility.yul\":5374:5380   */\n      dup2\n        /* \"#utility.yul\":5371:5401   */\n      gt\n        /* \"#utility.yul\":5368:5485   */\n      iszero\n      tag_149\n      jumpi\n        /* \"#utility.yul\":5404:5483   */\n      tag_150\n      tag_53\n      jump\t// in\n    tag_150:\n        /* \"#utility.yul\":5368:5485   */\n    tag_149:\n        /* \"#utility.yul\":5509:5572   */\n      tag_151\n        /* \"#utility.yul\":5564:5571   */\n      dup7\n        /* \"#utility.yul\":5555:5561   */\n      dup3\n        /* \"#utility.yul\":5544:5553   */\n      dup8\n        /* \"#utility.yul\":5540:5562   */\n      add\n        /* \"#utility.yul\":5509:5572   */\n      tag_71\n      jump\t// in\n    tag_151:\n        /* \"#utility.yul\":5499:5572   */\n      swap4\n      pop\n        /* \"#utility.yul\":5295:5582   */\n      pop\n        /* \"#utility.yul\":5621:5623   */\n      0x20\n        /* \"#utility.yul\":5647:5700   */\n      tag_152\n        /* \"#utility.yul\":5692:5699   */\n      dup7\n        /* \"#utility.yul\":5683:5689   */\n      dup3\n        /* \"#utility.yul\":5672:5681   */\n      dup8\n        /* \"#utility.yul\":5668:5690   */\n      add\n        /* \"#utility.yul\":5647:5700   */\n      tag_56\n      jump\t// in\n    tag_152:\n        /* \"#utility.yul\":5637:5700   */\n      swap3\n      pop\n        /* \"#utility.yul\":5592:5710   */\n      pop\n        /* \"#utility.yul\":5777:5779   */\n      0x40\n        /* \"#utility.yul\":5766:5775   */\n      dup5\n        /* \"#utility.yul\":5762:5780   */\n      add\n        /* \"#utility.yul\":5749:5781   */\n      calldataload\n        /* \"#utility.yul\":5808:5826   */\n      0xffffffffffffffff\n        /* \"#utility.yul\":5800:5806   */\n      dup2\n        /* \"#utility.yul\":5797:5827   */\n      gt\n        /* \"#utility.yul\":5794:5911   */\n      iszero\n      tag_153\n      jumpi\n        /* \"#utility.yul\":5830:5909   */\n      tag_154\n      tag_53\n      jump\t// in\n    tag_154:\n        /* \"#utility.yul\":5794:5911   */\n    tag_153:\n        /* \"#utility.yul\":5935:5998   */\n      tag_155\n        /* \"#utility.yul\":5990:5997   */\n      dup7\n        /* \"#utility.yul\":5981:5987   */\n      dup3\n        /* \"#utility.yul\":5970:5979   */\n      dup8\n        /* \"#utility.yul\":5966:5988   */\n      add\n        /* \"#utility.yul\":5935:5998   */\n      tag_71\n      jump\t// in\n    tag_155:\n        /* \"#utility.yul\":5925:5998   */\n      swap2\n      pop\n        /* \"#utility.yul\":5720:6008   */\n      pop\n        /* \"#utility.yul\":5036:6015   */\n      swap3\n      pop\n      swap3\n      pop\n      swap3\n      jump\t// out\n        /* \"#utility.yul\":6021:6242   */\n    tag_72:\n        /* \"#utility.yul\":6161:6195   */\n      0x53747564656e7420646f6573206e6f7420657869737420696e20446174616261\n        /* \"#utility.yul\":6157:6158   */\n      0x00\n        /* \"#utility.yul\":6149:6155   */\n      dup3\n        /* \"#utility.yul\":6145:6159   */\n      add\n        /* \"#utility.yul\":6138:6196   */\n      mstore\n        /* \"#utility.yul\":6230:6234   */\n      0x7365000000000000000000000000000000000000000000000000000000000000\n        /* \"#utility.yul\":6225:6227   */\n      0x20\n        /* \"#utility.yul\":6217:6223   */\n      dup3\n        /* \"#utility.yul\":6213:6228   */\n      add\n        /* \"#utility.yul\":6206:6235   */\n      mstore\n        /* \"#utility.yul\":6021:6242   */\n      pop\n      jump\t// out\n        /* \"#utility.yul\":6248:6614   */\n    tag_73:\n        /* \"#utility.yul\":6390:6393   */\n      0x00\n        /* \"#utility.yul\":6411:6478   */\n      tag_158\n        /* \"#utility.yul\":6475:6477   */\n      0x22\n        /* \"#utility.yul\":6470:6473   */\n      dup4\n        /* \"#utility.yul\":6411:6478   */\n      tag_58\n      jump\t// in\n    tag_158:\n        /* \"#utility.yul\":6404:6478   */\n      swap2\n      pop\n        /* \"#utility.yul\":6487:6580   */\n      tag_159\n        /* \"#utility.yul\":6576:6579   */\n      dup3\n        /* \"#utility.yul\":6487:6580   */\n      tag_72\n      jump\t// in\n    tag_159:\n        /* \"#utility.yul\":6605:6607   */\n      0x40\n        /* \"#utility.yul\":6600:6603   */\n      dup3\n        /* \"#utility.yul\":6596:6608   */\n      add\n        /* \"#utility.yul\":6589:6608   */\n      swap1\n      pop\n        /* \"#utility.yul\":6248:6614   */\n      swap2\n      swap1\n      pop\n      jump\t// out\n        /* \"#utility.yul\":6620:7039   */\n    tag_23:\n        /* \"#utility.yul\":6786:6790   */\n      0x00\n        /* \"#utility.yul\":6824:6826   */\n      0x20\n        /* \"#utility.yul\":6813:6822   */\n      dup3\n        /* \"#utility.yul\":6809:6827   */\n      add\n        /* \"#utility.yul\":6801:6827   */\n      swap1\n      pop\n        /* \"#utility.yul\":6873:6882   */\n      dup2\n        /* \"#utility.yul\":6867:6871   */\n      dup2\n        /* \"#utility.yul\":6863:6883   */\n      sub\n        /* \"#utility.yul\":6859:6860   */\n      0x00\n        /* \"#utility.yul\":6848:6857   */\n      dup4\n        /* \"#utility.yul\":6844:6861   */\n      add\n        /* \"#utility.yul\":6837:6884   */\n      mstore\n        /* \"#utility.yul\":6901:7032   */\n      tag_161\n        /* \"#utility.yul\":7027:7031   */\n      dup2\n        /* \"#utility.yul\":6901:7032   */\n      tag_73\n      jump\t// in\n    tag_161:\n        /* \"#utility.yul\":6893:7032   */\n      swap1\n      pop\n        /* \"#utility.yul\":6620:7039   */\n      swap2\n      swap1\n      pop\n      jump\t// out\n        /* \"#utility.yul\":7045:7225   */\n    tag_26:\n        /* \"#utility.yul\":7093:7170   */\n      0x4e487b7100000000000000000000000000000000000000000000000000000000\n        /* \"#utility.yul\":7090:7091   */\n      0x00\n        /* \"#utility.yul\":7083:7171   */\n      mstore\n        /* \"#utility.yul\":7190:7194   */\n      0x32\n        /* \"#utility.yul\":7187:7188   */\n      0x04\n        /* \"#utility.yul\":7180:7195   */\n      mstore\n        /* \"#utility.yul\":7214:7218   */\n      0x24\n        /* \"#utility.yul\":7211:7212   */\n      0x00\n        /* \"#utility.yul\":7204:7219   */\n      revert\n        /* \"#utility.yul\":7231:7411   */\n    tag_74:\n        /* \"#utility.yul\":7279:7356   */\n      0x4e487b7100000000000000000000000000000000000000000000000000000000\n        /* \"#utility.yul\":7276:7277   */\n      0x00\n        /* \"#utility.yul\":7269:7357   */\n      mstore\n        /* \"#utility.yul\":7376:7380   */\n      0x22\n        /* \"#utility.yul\":7373:7374   */\n      0x04\n        /* \"#utility.yul\":7366:7381   */\n      mstore\n        /* \"#utility.yul\":7400:7404   */\n      0x24\n        /* \"#utility.yul\":7397:7398   */\n      0x00\n        /* \"#utility.yul\":7390:7405   */\n      revert\n        /* \"#utility.yul\":7417:7737   */\n    tag_35:\n        /* \"#utility.yul\":7461:7467   */\n      0x00\n        /* \"#utility.yul\":7498:7499   */\n      0x02\n        /* \"#utility.yul\":7492:7496   */\n      dup3\n        /* \"#utility.yul\":7488:7500   */\n      div\n        /* \"#utility.yul\":7478:7500   */\n      swap1\n      pop\n        /* \"#utility.yul\":7545:7546   */\n      0x01\n        /* \"#utility.yul\":7539:7543   */\n      dup3\n        /* \"#utility.yul\":7535:7547   */\n      and\n        /* \"#utility.yul\":7566:7584   */\n      dup1\n        /* \"#utility.yul\":7556:7637   */\n      tag_165\n      jumpi\n        /* \"#utility.yul\":7622:7626   */\n      0x7f\n        /* \"#utility.yul\":7614:7620   */\n      dup3\n        /* \"#utility.yul\":7610:7627   */\n      and\n        /* \"#utility.yul\":7600:7627   */\n      swap2\n      pop\n        /* \"#utility.yul\":7556:7637   */\n    tag_165:\n        /* \"#utility.yul\":7684:7686   */\n      0x20\n        /* \"#utility.yul\":7676:7682   */\n      dup3\n        /* \"#utility.yul\":7673:7687   */\n      lt\n        /* \"#utility.yul\":7653:7671   */\n      dup2\n        /* \"#utility.yul\":7650:7688   */\n      sub\n        /* \"#utility.yul\":7647:7731   */\n      tag_166\n      jumpi\n        /* \"#utility.yul\":7703:7721   */\n      tag_167\n      tag_74\n      jump\t// in\n    tag_167:\n        /* \"#utility.yul\":7647:7731   */\n    tag_166:\n        /* \"#utility.yul\":7468:7737   */\n      pop\n        /* \"#utility.yul\":7417:7737   */\n      swap2\n      swap1\n      pop\n      jump\t// out\n        /* \"#utility.yul\":7743:7884   */\n    tag_75:\n        /* \"#utility.yul\":7792:7796   */\n      0x00\n        /* \"#utility.yul\":7815:7818   */\n      dup2\n        /* \"#utility.yul\":7807:7818   */\n      swap1\n      pop\n        /* \"#utility.yul\":7838:7841   */\n      dup2\n        /* \"#utility.yul\":7835:7836   */\n      0x00\n        /* \"#utility.yul\":7828:7842   */\n      mstore\n        /* \"#utility.yul\":7872:7876   */\n      0x20\n        /* \"#utility.yul\":7869:7870   */\n      0x00\n        /* \"#utility.yul\":7859:7877   */\n      keccak256\n        /* \"#utility.yul\":7851:7877   */\n      swap1\n      pop\n        /* \"#utility.yul\":7743:7884   */\n      swap2\n      swap1\n      pop\n      jump\t// out\n        /* \"#utility.yul\":7890:7983   */\n    tag_76:\n        /* \"#utility.yul\":7927:7933   */\n      0x00\n        /* \"#utility.yul\":7974:7976   */\n      0x20\n        /* \"#utility.yul\":7969:7971   */\n      0x1f\n        /* \"#utility.yul\":7962:7967   */\n      dup4\n        /* \"#utility.yul\":7958:7972   */\n      add\n        /* \"#utility.yul\":7954:7977   */\n      div\n        /* \"#utility.yul\":7944:7977   */\n      swap1\n      pop\n        /* \"#utility.yul\":7890:7983   */\n      swap2\n      swap1\n      pop\n      jump\t// out\n        /* \"#utility.yul\":7989:8096   */\n    tag_77:\n        /* \"#utility.yul\":8033:8041   */\n      0x00\n        /* \"#utility.yul\":8083:8088   */\n      dup3\n        /* \"#utility.yul\":8077:8081   */\n      dup3\n        /* \"#utility.yul\":8073:8089   */\n      shl\n        /* \"#utility.yul\":8052:8089   */\n      swap1\n      pop\n        /* \"#utility.yul\":7989:8096   */\n      swap3\n      swap2\n      pop\n      pop\n      jump\t// out\n        /* \"#utility.yul\":8102:8495   */\n    tag_78:\n        /* \"#utility.yul\":8171:8177   */\n      0x00\n        /* \"#utility.yul\":8221:8222   */\n      0x08\n        /* \"#utility.yul\":8209:8219   */\n      dup4\n        /* \"#utility.yul\":8205:8223   */\n      mul\n        /* \"#utility.yul\":8244:8341   */\n      tag_172\n        /* \"#utility.yul\":8274:8340   */\n      0xffffffffffffffffffffffffffffffffffffffffffffffffffffffffffffffff\n        /* \"#utility.yul\":8263:8272   */\n      dup3\n        /* \"#utility.yul\":8244:8341   */\n      tag_77\n      jump\t// in\n    tag_172:\n        /* \"#utility.yul\":8362:8401   */\n      tag_173\n        /* \"#utility.yul\":8392:8400   */\n      dup7\n        /* \"#utility.yul\":8381:8390   */\n      dup4\n        /* \"#utility.yul\":8362:8401   */\n      tag_77\n      jump\t// in\n    tag_173:\n        /* \"#utility.yul\":8350:8401   */\n      swap6\n      pop\n        /* \"#utility.yul\":8434:8438   */\n      dup1\n        /* \"#utility.yul\":8430:8439   */\n      not\n        /* \"#utility.yul\":8423:8428   */\n      dup5\n        /* \"#utility.yul\":8419:8440   */\n      and\n        /* \"#utility.yul\":8410:8440   */\n      swap4\n      pop\n        /* \"#utility.yul\":8483:8487   */\n      dup1\n        /* \"#utility.yul\":8473:8481   */\n      dup7\n        /* \"#utility.yul\":8469:8488   */\n      and\n        /* \"#utility.yul\":8462:8467   */\n      dup5\n        /* \"#utility.yul\":8459:8489   */\n      or\n        /* \"#utility.yul\":8449:8489   */\n      swap3\n      pop\n        /* \"#utility.yul\":8178:8495   */\n      pop\n      pop\n        /* \"#utility.yul\":8102:8495   */\n      swap4\n      swap3\n      pop\n      pop\n      pop\n      jump\t// out\n        /* \"#utility.yul\":8501:8561   */\n    tag_79:\n        /* \"#utility.yul\":8529:8532   */\n      0x00\n        /* \"#utility.yul\":8550:8555   */\n      dup2\n        /* \"#utility.yul\":8543:8555   */\n      swap1\n      pop\n        /* \"#utility.yul\":8501:8561   */\n      swap2\n      swap1\n      pop\n      jump\t// out\n        /* \"#utility.yul\":8567:8709   */\n    tag_80:\n        /* \"#utility.yul\":8617:8626   */\n      0x00\n        /* \"#utility.yul\":8650:8703   */\n      tag_176\n        /* \"#utility.yul\":8668:8702   */\n      tag_177\n        /* \"#utility.yul\":8677:8701   */\n      tag_178\n        /* \"#utility.yul\":8695:8700   */\n      dup5\n        /* \"#utility.yul\":8677:8701   */\n      tag_54\n      jump\t// in\n    tag_178:\n        /* \"#utility.yul\":8668:8702   */\n      tag_79\n      jump\t// in\n    tag_177:\n        /* \"#utility.yul\":8650:8703   */\n      tag_54\n      jump\t// in\n    tag_176:\n        /* \"#utility.yul\":8637:8703   */\n      swap1\n      pop\n        /* \"#utility.yul\":8567:8709   */\n      swap2\n      swap1\n      pop\n      jump\t// out\n        /* \"#utility.yul\":8715:8790   */\n    tag_81:\n        /* \"#utility.yul\":8758:8761   */\n      0x00\n        /* \"#utility.yul\":8779:8784   */\n      dup2\n        /* \"#utility.yul\":8772:8784   */\n      swap1\n      pop\n        /* \"#utility.yul\":8715:8790   */\n      swap2\n      swap1\n      pop\n      jump\t// out\n        /* \"#utility.yul\":8796:9065   */\n    tag_82:\n        /* \"#utility.yul\":8906:8945   */\n      tag_181\n        /* \"#utility.yul\":8937:8944   */\n      dup4\n        /* \"#utility.yul\":8906:8945   */\n      tag_80\n      jump\t// in\n    tag_181:\n        /* \"#utility.yul\":8967:9058   */\n      tag_182\n        /* \"#utility.yul\":9016:9057   */\n      tag_183\n        /* \"#utility.yul\":9040:9056   */\n      dup3\n        /* \"#utility.yul\":9016:9057   */\n      tag_81\n      jump\t// in\n    tag_183:\n        /* \"#utility.yul\":9008:9014   */\n      dup5\n        /* \"#utility.yul\":9001:9005   */\n      dup5\n        /* \"#utility.yul\":8995:9006   */\n      sload\n        /* \"#utility.yul\":8967:9058   */\n      tag_78\n      jump\t// in\n    tag_182:\n        /* \"#utility.yul\":8961:8965   */\n      dup3\n        /* \"#utility.yul\":8954:9059   */\n      sstore\n        /* \"#utility.yul\":8872:9065   */\n      pop\n        /* \"#utility.yul\":8796:9065   */\n      pop\n      pop\n      pop\n      jump\t// out\n        /* \"#utility.yul\":9071:9144   */\n    tag_83:\n        /* \"#utility.yul\":9116:9119   */\n      0x00\n        /* \"#utility.yul\":9137:9138   */\n      0x00\n        /* \"#utility.yul\":9130:9138   */\n      swap1\n      pop\n        /* \"#utility.yul\":9071:9144   */\n      swap1\n      jump\t// out\n        /* \"#utility.yul\":9150:9339   */\n    tag_84:\n        /* \"#utility.yul\":9227:9259   */\n      tag_186\n      tag_83\n      jump\t// in\n    tag_186:\n        /* \"#utility.yul\":9268:9333   */\n      tag_187\n        /* \"#utility.yul\":9326:9332   */\n      dup2\n        /* \"#utility.yul\":9318:9324   */\n      dup5\n        /* \"#utility.yul\":9312:9316   */\n      dup5\n        /* \"#utility.yul\":9268:9333   */\n      tag_82\n      jump\t// in\n    tag_187:\n        /* \"#utility.yul\":9203:9339   */\n      pop\n        /* \"#utility.yul\":9150:9339   */\n      pop\n      pop\n      jump\t// out\n        /* \"#utility.yul\":9345:9531   */\n    tag_85:\n        /* \"#utility.yul\":9405:9525   */\n    tag_189:\n        /* \"#utility.yul\":9422:9425   */\n      dup2\n        /* \"#utility.yul\":9415:9420   */\n      dup2\n        /* \"#utility.yul\":9412:9426   */\n      lt\n        /* \"#utility.yul\":9405:9525   */\n      iszero\n      tag_191\n      jumpi\n        /* \"#utility.yul\":9476:9515   */\n      tag_192\n        /* \"#utility.yul\":9513:9514   */\n      0x00\n        /* \"#utility.yul\":9506:9511   */\n      dup3\n        /* \"#utility.yul\":9476:9515   */\n      tag_84\n      jump\t// in\n    tag_192:\n        /* \"#utility.yul\":9449:9450   */\n      0x01\n        /* \"#utility.yul\":9442:9447   */\n      dup2\n        /* \"#utility.yul\":9438:9451   */\n      add\n        /* \"#utility.yul\":9429:9451   */\n      swap1\n      pop\n        /* \"#utility.yul\":9405:9525   */\n      jump(tag_189)\n    tag_191:\n        /* \"#utility.yul\":9345:9531   */\n      pop\n      pop\n      jump\t// out\n        /* \"#utility.yul\":9537:10080   */\n    tag_86:\n        /* \"#utility.yul\":9638:9640   */\n      0x1f\n        /* \"#utility.yul\":9633:9636   */\n      dup3\n        /* \"#utility.yul\":9630:9641   */\n      gt\n        /* \"#utility.yul\":9627:10073   */\n      iszero\n      tag_194\n      jumpi\n        /* \"#utility.yul\":9672:9710   */\n      tag_195\n        /* \"#utility.yul\":9704:9709   */\n      dup2\n        /* \"#utility.yul\":9672:9710   */\n      tag_75\n      jump\t// in\n    tag_195:\n        /* \"#utility.yul\":9756:9785   */\n      tag_196\n        /* \"#utility.yul\":9774:9784   */\n      dup5\n        /* \"#utility.yul\":9756:9785   */\n      tag_76\n      jump\t// in\n    tag_196:\n        /* \"#utility.yul\":9746:9754   */\n      dup2\n        /* \"#utility.yul\":9742:9786   */\n      add\n        /* \"#utility.yul\":9939:9941   */\n      0x20\n        /* \"#utility.yul\":9927:9937   */\n      dup6\n        /* \"#utility.yul\":9924:9942   */\n      lt\n        /* \"#utility.yul\":9921:9970   */\n      iszero\n      tag_197\n      jumpi\n        /* \"#utility.yul\":9960:9968   */\n      dup2\n        /* \"#utility.yul\":9945:9968   */\n      swap1\n      pop\n        /* \"#utility.yul\":9921:9970   */\n    tag_197:\n        /* \"#utility.yul\":9983:10063   */\n      tag_198\n        /* \"#utility.yul\":10039:10061   */\n      tag_199\n        /* \"#utility.yul\":10057:10060   */\n      dup6\n        /* \"#utility.yul\":10039:10061   */\n      tag_76\n      jump\t// in\n    tag_199:\n        /* \"#utility.yul\":10029:10037   */\n      dup4\n        /* \"#utility.yul\":10025:10062   */\n      add\n        /* \"#utility.yul\":10012:10023   */\n      dup3\n        /* \"#utility.yul\":9983:10063   */\n      tag_85\n      jump\t// in\n    tag_198:\n        /* \"#utility.yul\":9642:10073   */\n      pop\n      pop\n        /* \"#utility.yul\":9627:10073   */\n    tag_194:\n        /* \"#utility.yul\":9537:10080   */\n      pop\n      pop\n      pop\n      jump\t// out\n        /* \"#utility.yul\":10086:10203   */\n    tag_87:\n        /* \"#utility.yul\":10140:10148   */\n      0x00\n        /* \"#utility.yul\":10190:10195   */\n      dup3\n        /* \"#utility.yul\":10184:10188   */\n      dup3\n        /* \"#utility.yul\":10180:10196   */\n      shr\n        /* \"#utility.yul\":10159:10196   */\n      swap1\n      pop\n        /* \"#utility.yul\":10086:10203   */\n      swap3\n      swap2\n      pop\n      pop\n      jump\t// out\n        /* \"#utility.yul\":10209:10378   */\n    tag_88:\n        /* \"#utility.yul\":10253:10259   */\n      0x00\n        /* \"#utility.yul\":10286:10337   */\n      tag_202\n        /* \"#utility.yul\":10334:10335   */\n      0x00\n        /* \"#utility.yul\":10330:10336   */\n      not\n        /* \"#utility.yul\":10322:10327   */\n      dup5\n        /* \"#utility.yul\":10319:10320   */\n      0x08\n        /* \"#utility.yul\":10315:10328   */\n      mul\n        /* \"#utility.yul\":10286:10337   */\n      tag_87\n      jump\t// in\n    tag_202:\n        /* \"#utility.yul\":10282:10338   */\n      not\n        /* \"#utility.yul\":10367:10371   */\n      dup1\n        /* \"#utility.yul\":10361:10365   */\n      dup4\n        /* \"#utility.yul\":10357:10372   */\n      and\n        /* \"#utility.yul\":10347:10372   */\n      swap2\n      pop\n        /* \"#utility.yul\":10260:10378   */\n      pop\n        /* \"#utility.yul\":10209:10378   */\n      swap3\n      swap2\n      pop\n      pop\n      jump\t// out\n        /* \"#utility.yul\":10383:10678   */\n    tag_89:\n        /* \"#utility.yul\":10459:10463   */\n      0x00\n        /* \"#utility.yul\":10605:10634   */\n      tag_204\n        /* \"#utility.yul\":10630:10633   */\n      dup4\n        /* \"#utility.yul\":10624:10628   */\n      dup4\n        /* \"#utility.yul\":10605:10634   */\n      tag_88\n      jump\t// in\n    tag_204:\n        /* \"#utility.yul\":10597:10634   */\n      swap2\n      pop\n        /* \"#utility.yul\":10667:10670   */\n      dup3\n        /* \"#utility.yul\":10664:10665   */\n      0x02\n        /* \"#utility.yul\":10660:10671   */\n      mul\n        /* \"#utility.yul\":10654:10658   */\n      dup3\n        /* \"#utility.yul\":10651:10672   */\n      or\n        /* \"#utility.yul\":10643:10672   */\n      swap1\n      pop\n        /* \"#utility.yul\":10383:10678   */\n      swap3\n      swap2\n      pop\n      pop\n      jump\t// out\n        /* \"#utility.yul\":10683:12078   */\n    tag_49:\n        /* \"#utility.yul\":10800:10837   */\n      tag_206\n        /* \"#utility.yul\":10833:10836   */\n      dup3\n        /* \"#utility.yul\":10800:10837   */\n      tag_57\n      jump\t// in\n    tag_206:\n        /* \"#utility.yul\":10902:10920   */\n      0xffffffffffffffff\n        /* \"#utility.yul\":10894:10900   */\n      dup2\n        /* \"#utility.yul\":10891:10921   */\n      gt\n        /* \"#utility.yul\":10888:10944   */\n      iszero\n      tag_207\n      jumpi\n        /* \"#utility.yul\":10924:10942   */\n      tag_208\n      tag_65\n      jump\t// in\n    tag_208:\n        /* \"#utility.yul\":10888:10944   */\n    tag_207:\n        /* \"#utility.yul\":10968:11006   */\n      tag_209\n        /* \"#utility.yul\":11000:11004   */\n      dup3\n        /* \"#utility.yul\":10994:11005   */\n      sload\n        /* \"#utility.yul\":10968:11006   */\n      tag_35\n      jump\t// in\n    tag_209:\n        /* \"#utility.yul\":11053:11120   */\n      tag_210\n        /* \"#utility.yul\":11113:11119   */\n      dup3\n        /* \"#utility.yul\":11105:11111   */\n      dup3\n        /* \"#utility.yul\":11099:11103   */\n      dup6\n        /* \"#utility.yul\":11053:11120   */\n      tag_86\n      jump\t// in\n    tag_210:\n        /* \"#utility.yul\":11147:11148   */\n      0x00\n        /* \"#utility.yul\":11171:11175   */\n      0x20\n        /* \"#utility.yul\":11158:11175   */\n      swap1\n      pop\n        /* \"#utility.yul\":11203:11205   */\n      0x1f\n        /* \"#utility.yul\":11195:11201   */\n      dup4\n        /* \"#utility.yul\":11192:11206   */\n      gt\n        /* \"#utility.yul\":11220:11221   */\n      0x01\n        /* \"#utility.yul\":11215:11833   */\n      dup2\n      eq\n      tag_212\n      jumpi\n        /* \"#utility.yul\":11877:11878   */\n      0x00\n        /* \"#utility.yul\":11894:11900   */\n      dup5\n        /* \"#utility.yul\":11891:11968   */\n      iszero\n      tag_213\n      jumpi\n        /* \"#utility.yul\":11943:11952   */\n      dup3\n        /* \"#utility.yul\":11938:11941   */\n      dup8\n        /* \"#utility.yul\":11934:11953   */\n      add\n        /* \"#utility.yul\":11928:11954   */\n      mload\n        /* \"#utility.yul\":11919:11954   */\n      swap1\n      pop\n        /* \"#utility.yul\":11891:11968   */\n    tag_213:\n        /* \"#utility.yul\":11994:12061   */\n      tag_214\n        /* \"#utility.yul\":12054:12060   */\n      dup6\n        /* \"#utility.yul\":12047:12052   */\n      dup3\n        /* \"#utility.yul\":11994:12061   */\n      tag_89\n      jump\t// in\n    tag_214:\n        /* \"#utility.yul\":11988:11992   */\n      dup7\n        /* \"#utility.yul\":11981:12062   */\n      sstore\n        /* \"#utility.yul\":11850:12072   */\n      pop\n        /* \"#utility.yul\":11185:12072   */\n      jump(tag_211)\n        /* \"#utility.yul\":11215:11833   */\n    tag_212:\n        /* \"#utility.yul\":11267:11271   */\n      0x1f\n        /* \"#utility.yul\":11263:11272   */\n      not\n        /* \"#utility.yul\":11255:11261   */\n      dup5\n        /* \"#utility.yul\":11251:11273   */\n      and\n        /* \"#utility.yul\":11301:11338   */\n      tag_215\n        /* \"#utility.yul\":11333:11337   */\n      dup7\n        /* \"#utility.yul\":11301:11338   */\n      tag_75\n      jump\t// in\n    tag_215:\n        /* \"#utility.yul\":11360:11361   */\n      0x00\n        /* \"#utility.yul\":11374:11582   */\n    tag_216:\n        /* \"#utility.yul\":11388:11395   */\n      dup3\n        /* \"#utility.yul\":11385:11386   */\n      dup2\n        /* \"#utility.yul\":11382:11396   */\n      lt\n        /* \"#utility.yul\":11374:11582   */\n      iszero\n      tag_218\n      jumpi\n        /* \"#utility.yul\":11467:11476   */\n      dup5\n        /* \"#utility.yul\":11462:11465   */\n      dup10\n        /* \"#utility.yul\":11458:11477   */\n      add\n        /* \"#utility.yul\":11452:11478   */\n      mload\n        /* \"#utility.yul\":11444:11450   */\n      dup3\n        /* \"#utility.yul\":11437:11479   */\n      sstore\n        /* \"#utility.yul\":11518:11519   */\n      0x01\n        /* \"#utility.yul\":11510:11516   */\n      dup3\n        /* \"#utility.yul\":11506:11520   */\n      add\n        /* \"#utility.yul\":11496:11520   */\n      swap2\n      pop\n        /* \"#utility.yul\":11565:11567   */\n      0x20\n        /* \"#utility.yul\":11554:11563   */\n      dup6\n        /* \"#utility.yul\":11550:11568   */\n      add\n        /* \"#utility.yul\":11537:11568   */\n      swap5\n      pop\n        /* \"#utility.yul\":11411:11415   */\n      0x20\n        /* \"#utility.yul\":11408:11409   */\n      dup2\n        /* \"#utility.yul\":11404:11416   */\n      add\n        /* \"#utility.yul\":11399:11416   */\n      swap1\n      pop\n        /* \"#utility.yul\":11374:11582   */\n      jump(tag_216)\n    tag_218:\n        /* \"#utility.yul\":11610:11616   */\n      dup7\n        /* \"#utility.yul\":11601:11608   */\n      dup4\n        /* \"#utility.yul\":11598:11617   */\n      lt\n        /* \"#utility.yul\":11595:11774   */\n      iszero\n      tag_219\n      jumpi\n        /* \"#utility.yul\":11668:11677   */\n      dup5\n        /* \"#utility.yul\":11663:11666   */\n      dup10\n        /* \"#utility.yul\":11659:11678   */\n      add\n        /* \"#utility.yul\":11653:11679   */\n      mload\n        /* \"#utility.yul\":11711:11759   */\n      tag_220\n        /* \"#utility.yul\":11753:11757   */\n      0x1f\n        /* \"#utility.yul\":11745:11751   */\n      dup10\n        /* \"#utility.yul\":11741:11758   */\n      and\n        /* \"#utility.yul\":11730:11739   */\n      dup3\n        /* \"#utility.yul\":11711:11759   */\n      tag_88\n      jump\t// in\n    tag_220:\n        /* \"#utility.yul\":11703:11709   */\n      dup4\n        /* \"#utility.yul\":11696:11760   */\n      sstore\n        /* \"#utility.yul\":11618:11774   */\n      pop\n        /* \"#utility.yul\":11595:11774   */\n    tag_219:\n        /* \"#utility.yul\":11820:11821   */\n      0x01\n        /* \"#utility.yul\":11816:11817   */\n      0x02\n        /* \"#utility.yul\":11808:11814   */\n      dup9\n        /* \"#utility.yul\":11804:11818   */\n      mul\n        /* \"#utility.yul\":11800:11822   */\n      add\n        /* \"#utility.yul\":11794:11798   */\n      dup9\n        /* \"#utility.yul\":11787:11823   */\n      sstore\n        /* \"#utility.yul\":11222:11833   */\n      pop\n      pop\n      pop\n        /* \"#utility.yul\":11185:12072   */\n    tag_211:\n      pop\n        /* \"#utility.yul\":10775:12078   */\n      pop\n      pop\n      pop\n        /* \"#utility.yul\":10683:12078   */\n      pop\n      pop\n      jump\t// out\n\n    auxdata: 0xa2646970667358221220c2b064a2443e26efa0755d136883873ec23ea7a30a63a3a074b8ec319d15517c64736f6c634300081e0033\n}\n",
				"bytecode": {
					"linkReferences": {},
					"object": "6080604052348015600e575f5ffd5b506109c48061001c5f395ff3fe608060405234801561000f575f5ffd5b506004361061003f575f3560e01c806340ac243314610043578063d499b0d414610075578063ed32a8a114610093575b5f5ffd5b61005d6004803603810190610058919061034d565b6100af565b60405161006c939291906103f7565b60405180910390f35b61007d610281565b60405161008a919061043a565b60405180910390f35b6100ad60048036038101906100a8919061057f565b61028c565b005b60605f60605f8054905084106100fa576040517f08c379a00000000000000000000000000000000000000000000000000000000081526004016100f190610677565b60405180910390fd5b5f848154811061010d5761010c610695565b5b905f5260205f2090600302015f015f858154811061012e5761012d610695565b5b905f5260205f209060030201600101545f868154811061015157610150610695565b5b905f5260205f20906003020160020182805461016c906106ef565b80601f0160208091040260200160405190810160405280929190818152602001828054610198906106ef565b80156101e35780601f106101ba576101008083540402835291602001916101e3565b820191905f5260205f20905b8154815290600101906020018083116101c657829003601f168201915b505050505092508080546101f6906106ef565b80601f0160208091040260200160405190810160405280929190818152602001828054610222906106ef565b801561026d5780601f106102445761010080835404028352916020019161026d565b820191905f5260205f20905b81548152906001019060200180831161025057829003601f168201915b505050505090509250925092509193909250565b5f5f80549050905090565b5f604051806060016040528085815260200184815260200183815250908060018154018082558091505060019003905f5260205f2090600302015f909190919091505f820151815f0190816102e191906108bf565b5060208201518160010155604082015181600201908161030191906108bf565b505050505050565b5f604051905090565b5f5ffd5b5f5ffd5b5f819050919050565b61032c8161031a565b8114610336575f5ffd5b50565b5f8135905061034781610323565b92915050565b5f6020828403121561036257610361610312565b5b5f61036f84828501610339565b91505092915050565b5f81519050919050565b5f82825260208201905092915050565b8281835e5f83830152505050565b5f601f19601f8301169050919050565b5f6103ba82610378565b6103c48185610382565b93506103d4818560208601610392565b6103dd816103a0565b840191505092915050565b6103f18161031a565b82525050565b5f6060820190508181035f83015261040f81866103b0565b905061041e60208301856103e8565b818103604083015261043081846103b0565b9050949350505050565b5f60208201905061044d5f8301846103e8565b92915050565b5f5ffd5b5f5ffd5b7f4e487b71000000000000000000000000000000000000000000000000000000005f52604160045260245ffd5b610491826103a0565b810181811067ffffffffffffffff821117156104b0576104af61045b565b5b80604052505050565b5f6104c2610309565b90506104ce8282610488565b919050565b5f67ffffffffffffffff8211156104ed576104ec61045b565b5b6104f6826103a0565b9050602081019050919050565b828183375f83830152505050565b5f61052361051e846104d3565b6104b9565b90508281526020810184848401111561053f5761053e610457565b5b61054a848285610503565b509392505050565b5f82601f83011261056657610565610453565b5b8135610576848260208601610511565b91505092915050565b5f5f5f6060848603121561059657610595610312565b5b5f84013567ffffffffffffffff8111156105b3576105b2610316565b5b6105bf86828701610552565b93505060206105d086828701610339565b925050604084013567ffffffffffffffff8111156105f1576105f0610316565b5b6105fd86828701610552565b9150509250925092565b7f53747564656e7420646f6573206e6f7420657869737420696e204461746162615f8201527f7365000000000000000000000000000000000000000000000000000000000000602082015250565b5f610661602283610382565b915061066c82610607565b604082019050919050565b5f6020820190508181035f83015261068e81610655565b9050919050565b7f4e487b71000000000000000000000000000000000000000000000000000000005f52603260045260245ffd5b7f4e487b71000000000000000000000000000000000000000000000000000000005f52602260045260245ffd5b5f600282049050600182168061070657607f821691505b602082108103610719576107186106c2565b5b50919050565b5f819050815f5260205f209050919050565b5f6020601f8301049050919050565b5f82821b905092915050565b5f6008830261077b7fffffffffffffffffffffffffffffffffffffffffffffffffffffffffffffffff82610740565b6107858683610740565b95508019841693508086168417925050509392505050565b5f819050919050565b5f6107c06107bb6107b68461031a565b61079d565b61031a565b9050919050565b5f819050919050565b6107d9836107a6565b6107ed6107e5826107c7565b84845461074c565b825550505050565b5f5f905090565b6108046107f5565b61080f8184846107d0565b505050565b5b81811015610832576108275f826107fc565b600181019050610815565b5050565b601f821115610877576108488161071f565b61085184610731565b81016020851015610860578190505b61087461086c85610731565b830182610814565b50505b505050565b5f82821c905092915050565b5f6108975f198460080261087c565b1980831691505092915050565b5f6108af8383610888565b9150826002028217905092915050565b6108c882610378565b67ffffffffffffffff8111156108e1576108e061045b565b5b6108eb82546106ef565b6108f6828285610836565b5f60209050601f831160018114610927575f8415610915578287015190505b61091f85826108a4565b865550610986565b601f1984166109358661071f565b5f5b8281101561095c57848901518255600182019150602085019450602081019050610937565b868310156109795784890151610975601f891682610888565b8355505b6001600288020188555050505b50505050505056fea2646970667358221220c2b064a2443e26efa0755d136883873ec23ea7a30a63a3a074b8ec319d15517c64736f6c634300081e0033",
					"opcodes": "PUSH1 0x80 PUSH1 0x40 MSTORE CALLVALUE DUP1 ISZERO PUSH1 0xE JUMPI PUSH0 PUSH0 REVERT JUMPDEST POP PUSH2 0x9C4 DUP1 PUSH2 0x1C PUSH0 CODECOPY PUSH0 RETURN INVALID PUSH1 0x80 PUSH1 0x40 MSTORE CALLVALUE DUP1 ISZERO PUSH2 0xF JUMPI PUSH0 PUSH0 REVERT JUMPDEST POP PUSH1 0x4 CALLDATASIZE LT PUSH2 0x3F JUMPI PUSH0 CALLDATALOAD PUSH1 0xE0 SHR DUP1 PUSH4 0x40AC2433 EQ PUSH2 0x43 JUMPI DUP1 PUSH4 0xD499B0D4 EQ PUSH2 0x75 JUMPI DUP1 PUSH4 0xED32A8A1 EQ PUSH2 0x93 JUMPI JUMPDEST PUSH0 PUSH0 REVERT JUMPDEST PUSH2 0x5D PUSH1 0x4 DUP1 CALLDATASIZE SUB DUP2 ADD SWAP1 PUSH2 0x58 SWAP2 SWAP1 PUSH2 0x34D JUMP JUMPDEST PUSH2 0xAF JUMP JUMPDEST PUSH1 0x40 MLOAD PUSH2 0x6C SWAP4 SWAP3 SWAP2 SWAP1 PUSH2 0x3F7 JUMP JUMPDEST PUSH1 0x40 MLOAD DUP1 SWAP2 SUB SWAP1 RETURN JUMPDEST PUSH2 0x7D PUSH2 0x281 JUMP JUMPDEST PUSH1 0x40 MLOAD PUSH2 0x8A SWAP2 SWAP1 PUSH2 0x43A JUMP JUMPDEST PUSH1 0x40 MLOAD DUP1 SWAP2 SUB SWAP1 RETURN JUMPDEST PUSH2 0xAD PUSH1 0x4 DUP1 CALLDATASIZE SUB DUP2 ADD SWAP1 PUSH2 0xA8 SWAP2 SWAP1 PUSH2 0x57F JUMP JUMPDEST PUSH2 0x28C JUMP JUMPDEST STOP JUMPDEST PUSH1 0x60 PUSH0 PUSH1 0x60 PUSH0 DUP1 SLOAD SWAP1 POP DUP5 LT PUSH2 0xFA JUMPI PUSH1 0x40 MLOAD PUSH32 0x8C379A000000000000000000000000000000000000000000000000000000000 DUP2 MSTORE PUSH1 0x4 ADD PUSH2 0xF1 SWAP1 PUSH2 0x677 JUMP JUMPDEST PUSH1 0x40 MLOAD DUP1 SWAP2 SUB SWAP1 REVERT JUMPDEST PUSH0 DUP5 DUP2 SLOAD DUP2 LT PUSH2 0x10D JUMPI PUSH2 0x10C PUSH2 0x695 JUMP JUMPDEST JUMPDEST SWAP1 PUSH0 MSTORE PUSH1 0x20 PUSH0 KECCAK256 SWAP1 PUSH1 0x3 MUL ADD PUSH0 ADD PUSH0 DUP6 DUP2 SLOAD DUP2 LT PUSH2 0x12E JUMPI PUSH2 0x12D PUSH2 0x695 JUMP JUMPDEST JUMPDEST SWAP1 PUSH0 MSTORE PUSH1 0x20 PUSH0 KECCAK256 SWAP1 PUSH1 0x3 MUL ADD PUSH1 0x1 ADD SLOAD PUSH0 DUP7 DUP2 SLOAD DUP2 LT PUSH2 0x151 JUMPI PUSH2 0x150 PUSH2 0x695 JUMP JUMPDEST JUMPDEST SWAP1 PUSH0 MSTORE PUSH1 0x20 PUSH0 KECCAK256 SWAP1 PUSH1 0x3 MUL ADD PUSH1 0x2 ADD DUP3 DUP1 SLOAD PUSH2 0x16C SWAP1 PUSH2 0x6EF JUMP JUMPDEST DUP1 PUSH1 0x1F ADD PUSH1 0x20 DUP1 SWAP2 DIV MUL PUSH1 0x20 ADD PUSH1 0x40 MLOAD SWAP1 DUP2 ADD PUSH1 0x40 MSTORE DUP1 SWAP3 SWAP2 SWAP1 DUP2 DUP2 MSTORE PUSH1 0x20 ADD DUP3 DUP1 SLOAD PUSH2 0x198 SWAP1 PUSH2 0x6EF JUMP JUMPDEST DUP1 ISZERO PUSH2 0x1E3 JUMPI DUP1 PUSH1 0x1F LT PUSH2 0x1BA JUMPI PUSH2 0x100 DUP1 DUP4 SLOAD DIV MUL DUP4 MSTORE SWAP2 PUSH1 0x20 ADD SWAP2 PUSH2 0x1E3 JUMP JUMPDEST DUP3 ADD SWAP2 SWAP1 PUSH0 MSTORE PUSH1 0x20 PUSH0 KECCAK256 SWAP1 JUMPDEST DUP2 SLOAD DUP2 MSTORE SWAP1 PUSH1 0x1 ADD SWAP1 PUSH1 0x20 ADD DUP1 DUP4 GT PUSH2 0x1C6 JUMPI DUP3 SWAP1 SUB PUSH1 0x1F AND DUP3 ADD SWAP2 JUMPDEST POP POP POP POP POP SWAP3 POP DUP1 DUP1 SLOAD PUSH2 0x1F6 SWAP1 PUSH2 0x6EF JUMP JUMPDEST DUP1 PUSH1 0x1F ADD PUSH1 0x20 DUP1 SWAP2 DIV MUL PUSH1 0x20 ADD PUSH1 0x40 MLOAD SWAP1 DUP2 ADD PUSH1 0x40 MSTORE DUP1 SWAP3 SWAP2 SWAP1 DUP2 DUP2 MSTORE PUSH1 0x20 ADD DUP3 DUP1 SLOAD PUSH2 0x222 SWAP1 PUSH2 0x6EF JUMP JUMPDEST DUP1 ISZERO PUSH2 0x26D JUMPI DUP1 PUSH1 0x1F LT PUSH2 0x244 JUMPI PUSH2 0x100 DUP1 DUP4 SLOAD DIV MUL DUP4 MSTORE SWAP2 PUSH1 0x20 ADD SWAP2 PUSH2 0x26D JUMP JUMPDEST DUP3 ADD SWAP2 SWAP1 PUSH0 MSTORE PUSH1 0x20 PUSH0 KECCAK256 SWAP1 JUMPDEST DUP2 SLOAD DUP2 MSTORE SWAP1 PUSH1 0x1 ADD SWAP1 PUSH1 0x20 ADD DUP1 DUP4 GT PUSH2 0x250 JUMPI DUP3 SWAP1 SUB PUSH1 0x1F AND DUP3 ADD SWAP2 JUMPDEST POP POP POP POP POP SWAP1 POP SWAP3 POP SWAP3 POP SWAP3 POP SWAP2 SWAP4 SWAP1 SWAP3 POP JUMP JUMPDEST PUSH0 PUSH0 DUP1 SLOAD SWAP1 POP SWAP1 POP SWAP1 JUMP JUMPDEST PUSH0 PUSH1 0x40 MLOAD DUP1 PUSH1 0x60 ADD PUSH1 0x40 MSTORE DUP1 DUP6 DUP2 MSTORE PUSH1 0x20 ADD DUP5 DUP2 MSTORE PUSH1 0x20 ADD DUP4 DUP2 MSTORE POP SWAP1 DUP1 PUSH1 0x1 DUP2 SLOAD ADD DUP1 DUP3 SSTORE DUP1 SWAP2 POP POP PUSH1 0x1 SWAP1 SUB SWAP1 PUSH0 MSTORE PUSH1 0x20 PUSH0 KECCAK256 SWAP1 PUSH1 0x3 MUL ADD PUSH0 SWAP1 SWAP2 SWAP1 SWAP2 SWAP1 SWAP2 POP PUSH0 DUP3 ADD MLOAD DUP2 PUSH0 ADD SWAP1 DUP2 PUSH2 0x2E1 SWAP2 SWAP1 PUSH2 0x8BF JUMP JUMPDEST POP PUSH1 0x20 DUP3 ADD MLOAD DUP2 PUSH1 0x1 ADD SSTORE PUSH1 0x40 DUP3 ADD MLOAD DUP2 PUSH1 0x2 ADD SWAP1 DUP2 PUSH2 0x301 SWAP2 SWAP1 PUSH2 0x8BF JUMP JUMPDEST POP POP POP POP POP POP JUMP JUMPDEST PUSH0 PUSH1 0x40 MLOAD SWAP1 POP SWAP1 JUMP JUMPDEST PUSH0 PUSH0 REVERT JUMPDEST PUSH0 PUSH0 REVERT JUMPDEST PUSH0 DUP2 SWAP1 POP SWAP2 SWAP1 POP JUMP JUMPDEST PUSH2 0x32C DUP2 PUSH2 0x31A JUMP JUMPDEST DUP2 EQ PUSH2 0x336 JUMPI PUSH0 PUSH0 REVERT JUMPDEST POP JUMP JUMPDEST PUSH0 DUP2 CALLDATALOAD SWAP1 POP PUSH2 0x347 DUP2 PUSH2 0x323 JUMP JUMPDEST SWAP3 SWAP2 POP POP JUMP JUMPDEST PUSH0 PUSH1 0x20 DUP3 DUP5 SUB SLT ISZERO PUSH2 0x362 JUMPI PUSH2 0x361 PUSH2 0x312 JUMP JUMPDEST JUMPDEST PUSH0 PUSH2 0x36F DUP5 DUP3 DUP6 ADD PUSH2 0x339 JUMP JUMPDEST SWAP2 POP POP SWAP3 SWAP2 POP POP JUMP JUMPDEST PUSH0 DUP2 MLOAD SWAP1 POP SWAP2 SWAP1 POP JUMP JUMPDEST PUSH0 DUP3 DUP3 MSTORE PUSH1 0x20 DUP3 ADD SWAP1 POP SWAP3 SWAP2 POP POP JUMP JUMPDEST DUP3 DUP2 DUP4 MCOPY PUSH0 DUP4 DUP4 ADD MSTORE POP POP POP JUMP JUMPDEST PUSH0 PUSH1 0x1F NOT PUSH1 0x1F DUP4 ADD AND SWAP1 POP SWAP2 SWAP1 POP JUMP JUMPDEST PUSH0 PUSH2 0x3BA DUP3 PUSH2 0x378 JUMP JUMPDEST PUSH2 0x3C4 DUP2 DUP6 PUSH2 0x382 JUMP JUMPDEST SWAP4 POP PUSH2 0x3D4 DUP2 DUP6 PUSH1 0x20 DUP7 ADD PUSH2 0x392 JUMP JUMPDEST PUSH2 0x3DD DUP2 PUSH2 0x3A0 JUMP JUMPDEST DUP5 ADD SWAP2 POP POP SWAP3 SWAP2 POP POP JUMP JUMPDEST PUSH2 0x3F1 DUP2 PUSH2 0x31A JUMP JUMPDEST DUP3 MSTORE POP POP JUMP JUMPDEST PUSH0 PUSH1 0x60 DUP3 ADD SWAP1 POP DUP2 DUP2 SUB PUSH0 DUP4 ADD MSTORE PUSH2 0x40F DUP2 DUP7 PUSH2 0x3B0 JUMP JUMPDEST SWAP1 POP PUSH2 0x41E PUSH1 0x20 DUP4 ADD DUP6 PUSH2 0x3E8 JUMP JUMPDEST DUP2 DUP2 SUB PUSH1 0x40 DUP4 ADD MSTORE PUSH2 0x430 DUP2 DUP5 PUSH2 0x3B0 JUMP JUMPDEST SWAP1 POP SWAP5 SWAP4 POP POP POP POP JUMP JUMPDEST PUSH0 PUSH1 0x20 DUP3 ADD SWAP1 POP PUSH2 0x44D PUSH0 DUP4 ADD DUP5 PUSH2 0x3E8 JUMP JUMPDEST SWAP3 SWAP2 POP POP JUMP JUMPDEST PUSH0 PUSH0 REVERT JUMPDEST PUSH0 PUSH0 REVERT JUMPDEST PUSH32 0x4E487B7100000000000000000000000000000000000000000000000000000000 PUSH0 MSTORE PUSH1 0x41 PUSH1 0x4 MSTORE PUSH1 0x24 PUSH0 REVERT JUMPDEST PUSH2 0x491 DUP3 PUSH2 0x3A0 JUMP JUMPDEST DUP2 ADD DUP2 DUP2 LT PUSH8 0xFFFFFFFFFFFFFFFF DUP3 GT OR ISZERO PUSH2 0x4B0 JUMPI PUSH2 0x4AF PUSH2 0x45B JUMP JUMPDEST JUMPDEST DUP1 PUSH1 0x40 MSTORE POP POP POP JUMP JUMPDEST PUSH0 PUSH2 0x4C2 PUSH2 0x309 JUMP JUMPDEST SWAP1 POP PUSH2 0x4CE DUP3 DUP3 PUSH2 0x488 JUMP JUMPDEST SWAP2 SWAP1 POP JUMP JUMPDEST PUSH0 PUSH8 0xFFFFFFFFFFFFFFFF DUP3 GT ISZERO PUSH2 0x4ED JUMPI PUSH2 0x4EC PUSH2 0x45B JUMP JUMPDEST JUMPDEST PUSH2 0x4F6 DUP3 PUSH2 0x3A0 JUMP JUMPDEST SWAP1 POP PUSH1 0x20 DUP2 ADD SWAP1 POP SWAP2 SWAP1 POP JUMP JUMPDEST DUP3 DUP2 DUP4 CALLDATACOPY PUSH0 DUP4 DUP4 ADD MSTORE POP POP POP JUMP JUMPDEST PUSH0 PUSH2 0x523 PUSH2 0x51E DUP5 PUSH2 0x4D3 JUMP JUMPDEST PUSH2 0x4B9 JUMP JUMPDEST SWAP1 POP DUP3 DUP2 MSTORE PUSH1 0x20 DUP2 ADD DUP5 DUP5 DUP5 ADD GT ISZERO PUSH2 0x53F JUMPI PUSH2 0x53E PUSH2 0x457 JUMP JUMPDEST JUMPDEST PUSH2 0x54A DUP5 DUP3 DUP6 PUSH2 0x503 JUMP JUMPDEST POP SWAP4 SWAP3 POP POP POP JUMP JUMPDEST PUSH0 DUP3 PUSH1 0x1F DUP4 ADD SLT PUSH2 0x566 JUMPI PUSH2 0x565 PUSH2 0x453 JUMP JUMPDEST JUMPDEST DUP2 CALLDATALOAD PUSH2 0x576 DUP5 DUP3 PUSH1 0x20 DUP7 ADD PUSH2 0x511 JUMP JUMPDEST SWAP2 POP POP SWAP3 SWAP2 POP POP JUMP JUMPDEST PUSH0 PUSH0 PUSH0 PUSH1 0x60 DUP5 DUP7 SUB SLT ISZERO PUSH2 0x596 JUMPI PUSH2 0x595 PUSH2 0x312 JUMP JUMPDEST JUMPDEST PUSH0 DUP5 ADD CALLDATALOAD PUSH8 0xFFFFFFFFFFFFFFFF DUP2 GT ISZERO PUSH2 0x5B3 JUMPI PUSH2 0x5B2 PUSH2 0x316 JUMP JUMPDEST JUMPDEST PUSH2 0x5BF DUP7 DUP3 DUP8 ADD PUSH2 0x552 JUMP JUMPDEST SWAP4 POP POP PUSH1 0x20 PUSH2 0x5D0 DUP7 DUP3 DUP8 ADD PUSH2 0x339 JUMP JUMPDEST SWAP3 POP POP PUSH1 0x40 DUP5 ADD CALLDATALOAD PUSH8 0xFFFFFFFFFFFFFFFF DUP2 GT ISZERO PUSH2 0x5F1 JUMPI PUSH2 0x5F0 PUSH2 0x316 JUMP JUMPDEST JUMPDEST PUSH2 0x5FD DUP7 DUP3 DUP8 ADD PUSH2 0x552 JUMP JUMPDEST SWAP2 POP POP SWAP3 POP SWAP3 POP SWAP3 JUMP JUMPDEST PUSH32 0x53747564656E7420646F6573206E6F7420657869737420696E20446174616261 PUSH0 DUP3 ADD MSTORE PUSH32 0x7365000000000000000000000000000000000000000000000000000000000000 PUSH1 0x20 DUP3 ADD MSTORE POP JUMP JUMPDEST PUSH0 PUSH2 0x661 PUSH1 0x22 DUP4 PUSH2 0x382 JUMP JUMPDEST SWAP2 POP PUSH2 0x66C DUP3 PUSH2 0x607 JUMP JUMPDEST PUSH1 0x40 DUP3 ADD SWAP1 POP SWAP2 SWAP1 POP JUMP JUMPDEST PUSH0 PUSH1 0x20 DUP3 ADD SWAP1 POP DUP2 DUP2 SUB PUSH0 DUP4 ADD MSTORE PUSH2 0x68E DUP2 PUSH2 0x655 JUMP JUMPDEST SWAP1 POP SWAP2 SWAP1 POP JUMP JUMPDEST PUSH32 0x4E487B7100000000000000000000000000000000000000000000000000000000 PUSH0 MSTORE PUSH1 0x32 PUSH1 0x4 MSTORE PUSH1 0x24 PUSH0 REVERT JUMPDEST PUSH32 0x4E487B7100000000000000000000000000000000000000000000000000000000 PUSH0 MSTORE PUSH1 0x22 PUSH1 0x4 MSTORE PUSH1 0x24 PUSH0 REVERT JUMPDEST PUSH0 PUSH1 0x2 DUP3 DIV SWAP1 POP PUSH1 0x1 DUP3 AND DUP1 PUSH2 0x706 JUMPI PUSH1 0x7F DUP3 AND SWAP2 POP JUMPDEST PUSH1 0x20 DUP3 LT DUP2 SUB PUSH2 0x719 JUMPI PUSH2 0x718 PUSH2 0x6C2 JUMP JUMPDEST JUMPDEST POP SWAP2 SWAP1 POP JUMP JUMPDEST PUSH0 DUP2 SWAP1 POP DUP2 PUSH0 MSTORE PUSH1 0x20 PUSH0 KECCAK256 SWAP1 POP SWAP2 SWAP1 POP JUMP JUMPDEST PUSH0 PUSH1 0x20 PUSH1 0x1F DUP4 ADD DIV SWAP1 POP SWAP2 SWAP1 POP JUMP JUMPDEST PUSH0 DUP3 DUP3 SHL SWAP1 POP SWAP3 SWAP2 POP POP JUMP JUMPDEST PUSH0 PUSH1 0x8 DUP4 MUL PUSH2 0x77B PUSH32 0xFFFFFFFFFFFFFFFFFFFFFFFFFFFFFFFFFFFFFFFFFFFFFFFFFFFFFFFFFFFFFFFF DUP3 PUSH2 0x740 JUMP JUMPDEST PUSH2 0x785 DUP7 DUP4 PUSH2 0x740 JUMP JUMPDEST SWAP6 POP DUP1 NOT DUP5 AND SWAP4 POP DUP1 DUP7 AND DUP5 OR SWAP3 POP POP POP SWAP4 SWAP3 POP POP POP JUMP JUMPDEST PUSH0 DUP2 SWAP1 POP SWAP2 SWAP1 POP JUMP JUMPDEST PUSH0 PUSH2 0x7C0 PUSH2 0x7BB PUSH2 0x7B6 DUP5 PUSH2 0x31A JUMP JUMPDEST PUSH2 0x79D JUMP JUMPDEST PUSH2 0x31A JUMP JUMPDEST SWAP1 POP SWAP2 SWAP1 POP JUMP JUMPDEST PUSH0 DUP2 SWAP1 POP SWAP2 SWAP1 POP JUMP JUMPDEST PUSH2 0x7D9 DUP4 PUSH2 0x7A6 JUMP JUMPDEST PUSH2 0x7ED PUSH2 0x7E5 DUP3 PUSH2 0x7C7 JUMP JUMPDEST DUP5 DUP5 SLOAD PUSH2 0x74C JUMP JUMPDEST DUP3 SSTORE POP POP POP POP JUMP JUMPDEST PUSH0 PUSH0 SWAP1 POP SWAP1 JUMP JUMPDEST PUSH2 0x804 PUSH2 0x7F5 JUMP JUMPDEST PUSH2 0x80F DUP2 DUP5 DUP5 PUSH2 0x7D0 JUMP JUMPDEST POP POP POP JUMP JUMPDEST JUMPDEST DUP2 DUP2 LT ISZERO PUSH2 0x832 JUMPI PUSH2 0x827 PUSH0 DUP3 PUSH2 0x7FC JUMP JUMPDEST PUSH1 0x1 DUP2 ADD SWAP1 POP PUSH2 0x815 JUMP JUMPDEST POP POP JUMP JUMPDEST PUSH1 0x1F DUP3 GT ISZERO PUSH2 0x877 JUMPI PUSH2 0x848 DUP2 PUSH2 0x71F JUMP JUMPDEST PUSH2 0x851 DUP5 PUSH2 0x731 JUMP JUMPDEST DUP2 ADD PUSH1 0x20 DUP6 LT ISZERO PUSH2 0x860 JUMPI DUP2 SWAP1 POP JUMPDEST PUSH2 0x874 PUSH2 0x86C DUP6 PUSH2 0x731 JUMP JUMPDEST DUP4 ADD DUP3 PUSH2 0x814 JUMP JUMPDEST POP POP JUMPDEST POP POP POP JUMP JUMPDEST PUSH0 DUP3 DUP3 SHR SWAP1 POP SWAP3 SWAP2 POP POP JUMP JUMPDEST PUSH0 PUSH2 0x897 PUSH0 NOT DUP5 PUSH1 0x8 MUL PUSH2 0x87C JUMP JUMPDEST NOT DUP1 DUP4 AND SWAP2 POP POP SWAP3 SWAP2 POP POP JUMP JUMPDEST PUSH0 PUSH2 0x8AF DUP4 DUP4 PUSH2 0x888 JUMP JUMPDEST SWAP2 POP DUP3 PUSH1 0x2 MUL DUP3 OR SWAP1 POP SWAP3 SWAP2 POP POP JUMP JUMPDEST PUSH2 0x8C8 DUP3 PUSH2 0x378 JUMP JUMPDEST PUSH8 0xFFFFFFFFFFFFFFFF DUP2 GT ISZERO PUSH2 0x8E1 JUMPI PUSH2 0x8E0 PUSH2 0x45B JUMP JUMPDEST JUMPDEST PUSH2 0x8EB DUP3 SLOAD PUSH2 0x6EF JUMP JUMPDEST PUSH2 0x8F6 DUP3 DUP3 DUP6 PUSH2 0x836 JUMP JUMPDEST PUSH0 PUSH1 0x20 SWAP1 POP PUSH1 0x1F DUP4 GT PUSH1 0x1 DUP2 EQ PUSH2 0x927 JUMPI PUSH0 DUP5 ISZERO PUSH2 0x915 JUMPI DUP3 DUP8 ADD MLOAD SWAP1 POP JUMPDEST PUSH2 0x91F DUP6 DUP3 PUSH2 0x8A4 JUMP JUMPDEST DUP7 SSTORE POP PUSH2 0x986 JUMP JUMPDEST PUSH1 0x1F NOT DUP5 AND PUSH2 0x935 DUP7 PUSH2 0x71F JUMP JUMPDEST PUSH0 JUMPDEST DUP3 DUP2 LT ISZERO PUSH2 0x95C JUMPI DUP5 DUP10 ADD MLOAD DUP3 SSTORE PUSH1 0x1 DUP3 ADD SWAP2 POP PUSH1 0x20 DUP6 ADD SWAP5 POP PUSH1 0x20 DUP2 ADD SWAP1 POP PUSH2 0x937 JUMP JUMPDEST DUP7 DUP4 LT ISZERO PUSH2 0x979 JUMPI DUP5 DUP10 ADD MLOAD PUSH2 0x975 PUSH1 0x1F DUP10 AND DUP3 PUSH2 0x888 JUMP JUMPDEST DUP4 SSTORE POP JUMPDEST PUSH1 0x1 PUSH1 0x2 DUP9 MUL ADD DUP9 SSTORE POP POP POP JUMPDEST POP POP POP POP POP POP JUMP INVALID LOG2 PUSH5 0x6970667358 0x22 SLT KECCAK256 0xC2 0xB0 PUSH5 0xA2443E26EF LOG0 PUSH22 0x5D136883873EC23EA7A30A63A3A074B8EC319D15517C PUSH5 0x736F6C6343 STOP ADDMOD 0x1E STOP CALLER "
				},
				"gasEstimates": {
					"creation": {
						"codeDepositCost": "500000",
						"executionCost": "535",
						"totalCost": "500535"
					},
					"external": {
						"TotalStudents()": "2439",
						"addStudent(string,uint256,string)": "infinite",
						"getStudentByID(uint256)": "infinite"
					}
				},
				"methodIdentifiers": {
					"TotalStudents()": "d499b0d4",
					"addStudent(string,uint256,string)": "ed32a8a1",
					"getStudentByID(uint256)": "40ac2433"
				}
			},
			"storageLayout": {
				"storage": [
					{
						"astId": 12,
						"contract": "student.sol:StudentDB",
						"label": "Students",
						"offset": 0,
						"slot": "0",
						"type": "t_array(t_struct(Student)8_storage)dyn_storage"
					}
				],
				"types": {
					"t_array(t_struct(Student)8_storage)dyn_storage": {
						"base": "t_struct(Student)8_storage",
						"encoding": "dynamic_array",
						"label": "struct StudentDB.Student[]",
						"numberOfBytes": "32"
					},
					"t_string_storage": {
						"encoding": "bytes",
						"label": "string",
						"numberOfBytes": "32"
					},
					"t_struct(Student)8_storage": {
						"encoding": "inplace",
						"label": "struct StudentDB.Student",
						"members": [
							{
								"astId": 3,
								"contract": "student.sol:StudentDB",
								"label": "name",
								"offset": 0,
								"slot": "0",
								"type": "t_string_storage"
							},
							{
								"astId": 5,
								"contract": "student.sol:StudentDB",
								"label": "rollno",
								"offset": 0,
								"slot": "1",
								"type": "t_uint256"
							},
							{
								"astId": 7,
								"contract": "student.sol:StudentDB",
								"label": "stuclass",
								"offset": 0,
								"slot": "2",
								"type": "t_string_storage"
							}
						],
						"numberOfBytes": "96"
					},
					"t_uint256": {
						"encoding": "inplace",
						"label": "uint256",
						"numberOfBytes": "32"
					}
				}
			},
			"userdoc": {
				"kind": "user",
				"methods": {},
				"version": 1
			}
		}
	}
}