{
	"data": {
		"bytecode": {
			"linkReferences": {},
			"object": "6080604052348015600e575f5ffd5b50610e288061001c5f395ff3fe608060405234801561000f575f5ffd5b506004361061007b575f3560e01c8063a5f3c23b11610059578063a5f3c23b146100d7578063abcc11d814610107578063adefc37b14610125578063bbe93d91146101555761007b565b8063435091381461007f57806352efea6e146100af57806373ebb91c146100b9575b5f5ffd5b61009960048036038101906100949190610591565b610185565b6040516100a691906105de565b60405180910390f35b6100b761027e565b005b6100c16102a4565b6040516100ce9190610667565b60405180910390f35b6100f160048036038101906100ec9190610591565b610330565b6040516100fe91906105de565b60405180910390f35b61010f6103e7565b60405161011c91906105de565b60405180910390f35b61013f600480360381019061013a9190610591565b6103ec565b60405161014c91906105de565b60405180910390f35b61016f600480360381019061016a9190610591565b6104a3565b60405161017c91906105de565b60405180910390f35b5f5f82036101c8576040517f08c379a00000000000000000000000000000000000000000000000000000000081526004016101bf906106d1565b60405180910390fd5b5f82846101d59190610749565b9050805f819055506040518060400160405280600381526020017f64697600000000000000000000000000000000000000000000000000000000008152506001908161022191906109e4565b503373ffffffffffffffffffffffffffffffffffffffff167fe3e410afbad5ad1cafe0e02e2d2786931e4004570ea477bcf3e8828083967fea85858460405161026c93929190610afd565b60405180910390a28091505092915050565b5f5f8190555060405180602001604052805f815250600190816102a191906109e4565b50565b600180546102b19061080b565b80601f01602080910402602001604051908101604052809291908181526020018280546102dd9061080b565b80156103285780601f106102ff57610100808354040283529160200191610328565b820191905f5260205f20905b81548152906001019060200180831161030b57829003601f168201915b505050505081565b5f5f828461033e9190610b45565b9050805f819055506040518060400160405280600381526020017f61646400000000000000000000000000000000000000000000000000000000008152506001908161038a91906109e4565b503373ffffffffffffffffffffffffffffffffffffffff167fe3e410afbad5ad1cafe0e02e2d2786931e4004570ea477bcf3e8828083967fea8585846040516103d593929190610bd0565b60405180910390a28091505092915050565b5f5481565b5f5f82846103fa9190610c18565b9050805f819055506040518060400160405280600381526020017f73756200000000000000000000000000000000000000000000000000000000008152506001908161044691906109e4565b503373ffffffffffffffffffffffffffffffffffffffff167fe3e410afbad5ad1cafe0e02e2d2786931e4004570ea477bcf3e8828083967fea85858460405161049193929190610ca2565b60405180910390a28091505092915050565b5f5f82846104b19190610cea565b9050805f819055506040518060400160405280600381526020017f6d756c0000000000000000000000000000000000000000000000000000000000815250600190816104fd91906109e4565b503373ffffffffffffffffffffffffffffffffffffffff167fe3e410afbad5ad1cafe0e02e2d2786931e4004570ea477bcf3e8828083967fea85858460405161054893929190610daa565b60405180910390a28091505092915050565b5f5ffd5b5f819050919050565b6105708161055e565b811461057a575f5ffd5b50565b5f8135905061058b81610567565b92915050565b5f5f604083850312156105a7576105a661055a565b5b5f6105b48582860161057d565b92505060206105c58582860161057d565b9150509250929050565b6105d88161055e565b82525050565b5f6020820190506105f15f8301846105cf565b92915050565b5f81519050919050565b5f82825260208201905092915050565b8281835e5f83830152505050565b5f601f19601f8301169050919050565b5f610639826105f7565b6106438185610601565b9350610653818560208601610611565b61065c8161061f565b840191505092915050565b5f6020820190508181035f83015261067f818461062f565b905092915050565b7f6469766973696f6e206279207a65726f000000000000000000000000000000005f82015250565b5f6106bb601083610601565b91506106c682610687565b602082019050919050565b5f6020820190508181035f8301526106e8816106af565b9050919050565b7f4e487b71000000000000000000000000000000000000000000000000000000005f52601260045260245ffd5b7f4e487b71000000000000000000000000000000000000000000000000000000005f52601160045260245ffd5b5f6107538261055e565b915061075e8361055e565b92508261076e5761076d6106ef565b5b60015f0383147f8000000000000000000000000000000000000000000000000000000000000000831416156107a6576107a561071c565b5b828205905092915050565b7f4e487b71000000000000000000000000000000000000000000000000000000005f52604160045260245ffd5b7f4e487b71000000000000000000000000000000000000000000000000000000005f52602260045260245ffd5b5f600282049050600182168061082257607f821691505b602082108103610835576108346107de565b5b50919050565b5f819050815f5260205f209050919050565b5f6020601f8301049050919050565b5f82821b905092915050565b5f600883026108977fffffffffffffffffffffffffffffffffffffffffffffffffffffffffffffffff8261085c565b6108a1868361085c565b95508019841693508086168417925050509392505050565b5f819050919050565b5f819050919050565b5f6108e56108e06108db846108b9565b6108c2565b6108b9565b9050919050565b5f819050919050565b6108fe836108cb565b61091261090a826108ec565b848454610868565b825550505050565b5f5f905090565b61092961091a565b6109348184846108f5565b505050565b5b818110156109575761094c5f82610921565b60018101905061093a565b5050565b601f82111561099c5761096d8161083b565b6109768461084d565b81016020851015610985578190505b6109996109918561084d565b830182610939565b50505b505050565b5f82821c905092915050565b5f6109bc5f19846008026109a1565b1980831691505092915050565b5f6109d483836109ad565b9150826002028217905092915050565b6109ed826105f7565b67ffffffffffffffff811115610a0657610a056107b1565b5b610a10825461080b565b610a1b82828561095b565b5f60209050601f831160018114610a4c575f8415610a3a578287015190505b610a4485826109c9565b865550610aab565b601f198416610a5a8661083b565b5f5b82811015610a8157848901518255600182019150602085019450602081019050610a5c565b86831015610a9e5784890151610a9a601f8916826109ad565b8355505b6001600288020188555050505b505050505050565b7f64697600000000000000000000000000000000000000000000000000000000005f82015250565b5f610ae7600383610601565b9150610af282610ab3565b602082019050919050565b5f6080820190508181035f830152610b1481610adb565b9050610b2360208301866105cf565b610b3060408301856105cf565b610b3d60608301846105cf565b949350505050565b5f610b4f8261055e565b9150610b5a8361055e565b92508282019050828112155f8312168382125f841215161715610b8057610b7f61071c565b5b92915050565b7f61646400000000000000000000000000000000000000000000000000000000005f82015250565b5f610bba600383610601565b9150610bc582610b86565b602082019050919050565b5f6080820190508181035f830152610be781610bae565b9050610bf660208301866105cf565b610c0360408301856105cf565b610c1060608301846105cf565b949350505050565b5f610c228261055e565b9150610c2d8361055e565b925082820390508181125f8412168282135f851215161715610c5257610c5161071c565b5b92915050565b7f73756200000000000000000000000000000000000000000000000000000000005f82015250565b5f610c8c600383610601565b9150610c9782610c58565b602082019050919050565b5f6080820190508181035f830152610cb981610c80565b9050610cc860208301866105cf565b610cd560408301856105cf565b610ce260608301846105cf565b949350505050565b5f610cf48261055e565b9150610cff8361055e565b9250828202610d0d8161055e565b91507f800000000000000000000000000000000000000000000000000000000000000084145f84121615610d4457610d4361071c565b5b8282058414831517610d5957610d5861071c565b5b5092915050565b7f6d756c00000000000000000000000000000000000000000000000000000000005f82015250565b5f610d94600383610601565b9150610d9f82610d60565b602082019050919050565b5f6080820190508181035f830152610dc181610d88565b9050610dd060208301866105cf565b610ddd60408301856105cf565b610dea60608301846105cf565b94935050505056fea26469706673582212209475eeab5987c372169d7e291edef7387a32d4e928f8ad87491bfb9a782b191664736f6c634300081e0033",
			"opcodes": "PUSH1 0x80 PUSH1 0x40 MSTORE CALLVALUE DUP1 ISZERO PUSH1 0xE JUMPI PUSH0 PUSH0 REVERT JUMPDEST POP PUSH2 0xE28 DUP1 PUSH2 0x1C PUSH0 CODECOPY PUSH0 RETURN INVALID PUSH1 0x80 PUSH1 0x40 MSTORE CALLVALUE DUP1 ISZERO PUSH2 0xF JUMPI PUSH0 PUSH0 REVERT JUMPDEST POP PUSH1 0x4 CALLDATASIZE LT PUSH2 0x7B JUMPI PUSH0 CALLDATALOAD PUSH1 0xE0 SHR DUP1 PUSH4 0xA5F3C23B GT PUSH2 0x59 JUMPI DUP1 PUSH4 0xA5F3C23B EQ PUSH2 0xD7 JUMPI DUP1 PUSH4 0xABCC11D8 EQ PUSH2 0x107 JUMPI DUP1 PUSH4 0xADEFC37B EQ PUSH2 0x125 JUMPI DUP1 PUSH4 0xBBE93D91 EQ PUSH2 0x155 JUMPI PUSH2 0x7B JUMP JUMPDEST DUP1 PUSH4 0x43509138 EQ PUSH2 0x7F JUMPI DUP1 PUSH4 0x52EFEA6E EQ PUSH2 0xAF JUMPI DUP1 PUSH4 0x73EBB91C EQ PUSH2 0xB9 JUMPI JUMPDEST PUSH0 PUSH0 REVERT JUMPDEST PUSH2 0x99 PUSH1 0x4 DUP1 CALLDATASIZE SUB DUP2 ADD SWAP1 PUSH2 0x94 SWAP2 SWAP1 PUSH2 0x591 JUMP JUMPDEST PUSH2 0x185 JUMP JUMPDEST PUSH1 0x40 MLOAD PUSH2 0xA6 SWAP2 SWAP1 PUSH2 0x5DE JUMP JUMPDEST PUSH1 0x40 MLOAD DUP1 SWAP2 SUB SWAP1 RETURN JUMPDEST PUSH2 0xB7 PUSH2 0x27E JUMP JUMPDEST STOP JUMPDEST PUSH2 0xC1 PUSH2 0x2A4 JUMP JUMPDEST PUSH1 0x40 MLOAD PUSH2 0xCE SWAP2 SWAP1 PUSH2 0x667 JUMP JUMPDEST PUSH1 0x40 MLOAD DUP1 SWAP2 SUB SWAP1 RETURN JUMPDEST PUSH2 0xF1 PUSH1 0x4 DUP1 CALLDATASIZE SUB DUP2 ADD SWAP1 PUSH2 0xEC SWAP2 SWAP1 PUSH2 0x591 JUMP JUMPDEST PUSH2 0x330 JUMP JUMPDEST PUSH1 0x40 MLOAD PUSH2 0xFE SWAP2 SWAP1 PUSH2 0x5DE JUMP JUMPDEST PUSH1 0x40 MLOAD DUP1 SWAP2 SUB SWAP1 RETURN JUMPDEST PUSH2 0x10F PUSH2 0x3E7 JUMP JUMPDEST PUSH1 0x40 MLOAD PUSH2 0x11C SWAP2 SWAP1 PUSH2 0x5DE JUMP JUMPDEST PUSH1 0x40 MLOAD DUP1 SWAP2 SUB SWAP1 RETURN JUMPDEST PUSH2 0x13F PUSH1 0x4 DUP1 CALLDATASIZE SUB DUP2 ADD SWAP1 PUSH2 0x13A SWAP2 SWAP1 PUSH2 0x591 JUMP JUMPDEST PUSH2 0x3EC JUMP JUMPDEST PUSH1 0x40 MLOAD PUSH2 0x14C SWAP2 SWAP1 PUSH2 0x5DE JUMP JUMPDEST PUSH1 0x40 MLOAD DUP1 SWAP2 SUB SWAP1 RETURN JUMPDEST PUSH2 0x16F PUSH1 0x4 DUP1 CALLDATASIZE SUB DUP2 ADD SWAP1 PUSH2 0x16A SWAP2 SWAP1 PUSH2 0x591 JUMP JUMPDEST PUSH2 0x4A3 JUMP JUMPDEST PUSH1 0x40 MLOAD PUSH2 0x17C SWAP2 SWAP1 PUSH2 0x5DE JUMP JUMPDEST PUSH1 0x40 MLOAD DUP1 SWAP2 SUB SWAP1 RETURN JUMPDEST PUSH0 PUSH0 DUP3 SUB PUSH2 0x1C8 JUMPI PUSH1 0x40 MLOAD PUSH32 0x8C379A000000000000000000000000000000000000000000000000000000000 DUP2 MSTORE PUSH1 0x4 ADD PUSH2 0x1BF SWAP1 PUSH2 0x6D1 JUMP JUMPDEST PUSH1 0x40 MLOAD DUP1 SWAP2 SUB SWAP1 REVERT JUMPDEST PUSH0 DUP3 DUP5 PUSH2 0x1D5 SWAP2 SWAP1 PUSH2 0x749 JUMP JUMPDEST SWAP1 POP DUP1 PUSH0 DUP2 SWAP1 SSTORE POP PUSH1 0x40 MLOAD DUP1 PUSH1 0x40 ADD PUSH1 0x40 MSTORE DUP1 PUSH1 0x3 DUP2 MSTORE PUSH1 0x20 ADD PUSH32 0x6469760000000000000000000000000000000000000000000000000000000000 DUP2 MSTORE POP PUSH1 0x1 SWAP1 DUP2 PUSH2 0x221 SWAP2 SWAP1 PUSH2 0x9E4 JUMP JUMPDEST POP CALLER PUSH20 0xFFFFFFFFFFFFFFFFFFFFFFFFFFFFFFFFFFFFFFFF AND PUSH32 0xE3E410AFBAD5AD1CAFE0E02E2D2786931E4004570EA477BCF3E8828083967FEA DUP6 DUP6 DUP5 PUSH1 0x40 MLOAD PUSH2 0x26C SWAP4 SWAP3 SWAP2 SWAP1 PUSH2 0xAFD JUMP JUMPDEST PUSH1 0x40 MLOAD DUP1 SWAP2 SUB SWAP1 LOG2 DUP1 SWAP2 POP POP SWAP3 SWAP2 POP POP JUMP JUMPDEST PUSH0 PUSH0 DUP2 SWAP1 SSTORE POP PUSH1 0x40 MLOAD DUP1 PUSH1 0x20 ADD PUSH1 0x40 MSTORE DUP1 PUSH0 DUP2 MSTORE POP PUSH1 0x1 SWAP1 DUP2 PUSH2 0x2A1 SWAP2 SWAP1 PUSH2 0x9E4 JUMP JUMPDEST POP JUMP JUMPDEST PUSH1 0x1 DUP1 SLOAD PUSH2 0x2B1 SWAP1 PUSH2 0x80B JUMP JUMPDEST DUP1 PUSH1 0x1F ADD PUSH1 0x20 DUP1 SWAP2 DIV MUL PUSH1 0x20 ADD PUSH1 0x40 MLOAD SWAP1 DUP2 ADD PUSH1 0x40 MSTORE DUP1 SWAP3 SWAP2 SWAP1 DUP2 DUP2 MSTORE PUSH1 0x20 ADD DUP3 DUP1 SLOAD PUSH2 0x2DD SWAP1 PUSH2 0x80B JUMP JUMPDEST DUP1 ISZERO PUSH2 0x328 JUMPI DUP1 PUSH1 0x1F LT PUSH2 0x2FF JUMPI PUSH2 0x100 DUP1 DUP4 SLOAD DIV MUL DUP4 MSTORE SWAP2 PUSH1 0x20 ADD SWAP2 PUSH2 0x328 JUMP JUMPDEST DUP3 ADD SWAP2 SWAP1 PUSH0 MSTORE PUSH1 0x20 PUSH0 KECCAK256 SWAP1 JUMPDEST DUP2 SLOAD DUP2 MSTORE SWAP1 PUSH1 0x1 ADD SWAP1 PUSH1 0x20 ADD DUP1 DUP4 GT PUSH2 0x30B JUMPI DUP3 SWAP1 SUB PUSH1 0x1F AND DUP3 ADD SWAP2 JUMPDEST POP POP POP POP POP DUP2 JUMP JUMPDEST PUSH0 PUSH0 DUP3 DUP5 PUSH2 0x33E SWAP2 SWAP1 PUSH2 0xB45 JUMP JUMPDEST SWAP1 POP DUP1 PUSH0 DUP2 SWAP1 SSTORE POP PUSH1 0x40 MLOAD DUP1 PUSH1 0x40 ADD PUSH1 0x40 MSTORE DUP1 PUSH1 0x3 DUP2 MSTORE PUSH1 0x20 ADD PUSH32 0x6164640000000000000000000000000000000000000000000000000000000000 DUP2 MSTORE POP PUSH1 0x1 SWAP1 DUP2 PUSH2 0x38A SWAP2 SWAP1 PUSH2 0x9E4 JUMP JUMPDEST POP CALLER PUSH20 0xFFFFFFFFFFFFFFFFFFFFFFFFFFFFFFFFFFFFFFFF AND PUSH32 0xE3E410AFBAD5AD1CAFE0E02E2D2786931E4004570EA477BCF3E8828083967FEA DUP6 DUP6 DUP5 PUSH1 0x40 MLOAD PUSH2 0x3D5 SWAP4 SWAP3 SWAP2 SWAP1 PUSH2 0xBD0 JUMP JUMPDEST PUSH1 0x40 MLOAD DUP1 SWAP2 SUB SWAP1 LOG2 DUP1 SWAP2 POP POP SWAP3 SWAP2 POP POP JUMP JUMPDEST PUSH0 SLOAD DUP2 JUMP JUMPDEST PUSH0 PUSH0 DUP3 DUP5 PUSH2 0x3FA SWAP2 SWAP1 PUSH2 0xC18 JUMP JUMPDEST SWAP1 POP DUP1 PUSH0 DUP2 SWAP1 SSTORE POP PUSH1 0x40 MLOAD DUP1 PUSH1 0x40 ADD PUSH1 0x40 MSTORE DUP1 PUSH1 0x3 DUP2 MSTORE PUSH1 0x20 ADD PUSH32 0x7375620000000000000000000000000000000000000000000000000000000000 DUP2 MSTORE POP PUSH1 0x1 SWAP1 DUP2 PUSH2 0x446 SWAP2 SWAP1 PUSH2 0x9E4 JUMP JUMPDEST POP CALLER PUSH20 0xFFFFFFFFFFFFFFFFFFFFFFFFFFFFFFFFFFFFFFFF AND PUSH32 0xE3E410AFBAD5AD1CAFE0E02E2D2786931E4004570EA477BCF3E8828083967FEA DUP6 DUP6 DUP5 PUSH1 0x40 MLOAD PUSH2 0x491 SWAP4 SWAP3 SWAP2 SWAP1 PUSH2 0xCA2 JUMP JUMPDEST PUSH1 0x40 MLOAD DUP1 SWAP2 SUB SWAP1 LOG2 DUP1 SWAP2 POP POP SWAP3 SWAP2 POP POP JUMP JUMPDEST PUSH0 PUSH0 DUP3 DUP5 PUSH2 0x4B1 SWAP2 SWAP1 PUSH2 0xCEA JUMP JUMPDEST SWAP1 POP DUP1 PUSH0 DUP2 SWAP1 SSTORE POP PUSH1 0x40 MLOAD DUP1 PUSH1 0x40 ADD PUSH1 0x40 MSTORE DUP1 PUSH1 0x3 DUP2 MSTORE PUSH1 0x20 ADD PUSH32 0x6D756C0000000000000000000000000000000000000000000000000000000000 DUP2 MSTORE POP PUSH1 0x1 SWAP1 DUP2 PUSH2 0x4FD SWAP2 SWAP1 PUSH2 0x9E4 JUMP JUMPDEST POP CALLER PUSH20 0xFFFFFFFFFFFFFFFFFFFFFFFFFFFFFFFFFFFFFFFF AND PUSH32 0xE3E410AFBAD5AD1CAFE0E02E2D2786931E4004570EA477BCF3E8828083967FEA DUP6 DUP6 DUP5 PUSH1 0x40 MLOAD PUSH2 0x548 SWAP4 SWAP3 SWAP2 SWAP1 PUSH2 0xDAA JUMP JUMPDEST PUSH1 0x40 MLOAD DUP1 SWAP2 SUB SWAP1 LOG2 DUP1 SWAP2 POP POP SWAP3 SWAP2 POP POP JUMP JUMPDEST PUSH0 PUSH0 REVERT JUMPDEST PUSH0 DUP2 SWAP1 POP SWAP2 SWAP1 POP JUMP JUMPDEST PUSH2 0x570 DUP2 PUSH2 0x55E JUMP JUMPDEST DUP2 EQ PUSH2 0x57A JUMPI PUSH0 PUSH0 REVERT JUMPDEST POP JUMP JUMPDEST PUSH0 DUP2 CALLDATALOAD SWAP1 POP PUSH2 0x58B DUP2 PUSH2 0x567 JUMP JUMPDEST SWAP3 SWAP2 POP POP JUMP JUMPDEST PUSH0 PUSH0 PUSH1 0x40 DUP4 DUP6 SUB SLT ISZERO PUSH2 0x5A7 JUMPI PUSH2 0x5A6 PUSH2 0x55A JUMP JUMPDEST JUMPDEST PUSH0 PUSH2 0x5B4 DUP6 DUP3 DUP7 ADD PUSH2 0x57D JUMP JUMPDEST SWAP3 POP POP PUSH1 0x20 PUSH2 0x5C5 DUP6 DUP3 DUP7 ADD PUSH2 0x57D JUMP JUMPDEST SWAP2 POP POP SWAP3 POP SWAP3 SWAP1 POP JUMP JUMPDEST PUSH2 0x5D8 DUP2 PUSH2 0x55E JUMP JUMPDEST DUP3 MSTORE POP POP JUMP JUMPDEST PUSH0 PUSH1 0x20 DUP3 ADD SWAP1 POP PUSH2 0x5F1 PUSH0 DUP4 ADD DUP5 PUSH2 0x5CF JUMP JUMPDEST SWAP3 SWAP2 POP POP JUMP JUMPDEST PUSH0 DUP2 MLOAD SWAP1 POP SWAP2 SWAP1 POP JUMP JUMPDEST PUSH0 DUP3 DUP3 MSTORE PUSH1 0x20 DUP3 ADD SWAP1 POP SWAP3 SWAP2 POP POP JUMP JUMPDEST DUP3 DUP2 DUP4 MCOPY PUSH0 DUP4 DUP4 ADD MSTORE POP POP POP JUMP JUMPDEST PUSH0 PUSH1 0x1F NOT PUSH1 0x1F DUP4 ADD AND SWAP1 POP SWAP2 SWAP1 POP JUMP JUMPDEST PUSH0 PUSH2 0x639 DUP3 PUSH2 0x5F7 JUMP JUMPDEST PUSH2 0x643 DUP2 DUP6 PUSH2 0x601 JUMP JUMPDEST SWAP4 POP PUSH2 0x653 DUP2 DUP6 PUSH1 0x20 DUP7 ADD PUSH2 0x611 JUMP JUMPDEST PUSH2 0x65C DUP2 PUSH2 0x61F JUMP JUMPDEST DUP5 ADD SWAP2 POP POP SWAP3 SWAP2 POP POP JUMP JUMPDEST PUSH0 PUSH1 0x20 DUP3 ADD SWAP1 POP DUP2 DUP2 SUB PUSH0 DUP4 ADD MSTORE PUSH2 0x67F DUP2 DUP5 PUSH2 0x62F JUMP JUMPDEST SWAP1 POP SWAP3 SWAP2 POP POP JUMP JUMPDEST PUSH32 0x6469766973696F6E206279207A65726F00000000000000000000000000000000 PUSH0 DUP3 ADD MSTORE POP JUMP JUMPDEST PUSH0 PUSH2 0x6BB PUSH1 0x10 DUP4 PUSH2 0x601 JUMP JUMPDEST SWAP2 POP PUSH2 0x6C6 DUP3 PUSH2 0x687 JUMP JUMPDEST PUSH1 0x20 DUP3 ADD SWAP1 POP SWAP2 SWAP1 POP JUMP JUMPDEST PUSH0 PUSH1 0x20 DUP3 ADD SWAP1 POP DUP2 DUP2 SUB PUSH0 DUP4 ADD MSTORE PUSH2 0x6E8 DUP2 PUSH2 0x6AF JUMP JUMPDEST SWAP1 POP SWAP2 SWAP1 POP JUMP JUMPDEST PUSH32 0x4E487B7100000000000000000000000000000000000000000000000000000000 PUSH0 MSTORE PUSH1 0x12 PUSH1 0x4 MSTORE PUSH1 0x24 PUSH0 REVERT JUMPDEST PUSH32 0x4E487B7100000000000000000000000000000000000000000000000000000000 PUSH0 MSTORE PUSH1 0x11 PUSH1 0x4 MSTORE PUSH1 0x24 PUSH0 REVERT JUMPDEST PUSH0 PUSH2 0x753 DUP3 PUSH2 0x55E JUMP JUMPDEST SWAP2 POP PUSH2 0x75E DUP4 PUSH2 0x55E JUMP JUMPDEST SWAP3 POP DUP3 PUSH2 0x76E JUMPI PUSH2 0x76D PUSH2 0x6EF JUMP JUMPDEST JUMPDEST PUSH1 0x1 PUSH0 SUB DUP4 EQ PUSH32 0x8000000000000000000000000000000000000000000000000000000000000000 DUP4 EQ AND ISZERO PUSH2 0x7A6 JUMPI PUSH2 0x7A5 PUSH2 0x71C JUMP JUMPDEST JUMPDEST DUP3 DUP3 SDIV SWAP1 POP SWAP3 SWAP2 POP POP JUMP JUMPDEST PUSH32 0x4E487B7100000000000000000000000000000000000000000000000000000000 PUSH0 MSTORE PUSH1 0x41 PUSH1 0x4 MSTORE PUSH1 0x24 PUSH0 REVERT JUMPDEST PUSH32 0x4E487B7100000000000000000000000000000000000000000000000000000000 PUSH0 MSTORE PUSH1 0x22 PUSH1 0x4 MSTORE PUSH1 0x24 PUSH0 REVERT JUMPDEST PUSH0 PUSH1 0x2 DUP3 DIV SWAP1 POP PUSH1 0x1 DUP3 AND DUP1 PUSH2 0x822 JUMPI PUSH1 0x7F DUP3 AND SWAP2 POP JUMPDEST PUSH1 0x20 DUP3 LT DUP2 SUB PUSH2 0x835 JUMPI PUSH2 0x834 PUSH2 0x7DE JUMP JUMPDEST JUMPDEST POP SWAP2 SWAP1 POP JUMP JUMPDEST PUSH0 DUP2 SWAP1 POP DUP2 PUSH0 MSTORE PUSH1 0x20 PUSH0 KECCAK256 SWAP1 POP SWAP2 SWAP1 POP JUMP JUMPDEST PUSH0 PUSH1 0x20 PUSH1 0x1F DUP4 ADD DIV SWAP1 POP SWAP2 SWAP1 POP JUMP JUMPDEST PUSH0 DUP3 DUP3 SHL SWAP1 POP SWAP3 SWAP2 POP POP JUMP JUMPDEST PUSH0 PUSH1 0x8 DUP4 MUL PUSH2 0x897 PUSH32 0xFFFFFFFFFFFFFFFFFFFFFFFFFFFFFFFFFFFFFFFFFFFFFFFFFFFFFFFFFFFFFFFF DUP3 PUSH2 0x85C JUMP JUMPDEST PUSH2 0x8A1 DUP7 DUP4 PUSH2 0x85C JUMP JUMPDEST SWAP6 POP DUP1 NOT DUP5 AND SWAP4 POP DUP1 DUP7 AND DUP5 OR SWAP3 POP POP POP SWAP4 SWAP3 POP POP POP JUMP JUMPDEST PUSH0 DUP2 SWAP1 POP SWAP2 SWAP1 POP JUMP JUMPDEST PUSH0 DUP2 SWAP1 POP SWAP2 SWAP1 POP JUMP JUMPDEST PUSH0 PUSH2 0x8E5 PUSH2 0x8E0 PUSH2 0x8DB DUP5 PUSH2 0x8B9 JUMP JUMPDEST PUSH2 0x8C2 JUMP JUMPDEST PUSH2 0x8B9 JUMP JUMPDEST SWAP1 POP SWAP2 SWAP1 POP JUMP JUMPDEST PUSH0 DUP2 SWAP1 POP SWAP2 SWAP1 POP JUMP JUMPDEST PUSH2 0x8FE DUP4 PUSH2 0x8CB JUMP JUMPDEST PUSH2 0x912 PUSH2 0x90A DUP3 PUSH2 0x8EC JUMP JUMPDEST DUP5 DUP5 SLOAD PUSH2 0x868 JUMP JUMPDEST DUP3 SSTORE POP POP POP POP JUMP JUMPDEST PUSH0 PUSH0 SWAP1 POP SWAP1 JUMP JUMPDEST PUSH2 0x929 PUSH2 0x91A JUMP JUMPDEST PUSH2 0x934 DUP2 DUP5 DUP5 PUSH2 0x8F5 JUMP JUMPDEST POP POP POP JUMP JUMPDEST JUMPDEST DUP2 DUP2 LT ISZERO PUSH2 0x957 JUMPI PUSH2 0x94C PUSH0 DUP3 PUSH2 0x921 JUMP JUMPDEST PUSH1 0x1 DUP2 ADD SWAP1 POP PUSH2 0x93A JUMP JUMPDEST POP POP JUMP JUMPDEST PUSH1 0x1F DUP3 GT ISZERO PUSH2 0x99C JUMPI PUSH2 0x96D DUP2 PUSH2 0x83B JUMP JUMPDEST PUSH2 0x976 DUP5 PUSH2 0x84D JUMP JUMPDEST DUP2 ADD PUSH1 0x20 DUP6 LT ISZERO PUSH2 0x985 JUMPI DUP2 SWAP1 POP JUMPDEST PUSH2 0x999 PUSH2 0x991 DUP6 PUSH2 0x84D JUMP JUMPDEST DUP4 ADD DUP3 PUSH2 0x939 JUMP JUMPDEST POP POP JUMPDEST POP POP POP JUMP JUMPDEST PUSH0 DUP3 DUP3 SHR SWAP1 POP SWAP3 SWAP2 POP POP JUMP JUMPDEST PUSH0 PUSH2 0x9BC PUSH0 NOT DUP5 PUSH1 0x8 MUL PUSH2 0x9A1 JUMP JUMPDEST NOT DUP1 DUP4 AND SWAP2 POP POP SWAP3 SWAP2 POP POP JUMP JUMPDEST PUSH0 PUSH2 0x9D4 DUP4 DUP4 PUSH2 0x9AD JUMP JUMPDEST SWAP2 POP DUP3 PUSH1 0x2 MUL DUP3 OR SWAP1 POP SWAP3 SWAP2 POP POP JUMP JUMPDEST PUSH2 0x9ED DUP3 PUSH2 0x5F7 JUMP JUMPDEST PUSH8 0xFFFFFFFFFFFFFFFF DUP2 GT ISZERO PUSH2 0xA06 JUMPI PUSH2 0xA05 PUSH2 0x7B1 JUMP JUMPDEST JUMPDEST PUSH2 0xA10 DUP3 SLOAD PUSH2 0x80B JUMP JUMPDEST PUSH2 0xA1B DUP3 DUP3 DUP6 PUSH2 0x95B JUMP JUMPDEST PUSH0 PUSH1 0x20 SWAP1 POP PUSH1 0x1F DUP4 GT PUSH1 0x1 DUP2 EQ PUSH2 0xA4C JUMPI PUSH0 DUP5 ISZERO PUSH2 0xA3A JUMPI DUP3 DUP8 ADD MLOAD SWAP1 POP JUMPDEST PUSH2 0xA44 DUP6 DUP3 PUSH2 0x9C9 JUMP JUMPDEST DUP7 SSTORE POP PUSH2 0xAAB JUMP JUMPDEST PUSH1 0x1F NOT DUP5 AND PUSH2 0xA5A DUP7 PUSH2 0x83B JUMP JUMPDEST PUSH0 JUMPDEST DUP3 DUP2 LT ISZERO PUSH2 0xA81 JUMPI DUP5 DUP10 ADD MLOAD DUP3 SSTORE PUSH1 0x1 DUP3 ADD SWAP2 POP PUSH1 0x20 DUP6 ADD SWAP5 POP PUSH1 0x20 DUP2 ADD SWAP1 POP PUSH2 0xA5C JUMP JUMPDEST DUP7 DUP4 LT ISZERO PUSH2 0xA9E JUMPI DUP5 DUP10 ADD MLOAD PUSH2 0xA9A PUSH1 0x1F DUP10 AND DUP3 PUSH2 0x9AD JUMP JUMPDEST DUP4 SSTORE POP JUMPDEST PUSH1 0x1 PUSH1 0x2 DUP9 MUL ADD DUP9 SSTORE POP POP POP JUMPDEST POP POP POP POP POP POP JUMP JUMPDEST PUSH32 0x6469760000000000000000000000000000000000000000000000000000000000 PUSH0 DUP3 ADD MSTORE POP JUMP JUMPDEST PUSH0 PUSH2 0xAE7 PUSH1 0x3 DUP4 PUSH2 0x601 JUMP JUMPDEST SWAP2 POP PUSH2 0xAF2 DUP3 PUSH2 0xAB3 JUMP JUMPDEST PUSH1 0x20 DUP3 ADD SWAP1 POP SWAP2 SWAP1 POP JUMP JUMPDEST PUSH0 PUSH1 0x80 DUP3 ADD SWAP1 POP DUP2 DUP2 SUB PUSH0 DUP4 ADD MSTORE PUSH2 0xB14 DUP2 PUSH2 0xADB JUMP JUMPDEST SWAP1 POP PUSH2 0xB23 PUSH1 0x20 DUP4 ADD DUP7 PUSH2 0x5CF JUMP JUMPDEST PUSH2 0xB30 PUSH1 0x40 DUP4 ADD DUP6 PUSH2 0x5CF JUMP JUMPDEST PUSH2 0xB3D PUSH1 0x60 DUP4 ADD DUP5 PUSH2 0x5CF JUMP JUMPDEST SWAP5 SWAP4 POP POP POP POP JUMP JUMPDEST PUSH0 PUSH2 0xB4F DUP3 PUSH2 0x55E JUMP JUMPDEST SWAP2 POP PUSH2 0xB5A DUP4 PUSH2 0x55E JUMP JUMPDEST SWAP3 POP DUP3 DUP3 ADD SWAP1 POP DUP3 DUP2 SLT ISZERO PUSH0 DUP4 SLT AND DUP4 DUP3 SLT PUSH0 DUP5 SLT ISZERO AND OR ISZERO PUSH2 0xB80 JUMPI PUSH2 0xB7F PUSH2 0x71C JUMP JUMPDEST JUMPDEST SWAP3 SWAP2 POP POP JUMP JUMPDEST PUSH32 0x6164640000000000000000000000000000000000000000000000000000000000 PUSH0 DUP3 ADD MSTORE POP JUMP JUMPDEST PUSH0 PUSH2 0xBBA PUSH1 0x3 DUP4 PUSH2 0x601 JUMP JUMPDEST SWAP2 POP PUSH2 0xBC5 DUP3 PUSH2 0xB86 JUMP JUMPDEST PUSH1 0x20 DUP3 ADD SWAP1 POP SWAP2 SWAP1 POP JUMP JUMPDEST PUSH0 PUSH1 0x80 DUP3 ADD SWAP1 POP DUP2 DUP2 SUB PUSH0 DUP4 ADD MSTORE PUSH2 0xBE7 DUP2 PUSH2 0xBAE JUMP JUMPDEST SWAP1 POP PUSH2 0xBF6 PUSH1 0x20 DUP4 ADD DUP7 PUSH2 0x5CF JUMP JUMPDEST PUSH2 0xC03 PUSH1 0x40 DUP4 ADD DUP6 PUSH2 0x5CF JUMP JUMPDEST PUSH2 0xC10 PUSH1 0x60 DUP4 ADD DUP5 PUSH2 0x5CF JUMP JUMPDEST SWAP5 SWAP4 POP POP POP POP JUMP JUMPDEST PUSH0 PUSH2 0xC22 DUP3 PUSH2 0x55E JUMP JUMPDEST SWAP2 POP PUSH2 0xC2D DUP4 PUSH2 0x55E JUMP JUMPDEST SWAP3 POP DUP3 DUP3 SUB SWAP1 POP DUP2 DUP2 SLT PUSH0 DUP5 SLT AND DUP3 DUP3 SGT PUSH0 DUP6 SLT ISZERO AND OR ISZERO PUSH2 0xC52 JUMPI PUSH2 0xC51 PUSH2 0x71C JUMP JUMPDEST JUMPDEST SWAP3 SWAP2 POP POP JUMP JUMPDEST PUSH32 0x7375620000000000000000000000000000000000000000000000000000000000 PUSH0 DUP3 ADD MSTORE POP JUMP JUMPDEST PUSH0 PUSH2 0xC8C PUSH1 0x3 DUP4 PUSH2 0x601 JUMP JUMPDEST SWAP2 POP PUSH2 0xC97 DUP3 PUSH2 0xC58 JUMP JUMPDEST PUSH1 0x20 DUP3 ADD SWAP1 POP SWAP2 SWAP1 POP JUMP JUMPDEST PUSH0 PUSH1 0x80 DUP3 ADD SWAP1 POP DUP2 DUP2 SUB PUSH0 DUP4 ADD MSTORE PUSH2 0xCB9 DUP2 PUSH2 0xC80 JUMP JUMPDEST SWAP1 POP PUSH2 0xCC8 PUSH1 0x20 DUP4 ADD DUP7 PUSH2 0x5CF JUMP JUMPDEST PUSH2 0xCD5 PUSH1 0x40 DUP4 ADD DUP6 PUSH2 0x5CF JUMP JUMPDEST PUSH2 0xCE2 PUSH1 0x60 DUP4 ADD DUP5 PUSH2 0x5CF JUMP JUMPDEST SWAP5 SWAP4 POP POP POP POP JUMP JUMPDEST PUSH0 PUSH2 0xCF4 DUP3 PUSH2 0x55E JUMP JUMPDEST SWAP2 POP PUSH2 0xCFF DUP4 PUSH2 0x55E JUMP JUMPDEST SWAP3 POP DUP3 DUP3 MUL PUSH2 0xD0D DUP2 PUSH2 0x55E JUMP JUMPDEST SWAP2 POP PUSH32 0x8000000000000000000000000000000000000000000000000000000000000000 DUP5 EQ PUSH0 DUP5 SLT AND ISZERO PUSH2 0xD44 JUMPI PUSH2 0xD43 PUSH2 0x71C JUMP JUMPDEST JUMPDEST DUP3 DUP3 SDIV DUP5 EQ DUP4 ISZERO OR PUSH2 0xD59 JUMPI PUSH2 0xD58 PUSH2 0x71C JUMP JUMPDEST JUMPDEST POP SWAP3 SWAP2 POP POP JUMP JUMPDEST PUSH32 0x6D756C0000000000000000000000000000000000000000000000000000000000 PUSH0 DUP3 ADD MSTORE POP JUMP JUMPDEST PUSH0 PUSH2 0xD94 PUSH1 0x3 DUP4 PUSH2 0x601 JUMP JUMPDEST SWAP2 POP PUSH2 0xD9F DUP3 PUSH2 0xD60 JUMP JUMPDEST PUSH1 0x20 DUP3 ADD SWAP1 POP SWAP2 SWAP1 POP JUMP JUMPDEST PUSH0 PUSH1 0x80 DUP3 ADD SWAP1 POP DUP2 DUP2 SUB PUSH0 DUP4 ADD MSTORE PUSH2 0xDC1 DUP2 PUSH2 0xD88 JUMP JUMPDEST SWAP1 POP PUSH2 0xDD0 PUSH1 0x20 DUP4 ADD DUP7 PUSH2 0x5CF JUMP JUMPDEST PUSH2 0xDDD PUSH1 0x40 DUP4 ADD DUP6 PUSH2 0x5CF JUMP JUMPDEST PUSH2 0xDEA PUSH1 0x60 DUP4 ADD DUP5 PUSH2 0x5CF JUMP JUMPDEST SWAP5 SWAP4 POP POP POP POP JUMP INVALID LOG2 PUSH5 0x6970667358 0x22 SLT KECCAK256 SWAP5 PUSH22 0xEEAB5987C372169D7E291EDEF7387A32D4E928F8AD87 BLOBHASH SHL EXTSTATICCALL SWAP11 PUSH25 0x2B191664736F6C634300081E00330000000000000000000000 "
		},
		"gasEstimates": {
			"creation": {
				"codeDepositCost": "724800",
				"executionCost": "758",
				"totalCost": "725558"
			},
			"external": {
				"add(int256,int256)": "infinite",
				"clear()": "infinite",
				"div(int256,int256)": "infinite",
				"lastOperation()": "infinite",
				"lastResult()": "2446",
				"mul(int256,int256)": "infinite",
				"sub(int256,int256)": "infinite"
			}
		},
		"methodIdentifiers": {
			"add(int256,int256)": "a5f3c23b",
			"clear()": "52efea6e",
			"div(int256,int256)": "43509138",
			"lastOperation()": "73ebb91c",
			"lastResult()": "abcc11d8",
			"mul(int256,int256)": "bbe93d91",
			"sub(int256,int256)": "adefc37b"
		}
	},
	"abi": [
		{
			"anonymous": false,
			"inputs": [
				{
					"indexed": true,
					"internalType": "address",
					"name": "caller",
					"type": "address"
				},
				{
					"indexed": false,
					"internalType": "string",
					"name": "operation",
					"type": "string"
				},
				{
					"indexed": false,
					"internalType": "int256",
					"name": "a",
					"type": "int256"
				},
				{
					"indexed": false,
					"internalType": "int256",
					"name": "b",
					"type": "int256"
				},
				{
					"indexed": false,
					"internalType": "int256",
					"name": "result",
					"type": "int256"
				}
			],
			"name": "Calculated",
			"type": "event"
		},
		{
			"inputs": [
				{
					"internalType": "int256",
					"name": "a",
					"type": "int256"
				},
				{
					"internalType": "int256",
					"name": "b",
					"type": "int256"
				}
			],
			"name": "add",
			"outputs": [
				{
					"internalType": "int256",
					"name": "",
					"type": "int256"
				}
			],
			"stateMutability": "nonpayable",
			"type": "function"
		},
		{
			"inputs": [],
			"name": "clear",
			"outputs": [],
			"stateMutability": "nonpayable",
			"type": "function"
		},
		{
			"inputs": [
				{
					"internalType": "int256",
					"name": "a",
					"type": "int256"
				},
				{
					"internalType": "int256",
					"name": "b",
					"type": "int256"
				}
			],
			"name": "div",
			"outputs": [
				{
					"internalType": "int256",
					"name": "",
					"type": "int256"
				}
			],
			"stateMutability": "nonpayable",
			"type": "function"
		},
		{
			"inputs": [],
			"name": "lastOperation",
			"outputs": [
				{
					"internalType": "string",
					"name": "",
					"type": "string"
				}
			],
			"stateMutability": "view",
			"type": "function"
		},
		{
			"inputs": [],
			"name": "lastResult",
			"outputs": [
				{
					"internalType": "int256",
					"name": "",
					"type": "int256"
				}
			],
			"stateMutability": "view",
			"type": "function"
		},
		{
			"inputs": [
				{
					"internalType": "int256",
					"name": "a",
					"type": "int256"
				},
				{
					"internalType": "int256",
					"name": "b",
					"type": "int256"
				}
			],
			"name": "mul",
			"outputs": [
				{
					"internalType": "int256",
					"name": "",
					"type": "int256"
				}
			],
			"stateMutability": "nonpayable",
			"type": "function"
		},
		{
			"inputs": [
				{
					"internalType": "int256",
					"name": "a",
					"type": "int256"
				},
				{
					"internalType": "int256",
					"name": "b",
					"type": "int256"
				}
			],
			"name": "sub",
			"outputs": [
				{
					"internalType": "int256",
					"name": "",
					"type": "int256"
				}
			],
			"stateMutability": "nonpayable",
			"type": "function"
		}
	]
}